{
	"contractName": "Oracle",
	"abi": [
		{
			"constant": true,
			"inputs": [],
			"name": "name",
			"outputs": [
				{
					"name": "",
					"type": "string"
				}
			],
			"payable": false,
			"stateMutability": "view",
			"type": "function",
			"signature": "0x06fdde03"
		},
		{
			"constant": true,
			"inputs": [],
			"name": "totalSupply",
			"outputs": [
				{
					"name": "",
					"type": "uint256"
				}
			],
			"payable": false,
			"stateMutability": "view",
			"type": "function",
			"signature": "0x18160ddd"
		},
		{
			"constant": true,
			"inputs": [],
			"name": "decimals",
			"outputs": [
				{
					"name": "",
					"type": "uint8"
				}
			],
			"payable": false,
			"stateMutability": "view",
			"type": "function",
			"signature": "0x313ce567"
		},
		{
			"constant": true,
			"inputs": [
				{
					"name": "",
					"type": "address"
				}
			],
			"name": "totalStakedAmt",
			"outputs": [
				{
					"name": "",
					"type": "uint256"
				}
			],
			"payable": false,
			"stateMutability": "view",
			"type": "function",
			"signature": "0x645bd810"
		},
		{
			"constant": true,
			"inputs": [
				{
					"name": "",
					"type": "address"
				}
			],
			"name": "votesForCurrentRound",
			"outputs": [
				{
					"name": "",
					"type": "uint256"
				}
			],
			"payable": false,
			"stateMutability": "view",
			"type": "function",
			"signature": "0x6bff5813"
		},
		{
			"constant": true,
			"inputs": [
				{
					"name": "",
					"type": "address"
				}
			],
			"name": "balanceOf",
			"outputs": [
				{
					"name": "",
					"type": "uint256"
				}
			],
			"payable": false,
			"stateMutability": "view",
			"type": "function",
			"signature": "0x70a08231"
		},
		{
			"constant": true,
			"inputs": [
				{
					"name": "",
					"type": "address"
				}
			],
			"name": "committedPrice",
			"outputs": [
				{
					"name": "priceInWei",
					"type": "uint256"
				},
				{
					"name": "timeInSecond",
					"type": "uint256"
				},
				{
					"name": "blockTime",
					"type": "uint256"
				}
			],
			"payable": false,
			"stateMutability": "view",
			"type": "function",
			"signature": "0x7df4f56b"
		},
		{
			"constant": true,
			"inputs": [],
			"name": "inceptionTimeInSecond",
			"outputs": [
				{
					"name": "",
					"type": "uint256"
				}
			],
			"payable": false,
			"stateMutability": "view",
			"type": "function",
			"signature": "0x838e09d9"
		},
		{
			"constant": true,
			"inputs": [],
			"name": "symbol",
			"outputs": [
				{
					"name": "",
					"type": "string"
				}
			],
			"payable": false,
			"stateMutability": "view",
			"type": "function",
			"signature": "0x95d89b41"
		},
		{
			"constant": true,
			"inputs": [
				{
					"name": "",
					"type": "address"
				}
			],
			"name": "isWhiteListFeeders",
			"outputs": [
				{
					"name": "",
					"type": "bool"
				}
			],
			"payable": false,
			"stateMutability": "view",
			"type": "function",
			"signature": "0x9981dbdc"
		},
		{
			"constant": true,
			"inputs": [],
			"name": "mingRatio",
			"outputs": [
				{
					"name": "",
					"type": "uint256"
				}
			],
			"payable": false,
			"stateMutability": "view",
			"type": "function",
			"signature": "0xa4857f3d"
		},
		{
			"constant": true,
			"inputs": [
				{
					"name": "",
					"type": "address"
				}
			],
			"name": "hasCommitted",
			"outputs": [
				{
					"name": "",
					"type": "bool"
				}
			],
			"payable": false,
			"stateMutability": "view",
			"type": "function",
			"signature": "0xc6dbe15a"
		},
		{
			"constant": true,
			"inputs": [],
			"name": "totalFeeders",
			"outputs": [
				{
					"name": "",
					"type": "uint256"
				}
			],
			"payable": false,
			"stateMutability": "view",
			"type": "function",
			"signature": "0xd3686dcf"
		},
		{
			"constant": true,
			"inputs": [
				{
					"name": "",
					"type": "address"
				}
			],
			"name": "receivedVotes",
			"outputs": [
				{
					"name": "",
					"type": "uint256"
				}
			],
			"payable": false,
			"stateMutability": "view",
			"type": "function",
			"signature": "0xd8ce95ab"
		},
		{
			"constant": true,
			"inputs": [
				{
					"name": "",
					"type": "address"
				},
				{
					"name": "",
					"type": "address"
				}
			],
			"name": "allowance",
			"outputs": [
				{
					"name": "",
					"type": "uint256"
				}
			],
			"payable": false,
			"stateMutability": "view",
			"type": "function",
			"signature": "0xdd62ed3e"
		},
		{
			"constant": true,
			"inputs": [],
			"name": "totalVotersForCurrentRound",
			"outputs": [
				{
					"name": "",
					"type": "uint256"
				}
			],
			"payable": false,
			"stateMutability": "view",
			"type": "function",
			"signature": "0xe814e7f5"
		},
		{
			"constant": true,
			"inputs": [],
			"name": "lastPriceTimeInSecond",
			"outputs": [
				{
					"name": "",
					"type": "uint256"
				}
			],
			"payable": false,
			"stateMutability": "view",
			"type": "function",
			"signature": "0xed9e4789"
		},
		{
			"constant": true,
			"inputs": [],
			"name": "period",
			"outputs": [
				{
					"name": "",
					"type": "uint256"
				}
			],
			"payable": false,
			"stateMutability": "view",
			"type": "function",
			"signature": "0xef78d4fd"
		},
		{
			"constant": true,
			"inputs": [],
			"name": "openWindowTimeInSecond",
			"outputs": [
				{
					"name": "",
					"type": "uint256"
				}
			],
			"payable": false,
			"stateMutability": "view",
			"type": "function",
			"signature": "0xf7732499"
		},
		{
			"inputs": [
				{
					"name": "pd",
					"type": "uint256"
				},
				{
					"name": "openWindow",
					"type": "uint256"
				},
				{
					"name": "tokenName",
					"type": "string"
				},
				{
					"name": "tokenSymbol",
					"type": "string"
				},
				{
					"name": "totalSupplyInWei",
					"type": "uint256"
				}
			],
			"payable": false,
			"stateMutability": "nonpayable",
			"type": "constructor",
			"signature": "constructor"
		},
		{
			"anonymous": false,
			"inputs": [
				{
					"indexed": true,
					"name": "from",
					"type": "address"
				},
				{
					"indexed": true,
					"name": "to",
					"type": "address"
				},
				{
					"indexed": false,
					"name": "value",
					"type": "uint256"
				}
			],
			"name": "Transfer",
			"type": "event",
			"signature": "0xddf252ad1be2c89b69c2b068fc378daa952ba7f163c4a11628f55a4df523b3ef"
		},
		{
			"anonymous": false,
			"inputs": [
				{
					"indexed": true,
					"name": "tokenOwner",
					"type": "address"
				},
				{
					"indexed": true,
					"name": "spender",
					"type": "address"
				},
				{
					"indexed": false,
					"name": "tokens",
					"type": "uint256"
				}
			],
			"name": "Approval",
			"type": "event",
			"signature": "0x8c5be1e5ebec7d5bd14f71427d1e84f3dd0314c0f7b2291e5b200ac8c7c3b925"
		},
		{
			"anonymous": false,
			"inputs": [
				{
					"indexed": true,
					"name": "priceInWei",
					"type": "uint256"
				},
				{
					"indexed": true,
					"name": "timeInSecond",
					"type": "uint256"
				},
				{
					"indexed": false,
					"name": "sender",
					"type": "address"
				}
			],
			"name": "CommitPrice",
			"type": "event",
			"signature": "0x2f4ba6f2db22a6371cf4a725ab5bcc8ff678b0b9071bbd043e04eac67e2c66ad"
		},
		{
			"anonymous": false,
			"inputs": [
				{
					"indexed": false,
					"name": "inceptionTime",
					"type": "uint256"
				},
				{
					"indexed": false,
					"name": "startAddr",
					"type": "address"
				}
			],
			"name": "Inception",
			"type": "event",
			"signature": "0xbc20852d5f54c23d3800000c77c1a3369f5dd794fcb93c3d48122e148c67fad3"
		},
		{
			"constant": false,
			"inputs": [
				{
					"name": "startTime",
					"type": "uint256"
				},
				{
					"name": "whiteList",
					"type": "address[]"
				}
			],
			"name": "startOracle",
			"outputs": [
				{
					"name": "success",
					"type": "bool"
				}
			],
			"payable": false,
			"stateMutability": "nonpayable",
			"type": "function",
			"signature": "0x84af39d1"
		},
		{
			"constant": false,
			"inputs": [
				{
					"name": "amtInWei",
					"type": "uint256"
				}
			],
			"name": "stake",
			"outputs": [],
			"payable": false,
			"stateMutability": "nonpayable",
			"type": "function",
			"signature": "0xa694fc3a"
		},
		{
			"constant": false,
			"inputs": [
				{
					"name": "amtInWei",
					"type": "uint256"
				}
			],
			"name": "unStake",
			"outputs": [],
			"payable": false,
			"stateMutability": "nonpayable",
			"type": "function",
			"signature": "0x5d3eea91"
		},
		{
			"constant": false,
			"inputs": [
				{
					"name": "priceInWei",
					"type": "uint256"
				},
				{
					"name": "timeInSecond",
					"type": "uint256"
				},
				{
					"components": [
						{
							"name": "addr",
							"type": "address"
						},
						{
							"name": "timeInSecond",
							"type": "uint256"
						},
						{
							"name": "stakes",
							"type": "uint256"
						},
						{
							"name": "v",
							"type": "uint8"
						},
						{
							"name": "r",
							"type": "bytes32"
						},
						{
							"name": "s",
							"type": "bytes32"
						}
					],
					"name": "delegatedStakes",
					"type": "tuple[]"
				}
			],
			"name": "commitPrice",
			"outputs": [
				{
					"name": "success",
					"type": "bool"
				}
			],
			"payable": false,
			"stateMutability": "nonpayable",
			"type": "function",
			"signature": "0xe0607563"
		},
		{
			"constant": false,
			"inputs": [],
			"name": "startNextRound",
			"outputs": [],
			"payable": false,
			"stateMutability": "nonpayable",
			"type": "function",
			"signature": "0x3c3ccc44"
		},
		{
			"constant": true,
			"inputs": [
				{
					"name": "_a",
					"type": "string"
				},
				{
					"name": "_b",
					"type": "string"
				}
			],
			"name": "concat",
			"outputs": [
				{
					"name": "",
					"type": "string"
				}
			],
			"payable": false,
			"stateMutability": "pure",
			"type": "function",
			"signature": "0x89c19ddb"
		},
		{
			"constant": false,
			"inputs": [
				{
					"name": "data",
					"type": "uint256[]"
				}
			],
			"name": "sort",
			"outputs": [
				{
					"name": "",
					"type": "uint256[]"
				}
			],
			"payable": false,
			"stateMutability": "nonpayable",
			"type": "function",
			"signature": "0x9ec8b026"
		},
		{
			"constant": false,
			"inputs": [
				{
					"name": "to",
					"type": "address"
				},
				{
					"name": "tokens",
					"type": "uint256"
				}
			],
			"name": "transfer",
			"outputs": [
				{
					"name": "success",
					"type": "bool"
				}
			],
			"payable": false,
			"stateMutability": "nonpayable",
			"type": "function",
			"signature": "0xa9059cbb"
		},
		{
			"constant": false,
			"inputs": [
				{
					"name": "from",
					"type": "address"
				},
				{
					"name": "to",
					"type": "address"
				},
				{
					"name": "tokens",
					"type": "uint256"
				}
			],
			"name": "transferFrom",
			"outputs": [
				{
					"name": "success",
					"type": "bool"
				}
			],
			"payable": false,
			"stateMutability": "nonpayable",
			"type": "function",
			"signature": "0x23b872dd"
		},
		{
			"constant": false,
			"inputs": [
				{
					"name": "spender",
					"type": "address"
				},
				{
					"name": "tokens",
					"type": "uint256"
				}
			],
			"name": "approve",
			"outputs": [
				{
					"name": "success",
					"type": "bool"
				}
			],
			"payable": false,
			"stateMutability": "nonpayable",
			"type": "function",
			"signature": "0x095ea7b3"
		}
	],
	"bytecode": "0x60806040526001805560006008556012601960006101000a81548160ff021916908360ff1602179055503480156200003657600080fd5b50604051620036ee380380620036ee83398101806040526200005c91908101906200026d565b84600081905550836002819055506001601160003373ffffffffffffffffffffffffffffffffffffffff1673ffffffffffffffffffffffffffffffffffffffff16815260200190815260200160002060006101000a81548160ff0219169083151502179055508260169080519060200190620000da9291906200014a565b508160179080519060200190620000f39291906200014a565b508060188190555080600560003373ffffffffffffffffffffffffffffffffffffffff1673ffffffffffffffffffffffffffffffffffffffff168152602001908152602001600020819055505050505050620003bc565b828054600181600116156101000203166002900490600052602060002090601f016020900481019282601f106200018d57805160ff1916838001178555620001be565b82800160010185558215620001be579182015b82811115620001bd578251825591602001919060010190620001a0565b5b509050620001cd9190620001d1565b5090565b620001f691905b80821115620001f2576000816000905550600101620001d8565b5090565b90565b600082601f83011215156200020d57600080fd5b8151620002246200021e826200034f565b62000321565b915080825260208301602083018583830111156200024157600080fd5b6200024e83828462000386565b50505092915050565b60006200026582516200037c565b905092915050565b600080600080600060a086880312156200028657600080fd5b6000620002968882890162000257565b9550506020620002a98882890162000257565b945050604086015167ffffffffffffffff811115620002c757600080fd5b620002d588828901620001f9565b935050606086015167ffffffffffffffff811115620002f357600080fd5b6200030188828901620001f9565b9250506080620003148882890162000257565b9150509295509295909350565b6000604051905081810181811067ffffffffffffffff821117156200034557600080fd5b8060405250919050565b600067ffffffffffffffff8211156200036757600080fd5b601f19601f8301169050602081019050919050565b6000819050919050565b60005b83811015620003a657808201518184015260208101905062000389565b83811115620003b6576000848401525b50505050565b61332280620003cc6000396000f300608060405260043610610175576000357c0100000000000000000000000000000000000000000000000000000000900463ffffffff16806306fdde031461017a578063095ea7b3146101a557806318160ddd146101e257806323b872dd1461020d578063313ce5671461024a5780633c3ccc44146102755780635d3eea911461028c578063645bd810146102b55780636bff5813146102f257806370a082311461032f5780637df4f56b1461036c578063838e09d9146103ab57806384af39d1146103d657806389c19ddb146104135780639517fe9d1461045057806395d89b411461048d5780639981dbdc146104b85780639ec8b026146104f5578063a4857f3d14610532578063a694fc3a1461055d578063a9059cbb14610586578063c6dbe15a146105c3578063d3686dcf14610600578063d8ce95ab1461062b578063dd62ed3e14610668578063e814e7f5146106a5578063ed9e4789146106d0578063ef78d4fd146106fb578063f773249914610726575b600080fd5b34801561018657600080fd5b5061018f610751565b60405161019c9190613021565b60405180910390f35b3480156101b157600080fd5b506101cc60048036036101c79190810190612cc0565b6107ef565b6040516101d99190612fc1565b60405180910390f35b3480156101ee57600080fd5b506101f76108e6565b6040516102049190613065565b60405180910390f35b34801561021957600080fd5b50610234600480360361022f9190810190612c71565b6108ec565b6040516102419190612fc1565b60405180910390f35b34801561025657600080fd5b5061025f610aa1565b60405161026c91906130e0565b60405180910390f35b34801561028157600080fd5b5061028a610ab4565b005b34801561029857600080fd5b506102b360048036036102ae9190810190612da9565b610d87565b005b3480156102c157600080fd5b506102dc60048036036102d79190810190612c0c565b610ee8565b6040516102e99190613065565b60405180910390f35b3480156102fe57600080fd5b5061031960048036036103149190810190612c0c565b610f00565b6040516103269190613065565b60405180910390f35b34801561033b57600080fd5b5061035660048036036103519190810190612c0c565b610f18565b6040516103639190613065565b60405180910390f35b34801561037857600080fd5b50610393600480360361038e9190810190612c0c565b610f30565b6040516103a2939291906130a9565b60405180910390f35b3480156103b757600080fd5b506103c0610f5a565b6040516103cd9190613065565b60405180910390f35b3480156103e257600080fd5b506103fd60048036036103f89190810190612dd2565b610f60565b60405161040a9190612fc1565b60405180910390f35b34801561041f57600080fd5b5061043a60048036036104359190810190612d3d565b61112e565b6040516104479190613043565b60405180910390f35b34801561045c57600080fd5b5061047760048036036104729190810190612e26565b6112ff565b6040516104849190612fc1565b60405180910390f35b34801561049957600080fd5b506104a2611c97565b6040516104af9190613021565b60405180910390f35b3480156104c457600080fd5b506104df60048036036104da9190810190612c0c565b611d35565b6040516104ec9190612fc1565b60405180910390f35b34801561050157600080fd5b5061051c60048036036105179190810190612cfc565b611d55565b6040516105299190612f9f565b60405180910390f35b34801561053e57600080fd5b50610547611d6f565b6040516105549190613065565b60405180910390f35b34801561056957600080fd5b50610584600480360361057f9190810190612da9565b611d75565b005b34801561059257600080fd5b506105ad60048036036105a89190810190612cc0565b611ed6565b6040516105ba9190612fc1565b60405180910390f35b3480156105cf57600080fd5b506105ea60048036036105e59190810190612c0c565b611eeb565b6040516105f79190612fc1565b60405180910390f35b34801561060c57600080fd5b50610615611f0b565b6040516106229190613065565b60405180910390f35b34801561063757600080fd5b50610652600480360361064d9190810190612c0c565b611f11565b60405161065f9190613065565b60405180910390f35b34801561067457600080fd5b5061068f600480360361068a9190810190612c35565b611f29565b60405161069c9190613065565b60405180910390f35b3480156106b157600080fd5b506106ba611f4e565b6040516106c79190613065565b60405180910390f35b3480156106dc57600080fd5b506106e5611f54565b6040516106f29190613065565b60405180910390f35b34801561070757600080fd5b50610710611f5a565b60405161071d9190613065565b60405180910390f35b34801561073257600080fd5b5061073b611f60565b6040516107489190613065565b60405180910390f35b60168054600181600116156101000203166002900480601f0160208091040260200160405190810160405280929190818152602001828054600181600116156101000203166002900480156107e75780601f106107bc576101008083540402835291602001916107e7565b820191906000526020600020905b8154815290600101906020018083116107ca57829003601f168201915b505050505081565b60008033905082600660008373ffffffffffffffffffffffffffffffffffffffff1673ffffffffffffffffffffffffffffffffffffffff16815260200190815260200160002060008673ffffffffffffffffffffffffffffffffffffffff1673ffffffffffffffffffffffffffffffffffffffff168152602001908152602001600020819055508373ffffffffffffffffffffffffffffffffffffffff168173ffffffffffffffffffffffffffffffffffffffff167f8c5be1e5ebec7d5bd14f71427d1e84f3dd0314c0f7b2291e5b200ac8c7c3b925856040516108d39190613065565b60405180910390a3600191505092915050565b60185481565b600080339050600660008673ffffffffffffffffffffffffffffffffffffffff1673ffffffffffffffffffffffffffffffffffffffff16815260200190815260200160002060008273ffffffffffffffffffffffffffffffffffffffff1673ffffffffffffffffffffffffffffffffffffffff16815260200190815260200160002054831115151561097d57600080fd5b610a0c83600660008873ffffffffffffffffffffffffffffffffffffffff1673ffffffffffffffffffffffffffffffffffffffff16815260200190815260200160002060008473ffffffffffffffffffffffffffffffffffffffff1673ffffffffffffffffffffffffffffffffffffffff16815260200190815260200160002054611f6690919063ffffffff16565b600660008773ffffffffffffffffffffffffffffffffffffffff1673ffffffffffffffffffffffffffffffffffffffff16815260200190815260200160002060008373ffffffffffffffffffffffffffffffffffffffff1673ffffffffffffffffffffffffffffffffffffffff16815260200190815260200160002081905550610a97858585611f7f565b9150509392505050565b601960009054906101000a900460ff1681565b600080610ace6000546003546122d590919063ffffffff16565b600381905550600091505b600954821015610c58576000600b6000600a85815481101515610af857fe5b9060005260206000200160009054906101000a900473ffffffffffffffffffffffffffffffffffffffff1673ffffffffffffffffffffffffffffffffffffffff1673ffffffffffffffffffffffffffffffffffffffff16815260200190815260200160002060006101000a81548160ff0219169083151502179055506000600c6000600a85815481101515610b8957fe5b9060005260206000200160009054906101000a900473ffffffffffffffffffffffffffffffffffffffff1673ffffffffffffffffffffffffffffffffffffffff1673ffffffffffffffffffffffffffffffffffffffff168152602001908152602001600020819055506000600a83815481101515610c0357fe5b9060005260206000200160006101000a81548173ffffffffffffffffffffffffffffffffffffffff021916908373ffffffffffffffffffffffffffffffffffffffff1602179055508180600101925050610ad9565b600090505b600d54811015610d8357600060126000600e84815481101515610c7c57fe5b9060005260206000200160009054906101000a900473ffffffffffffffffffffffffffffffffffffffff1673ffffffffffffffffffffffffffffffffffffffff1673ffffffffffffffffffffffffffffffffffffffff16815260200190815260200160002060006101000a81548160ff021916908315150217905550600060136000600e84815481101515610d0d57fe5b9060005260206000200160009054906101000a900473ffffffffffffffffffffffffffffffffffffffff1673ffffffffffffffffffffffffffffffffffffffff1673ffffffffffffffffffffffffffffffffffffffff168152602001908152602001600020819055508080600101915050610c5d565b5050565b6000339050600760008273ffffffffffffffffffffffffffffffffffffffff1673ffffffffffffffffffffffffffffffffffffffff168152602001908152602001600020548211151515610dda57600080fd5b81600560008373ffffffffffffffffffffffffffffffffffffffff1673ffffffffffffffffffffffffffffffffffffffff1681526020019081526020016000205401600560008373ffffffffffffffffffffffffffffffffffffffff1673ffffffffffffffffffffffffffffffffffffffff1681526020019081526020016000208190555081600760008373ffffffffffffffffffffffffffffffffffffffff1673ffffffffffffffffffffffffffffffffffffffff1681526020019081526020016000205403600760008373ffffffffffffffffffffffffffffffffffffffff1673ffffffffffffffffffffffffffffffffffffffff168152602001908152602001600020819055505050565b60076020528060005260406000206000915090505481565b600c6020528060005260406000206000915090505481565b60056020528060005260406000206000915090505481565b600f6020528060005260406000206000915090508060000154908060010154908060020154905083565b60045481565b60008060011515601160003373ffffffffffffffffffffffffffffffffffffffff1673ffffffffffffffffffffffffffffffffffffffff16815260200190815260200160002060009054906101000a900460ff161515141515610fc257600080fd5b8360048190555083600381905550600090505b82518110156110e8576001601160008584815181101515610ff257fe5b9060200190602002015173ffffffffffffffffffffffffffffffffffffffff1673ffffffffffffffffffffffffffffffffffffffff16815260200190815260200160002060006101000a81548160ff021916908315150217905550600e838281518110151561105d57fe5b9060200190602002015190806001815401808255809150509060018203906000526020600020016000909192909190916101000a81548173ffffffffffffffffffffffffffffffffffffffff021916908373ffffffffffffffffffffffffffffffffffffffff160217905550506001600d600082825401925050819055508080600101915050610fd5565b7fbc20852d5f54c23d3800000c77c1a3369f5dd794fcb93c3d48122e148c67fad36004543360405161111b929190613080565b60405180910390a1600191505092915050565b606080606080606060008088955087945084518651016040519080825280601f01601f1916602001820160405280156111765781602001602082028038833980820191505090505b50935083925060009150600090505b855181101561123857858181518110151561119c57fe5b9060200101517f010000000000000000000000000000000000000000000000000000000000000090047f01000000000000000000000000000000000000000000000000000000000000000283838060010194508151811015156111fb57fe5b9060200101907effffffffffffffffffffffffffffffffffffffffffffffffffffffffffffff1916908160001a9053508080600101915050611185565b600090505b84518110156112f057848181518110151561125457fe5b9060200101517f010000000000000000000000000000000000000000000000000000000000000090047f01000000000000000000000000000000000000000000000000000000000000000283838060010194508151811015156112b357fe5b9060200101907effffffffffffffffffffffffffffffffffffffffffffffffffffffffffffff1916908160001a905350808060010191505061123d565b82965050505050505092915050565b60008060008061130d6128e5565b6000806000806000606060011515601160003373ffffffffffffffffffffffffffffffffffffffff1673ffffffffffffffffffffffffffffffffffffffff16815260200190815260200160002060009054906101000a900460ff16151514151561137657600080fd5b339950429850886113a860025461139a6000546003546122d590919063ffffffff16565b6122d590919063ffffffff16565b101580156113e05750886113dd6002546113cf6000546003546122d590919063ffffffff16565b611f6690919063ffffffff16565b11155b15611973576060604051908101604052808f81526020018e815260200142815250600f60008c73ffffffffffffffffffffffffffffffffffffffff1673ffffffffffffffffffffffffffffffffffffffff16815260200190815260200160002060008201518160000155602082015181600101556040820151816002015590505060148a90806001815401808255809150509060018203906000526020600020016000909192909190916101000a81548173ffffffffffffffffffffffffffffffffffffffff021916908373ffffffffffffffffffffffffffffffffffffffff160217905550506001601260008c73ffffffffffffffffffffffffffffffffffffffff1673ffffffffffffffffffffffffffffffffffffffff16815260200190815260200160002060006101000a81548160ff021916908315150217905550600097505b8b5188101561196a578b8881518110151561153b57fe5b9060200190602002015196508c87602001511480156115e0575060076000886000015173ffffffffffffffffffffffffffffffffffffffff1673ffffffffffffffffffffffffffffffffffffffff16815260200190815260200160002054600c6000896000015173ffffffffffffffffffffffffffffffffffffffff1673ffffffffffffffffffffffffffffffffffffffff1681526020019081526020016000205411155b80156116fa57506116f987600001516116176116028a602001516001026122f3565b6116128b604001516001026122f3565b61112e565b6040516020018082805190602001908083835b60208310151561164f578051825260208201915060208101905060208303925061162a565b6001836020036101000a0380198251168184511680821785525050505050509050019150506040516020818303038152906040526040518082805190602001908083835b6020831015156116b85780518252602082019150602081019050602083039250611693565b6001836020036101000a038019825116818451168082178552505050505050905001915050604051809103902089606001518a608001518b60a001516124ef565b5b1561195d576117598760400151600c60008a6000015173ffffffffffffffffffffffffffffffffffffffff1673ffffffffffffffffffffffffffffffffffffffff168152602001908152602001600020546122d590919063ffffffff16565b600c6000896000015173ffffffffffffffffffffffffffffffffffffffff1673ffffffffffffffffffffffffffffffffffffffff16815260200190815260200160002081905550600b6000886000015173ffffffffffffffffffffffffffffffffffffffff1673ffffffffffffffffffffffffffffffffffffffff16815260200190815260200160002060009054906101000a900460ff1615156118c35760016009600082825401925050819055506001600b6000896000015173ffffffffffffffffffffffffffffffffffffffff1673ffffffffffffffffffffffffffffffffffffffff16815260200190815260200160002060006101000a81548160ff0219169083151502179055508660000151600a60095481548110151561187a57fe5b9060005260206000200160006101000a81548173ffffffffffffffffffffffffffffffffffffffff021916908373ffffffffffffffffffffffffffffffffffffffff1602179055505b6119198760400151601360008d73ffffffffffffffffffffffffffffffffffffffff1673ffffffffffffffffffffffffffffffffffffffff168152602001908152602001600020546122d590919063ffffffff16565b601360008c73ffffffffffffffffffffffffffffffffffffffff1673ffffffffffffffffffffffffffffffffffffffff168152602001908152602001600020819055505b8780600101985050611524565b60019a50611c86565b8861199f6002546119916000546003546122d590919063ffffffff16565b6122d590919063ffffffff16565b1015611c85576119ad61257b565b9550600094505b601480549050851015611ae3576014888154811015156119d057fe5b9060005260206000200160009054906101000a900473ffffffffffffffffffffffffffffffffffffffff169350600f60008573ffffffffffffffffffffffffffffffffffffffff1673ffffffffffffffffffffffffffffffffffffffff16815260200190815260200160002060000154925085831015611a5257828603611a56565b8583035b91506015829080600181540180825580915050906001820390600052602060002001600090919290919091505550836010600084815260200190815260200160002060006101000a81548173ffffffffffffffffffffffffffffffffffffffff021916908373ffffffffffffffffffffffffffffffffffffffff16021790555084806001019550506119b4565b611b3c6015805480602002602001604051908101604052809291908181526020018280548015611b3257602002820191906000526020600020905b815481526020019060010190808311611b1e575b5050505050611d55565b9050611bee61271060015460185402811515611b5457fe5b046005600060106000866000815181101515611b6c57fe5b90602001906020020151815260200190815260200160002060009054906101000a900473ffffffffffffffffffffffffffffffffffffffff1673ffffffffffffffffffffffffffffffffffffffff1673ffffffffffffffffffffffffffffffffffffffff168152602001908152602001600020546122d590919063ffffffff16565b6005600060106000856000815181101515611c0557fe5b90602001906020020151815260200190815260200160002060009054906101000a900473ffffffffffffffffffffffffffffffffffffffff1673ffffffffffffffffffffffffffffffffffffffff1673ffffffffffffffffffffffffffffffffffffffff16815260200190815260200160002081905550611c84610ab4565b5b5b505050505050505050509392505050565b60178054600181600116156101000203166002900480601f016020809104026020016040519081016040528092919081815260200182805460018160011615610100020316600290048015611d2d5780601f10611d0257610100808354040283529160200191611d2d565b820191906000526020600020905b815481529060010190602001808311611d1057829003601f168201915b505050505081565b60116020528060005260406000206000915054906101000a900460ff1681565b6060611d678260006001855103612785565b819050919050565b60015481565b6000339050600560008273ffffffffffffffffffffffffffffffffffffffff1673ffffffffffffffffffffffffffffffffffffffff168152602001908152602001600020548211151515611dc857600080fd5b81600560008373ffffffffffffffffffffffffffffffffffffffff1673ffffffffffffffffffffffffffffffffffffffff1681526020019081526020016000205403600560008373ffffffffffffffffffffffffffffffffffffffff1673ffffffffffffffffffffffffffffffffffffffff1681526020019081526020016000208190555081600760008373ffffffffffffffffffffffffffffffffffffffff1673ffffffffffffffffffffffffffffffffffffffff1681526020019081526020016000205401600760008373ffffffffffffffffffffffffffffffffffffffff1673ffffffffffffffffffffffffffffffffffffffff168152602001908152602001600020819055505050565b6000611ee3338484611f7f565b905092915050565b60126020528060005260406000206000915054906101000a900460ff1681565b600d5481565b60136020528060005260406000206000915090505481565b6006602052816000526040600020602052806000526040600020600091509150505481565b60095481565b60035481565b60005481565b60025481565b6000828211151515611f7457fe5b818303905092915050565b600080600073ffffffffffffffffffffffffffffffffffffffff168473ffffffffffffffffffffffffffffffffffffffff1614151515611fbe57600080fd5b82600560008773ffffffffffffffffffffffffffffffffffffffff1673ffffffffffffffffffffffffffffffffffffffff168152602001908152602001600020541015151561200c57600080fd5b61209d600560008673ffffffffffffffffffffffffffffffffffffffff1673ffffffffffffffffffffffffffffffffffffffff16815260200190815260200160002054600560008873ffffffffffffffffffffffffffffffffffffffff1673ffffffffffffffffffffffffffffffffffffffff168152602001908152602001600020546122d590919063ffffffff16565b90506120f183600560008873ffffffffffffffffffffffffffffffffffffffff1673ffffffffffffffffffffffffffffffffffffffff16815260200190815260200160002054611f6690919063ffffffff16565b600560008773ffffffffffffffffffffffffffffffffffffffff1673ffffffffffffffffffffffffffffffffffffffff1681526020019081526020016000208190555061218683600560008773ffffffffffffffffffffffffffffffffffffffff1673ffffffffffffffffffffffffffffffffffffffff168152602001908152602001600020546122d590919063ffffffff16565b600560008673ffffffffffffffffffffffffffffffffffffffff1673ffffffffffffffffffffffffffffffffffffffff168152602001908152602001600020819055508061225b600560008773ffffffffffffffffffffffffffffffffffffffff1673ffffffffffffffffffffffffffffffffffffffff16815260200190815260200160002054600560008973ffffffffffffffffffffffffffffffffffffffff1673ffffffffffffffffffffffffffffffffffffffff168152602001908152602001600020546122d590919063ffffffff16565b14151561226457fe5b8373ffffffffffffffffffffffffffffffffffffffff168573ffffffffffffffffffffffffffffffffffffffff167fddf252ad1be2c89b69c2b068fc378daa952ba7f163c4a11628f55a4df523b3ef856040516122c19190613065565b60405180910390a360019150509392505050565b60008082840190508381101515156122e957fe5b8091505092915050565b6060806000806000606060206040519080825280601f01601f1916602001820160405280156123315781602001602082028038833980820191505090505b50945060009350600092505b60208310156123fb578260080260020a876001900402600102915060007f010000000000000000000000000000000000000000000000000000000000000002827effffffffffffffffffffffffffffffffffffffffffffffffffffffffffffff19161415156123ee578185858151811015156123b557fe5b9060200101907effffffffffffffffffffffffffffffffffffffffffffffffffffffffffffff1916908160001a90535083806001019450505b828060010193505061233d565b836040519080825280601f01601f19166020018201604052801561242e5781602001602082028038833980820191505090505b509050600092505b838310156124e257848381518110151561244c57fe5b9060200101517f010000000000000000000000000000000000000000000000000000000000000090047f01000000000000000000000000000000000000000000000000000000000000000281848151811015156124a557fe5b9060200101907effffffffffffffffffffffffffffffffffffffffffffffffffffffffffffff1916908160001a9053508280600101935050612436565b8095505050505050919050565b60008573ffffffffffffffffffffffffffffffffffffffff166001868686866040516000815260200160405260405161252b9493929190612fdc565b60206040516020810390808403906000865af115801561254f573d6000803e3d6000fd5b5050506020604051035173ffffffffffffffffffffffffffffffffffffffff1614905095945050505050565b600080600080600080600080600080600080600054600354019a506000995060009850600097505b601480549050881015612766576014888154811015156125bf57fe5b9060005260206000200160009054906101000a900473ffffffffffffffffffffffffffffffffffffffff169650600f60008873ffffffffffffffffffffffffffffffffffffffff1673ffffffffffffffffffffffffffffffffffffffff168152602001908152602001600020600001549550600f60008873ffffffffffffffffffffffffffffffffffffffff1673ffffffffffffffffffffffffffffffffffffffff168152602001908152602001600020600201549450600760008873ffffffffffffffffffffffffffffffffffffffff1673ffffffffffffffffffffffffffffffffffffffff1681526020019081526020016000205493508a8510156126c857848b036126cc565b8a85035b925082612721601360008a73ffffffffffffffffffffffffffffffffffffffff1673ffffffffffffffffffffffffffffffffffffffff16815260200190815260200160002054866122d590919063ffffffff16565b81151561272a57fe5b0491506127428683028b6122d590919063ffffffff16565b9950612757828a6122d590919063ffffffff16565b985087806001019850506125a3565b888a81151561277157fe5b049050809b50505050505050505050505090565b60008060008492508391508183141561279d576128dd565b8560028686038115156127ac57fe5b0586018151811015156127bb57fe5b9060200190602002015190505b81831315156128b4575b8086848151811015156127e157fe5b9060200190602002015110156127fe5782806001019350506127d2565b5b858281518110151561280d57fe5b9060200190602002015181101561282c578180600190039250506127ff565b81831315156128af57858281518110151561284357fe5b90602001906020020151868481518110151561285b57fe5b90602001906020020151878581518110151561287357fe5b906020019060200201888581518110151561288a57fe5b9060200190602002018281525082815250505082806001019350508180600190039250505b6127c8565b818512156128c8576128c7868684612785565b5b838312156128dc576128db868486612785565b5b5b505050505050565b60c060405190810160405280600073ffffffffffffffffffffffffffffffffffffffff1681526020016000815260200160008152602001600060ff16815260200160008019168152602001600080191681525090565b60006129478235613254565b905092915050565b600082601f830112151561296257600080fd5b813561297561297082613128565b6130fb565b9150818183526020840193506020810190508385602084028201111561299a57600080fd5b60005b838110156129ca57816129b0888261293b565b84526020840193506020830192505060018101905061299d565b5050505092915050565b600082601f83011215156129e757600080fd5b81356129fa6129f582613150565b6130fb565b915081818352602084019350602081019050838560c0840282011115612a1f57600080fd5b60005b83811015612a4f5781612a358882612b48565b845260208401935060c08301925050600181019050612a22565b5050505092915050565b600082601f8301121515612a6c57600080fd5b8135612a7f612a7a82613178565b6130fb565b91508181835260208401935060208101905083856020840282011115612aa457600080fd5b60005b83811015612ad45781612aba8882612be4565b845260208401935060208301925050600181019050612aa7565b5050505092915050565b6000612aea8235613274565b905092915050565b600082601f8301121515612b0557600080fd5b8135612b18612b13826131a0565b6130fb565b91508082526020830160208301858383011115612b3457600080fd5b612b3f838284613295565b50505092915050565b600060c08284031215612b5a57600080fd5b612b6460c06130fb565b90506000612b748482850161293b565b6000830152506020612b8884828501612be4565b6020830152506040612b9c84828501612be4565b6040830152506060612bb084828501612bf8565b6060830152506080612bc484828501612ade565b60808301525060a0612bd884828501612ade565b60a08301525092915050565b6000612bf0823561327e565b905092915050565b6000612c048235613288565b905092915050565b600060208284031215612c1e57600080fd5b6000612c2c8482850161293b565b91505092915050565b60008060408385031215612c4857600080fd5b6000612c568582860161293b565b9250506020612c678582860161293b565b9150509250929050565b600080600060608486031215612c8657600080fd5b6000612c948682870161293b565b9350506020612ca58682870161293b565b9250506040612cb686828701612be4565b9150509250925092565b60008060408385031215612cd357600080fd5b6000612ce18582860161293b565b9250506020612cf285828601612be4565b9150509250929050565b600060208284031215612d0e57600080fd5b600082013567ffffffffffffffff811115612d2857600080fd5b612d3484828501612a59565b91505092915050565b60008060408385031215612d5057600080fd5b600083013567ffffffffffffffff811115612d6a57600080fd5b612d7685828601612af2565b925050602083013567ffffffffffffffff811115612d9357600080fd5b612d9f85828601612af2565b9150509250929050565b600060208284031215612dbb57600080fd5b6000612dc984828501612be4565b91505092915050565b60008060408385031215612de557600080fd5b6000612df385828601612be4565b925050602083013567ffffffffffffffff811115612e1057600080fd5b612e1c8582860161294f565b9150509250929050565b600080600060608486031215612e3b57600080fd5b6000612e4986828701612be4565b9350506020612e5a86828701612be4565b925050604084013567ffffffffffffffff811115612e7757600080fd5b612e83868287016129d4565b9150509250925092565b612e9681613207565b82525050565b6000612ea7826131d9565b808452602084019350612eb9836131cc565b60005b82811015612eeb57612ecf868351612f81565b612ed8826131fa565b9150602086019550600181019050612ebc565b50849250505092915050565b612f0081613227565b82525050565b612f0f81613233565b82525050565b6000612f20826131ef565b808452612f348160208601602086016132a4565b612f3d816132d7565b602085010191505092915050565b6000612f56826131e4565b808452612f6a8160208601602086016132a4565b612f73816132d7565b602085010191505092915050565b612f8a8161323d565b82525050565b612f9981613247565b82525050565b60006020820190508181036000830152612fb98184612e9c565b905092915050565b6000602082019050612fd66000830184612ef7565b92915050565b6000608082019050612ff16000830187612f06565b612ffe6020830186612f90565b61300b6040830185612f06565b6130186060830184612f06565b95945050505050565b6000602082019050818103600083015261303b8184612f4b565b905092915050565b6000602082019050818103600083015261305d8184612f15565b905092915050565b600060208201905061307a6000830184612f81565b92915050565b60006040820190506130956000830185612f81565b6130a26020830184612e8d565b9392505050565b60006060820190506130be6000830186612f81565b6130cb6020830185612f81565b6130d86040830184612f81565b949350505050565b60006020820190506130f56000830184612f90565b92915050565b6000604051905081810181811067ffffffffffffffff8211171561311e57600080fd5b8060405250919050565b600067ffffffffffffffff82111561313f57600080fd5b602082029050602081019050919050565b600067ffffffffffffffff82111561316757600080fd5b602082029050602081019050919050565b600067ffffffffffffffff82111561318f57600080fd5b602082029050602081019050919050565b600067ffffffffffffffff8211156131b757600080fd5b601f19601f8301169050602081019050919050565b6000602082019050919050565b600081519050919050565b600081519050919050565b600081519050919050565b6000602082019050919050565b600073ffffffffffffffffffffffffffffffffffffffff82169050919050565b60008115159050919050565b6000819050919050565b6000819050919050565b600060ff82169050919050565b600073ffffffffffffffffffffffffffffffffffffffff82169050919050565b6000819050919050565b6000819050919050565b600060ff82169050919050565b82818337600083830152505050565b60005b838110156132c25780820151818401526020810190506132a7565b838111156132d1576000848401525b50505050565b6000601f19601f83011690509190505600a265627a7a72305820b11e50e786485e40a9142970e47dc8904340fed73ae9e139e1216112a00d3faf6c6578706572696d656e74616cf50037",
	"source": "pragma solidity ^0.4.24;\npragma experimental ABIEncoderV2;\nimport { SafeMath } from \"./common/SafeMath.sol\";\n\n/// @title Oracle\n/// @author \ncontract Oracle {\n\tusing SafeMath for uint;\n\n\t/*\n     * Storage\n     */\n\tstruct Price {\n\t\tuint priceInWei;\n\t\tuint timeInSecond;\n\t\tuint blockTime;\n\t}\n\n\tstruct DelegateStake{\n\t\taddress addr;\n\t\tuint timeInSecond;\n\t\tuint stakes;\n\t\tuint8 v;\n\t\tbytes32 r;\n\t\tbytes32 s;\n\t}\n\tuint public period;\n\tuint public mingRatio = 1;\n\tuint public openWindowTimeInSecond;\n\tuint public lastPriceTimeInSecond;\n\tuint public inceptionTimeInSecond;\n\t\n\tmapping(address => uint) public balanceOf;\n\tmapping (address => mapping (address => uint)) public allowance;\n\tmapping (address => uint) public totalStakedAmt; // for every one\n\tuint skipNum = 0;\n\n\n\tuint public totalVotersForCurrentRound;\n\taddress[] votersInCurrentRound;\n\tmapping(address => bool) hasVotedInCurrentRound;\n\tmapping(address => uint) public votesForCurrentRound; //voter => votes\n\n\tuint public totalFeeders;\n\taddress[] feederLists;\n\tmapping (address => Price) public committedPrice;\n\tmapping(uint => address) deltaPriceToAddr;\n\tmapping (address => bool) public isWhiteListFeeders;\n\tmapping(address => bool) public hasCommitted;\n\tmapping(address => uint) public receivedVotes; //committer => votesReciverd\n\taddress[] addressCommitted;\n\tuint[] addressDelta;\n\n\tuint constant WEI_DEOMINATOR = 1000000000000000000;\n\tuint constant BP_DENOMINATOR = 10000;\n\n\tstring public name;\n\tstring public symbol;\n\tuint public totalSupply;\n\tuint8 public decimals = 18;\n\n\n\n\t/*\n     * Modifier\n     */\n\tmodifier isPriceFeed() {\n\t\trequire(isWhiteListFeeders[msg.sender] == true);\n\t\t_;\n\t}\n\n\t/*\n     * Events\n     */\n\tevent Transfer(address indexed from, address indexed to, uint value);\n\tevent Approval(address indexed tokenOwner, address indexed spender, uint tokens);\n\tevent CommitPrice(uint indexed priceInWei, uint indexed timeInSecond, address sender);\n\tevent Inception(uint inceptionTime, address startAddr);\n\n\t/*\n     * Constructor\n     */\n\tconstructor(\n\t\tuint pd,\n\t\tuint openWindow,\n\t\tstring memory tokenName,\n\t\tstring memory tokenSymbol,\n\t\tuint totalSupplyInWei\n\t\t) \n\t\tpublic\n\t{\n\t\tperiod = pd;\n\t\topenWindowTimeInSecond = openWindow;\n\t\tisWhiteListFeeders[msg.sender] = true;\n\t\tname = tokenName;\t\t\t\t\t\t\t\t   // Set the name for display purposes\n\t\tsymbol = tokenSymbol;\t\t\t\t\t\t\t   // Set the symbol for display purposes\n\t\ttotalSupply = totalSupplyInWei;\n\t\tbalanceOf[msg.sender] = totalSupplyInWei;\n\t}\n\n\t/*\n     * Public Functions\n     */\n\tfunction startOracle(\n\t\tuint startTime,\n\t\taddress[] memory whiteList\n\t)\n\t\tpublic \n\t\tisPriceFeed() \n\t\treturns (bool success) \n\t{\n\t\tinceptionTimeInSecond = startTime;\n\t\tlastPriceTimeInSecond = startTime;\n\t\tfor(uint i = 0;  i < whiteList.length; i++ ) {\n\t\t\tisWhiteListFeeders[whiteList[i]] = true;\n\t\t\tfeederLists.push(whiteList[i]);\n\t\t\ttotalFeeders +=1;\n\t\t}\n\t\temit Inception(inceptionTimeInSecond, msg.sender);\n\t\treturn true;\n\t}\n\n\tfunction stake(uint amtInWei) public {\n\t\taddress sender = msg.sender;\n\t\trequire(amtInWei <= balanceOf[sender]);\n\t\t\n\t\tbalanceOf[sender] = balanceOf[sender] - amtInWei;\n\t\ttotalStakedAmt[sender] = totalStakedAmt[sender] + amtInWei;\n\t}\n\n\tfunction unStake(uint amtInWei) public {\n\t\taddress sender = msg.sender;\n\t\trequire(amtInWei <= totalStakedAmt[sender]);\n\t\tbalanceOf[sender] = balanceOf[sender] + amtInWei;\n\t\ttotalStakedAmt[sender] = totalStakedAmt[sender] - amtInWei;\n\t}\n\n\tfunction verify(address addr, bytes32 hash, uint8 v, bytes32 r, bytes32 s) internal pure returns(bool) {\n        return ecrecover(hash, v, r, s) == addr;\n    }\n\n// start of oracle\n\tfunction commitPrice(uint priceInWei, uint timeInSecond, DelegateStake[] memory delegatedStakes) \n\t\tpublic \n\t\tisPriceFeed()\n\t\treturns (bool success)\n\t{\t\n\t\taddress sender = msg.sender;\n\t\tuint blkTime = block.timestamp;\n\n\t\tif(\n\t\t\tlastPriceTimeInSecond.add(period).add(openWindowTimeInSecond) >= blkTime \n\t\t\t&& lastPriceTimeInSecond.add(period).sub(openWindowTimeInSecond) <= blkTime\n\t\t)\n\t\t{\n\t\t\tcommittedPrice[sender] = Price( priceInWei,timeInSecond,block.timestamp);\n\t\t\taddressCommitted.push(sender);\n\t\t\thasCommitted[sender] = true;\n\n\t\t\tfor(uint i = 0; i<delegatedStakes.length; i++){\n\t\t\t\tDelegateStake memory stake = delegatedStakes[i];\n\t\t\t\tif(\n\t\t\t\t\tstake.timeInSecond == timeInSecond &&\n\t\t\t\t\tvotesForCurrentRound[stake.addr] <= totalStakedAmt[stake.addr] &&\n\t\t\t\t\tverify(\n\t\t\t\t\t\tstake.addr, \n\t\t\t\t\t\tkeccak256(abi.encodePacked( \n\t\t\t\t\t\t\tconcat(\n\t\t\t\t\t\t\t\tbytes32ToString(bytes32(stake.timeInSecond)),\n\t\t\t\t\t\t\t\tbytes32ToString(bytes32(stake.stakes))\n\t\t\t\t\t\t\t)\n\t\t\t\t\t\t)),\n\t\t\t\t\t\tstake.v,\n\t\t\t\t\t\tstake.r,\n\t\t\t\t\t\tstake.s\t\t\t\t\n\t\t\t\t\t)\n\t\t\t\t){\n\t\t\t\t\tvotesForCurrentRound[stake.addr] = votesForCurrentRound[stake.addr].add(stake.stakes);\n\t\t\t\t\tif(!hasVotedInCurrentRound[stake.addr]) {\n\t\t\t\t\t\ttotalVotersForCurrentRound+=1;\n\t\t\t\t\t\thasVotedInCurrentRound[stake.addr] = true;\n\t\t\t\t\t\tvotersInCurrentRound[totalVotersForCurrentRound] = stake.addr;\n\t\t\t\t\t}\n\t\t\t\t\t\n\t\t\t\t\treceivedVotes[sender] = receivedVotes[sender].add(stake.stakes);\n\t\t\t\t}\n\t\t\t}\n\n\t\t\treturn true;\t\n\t\t} else if (lastPriceTimeInSecond.add(period).add(openWindowTimeInSecond) < blkTime ){\n\t\t\t// round end, settle\n\t\t\t\n\t\t\tuint finalPriceInWei = calcFinalPrice();\n\t\t\t// uint size = addressCommitted.length;\n\t\t\t\n\t\t\t// uint[] storage prices = [];\n\t\t\tfor(uint j = 0;j <addressCommitted.length; j++){\n\t\t\t\taddress addr = addressCommitted[i];\n\t\t\t\tuint price = committedPrice[addr].priceInWei;\n\t\t\t\tuint delta = (price >= finalPriceInWei)? (price - finalPriceInWei): (finalPriceInWei - price);\n\t\t\t\taddressDelta.push(delta);\n\t\t\t\tdeltaPriceToAddr[delta] = addr;\n\t\t\t}\n\n\t\t\tuint[] memory sortedDeltaArray = sort(addressDelta);\n\t\t\tbalanceOf[deltaPriceToAddr[sortedDeltaArray[0]]] = \n\t\t\t\tbalanceOf[deltaPriceToAddr[sortedDeltaArray[0]]]\n\t\t\t\t.add(totalSupply * mingRatio / BP_DENOMINATOR);\n\n\t\t\t\n\t\t\tstartNextRound();\n\n\t\t}\n\t}\n\n\tfunction startNextRound() {\n\t\tlastPriceTimeInSecond = lastPriceTimeInSecond.add(period);\n\t\tfor(uint i = 0;i <totalVotersForCurrentRound; i ++) {\n\t\t\thasVotedInCurrentRound[votersInCurrentRound[i]] = false;\n\t\t\tvotesForCurrentRound[votersInCurrentRound[i]] = 0;\n\t\t\tvotersInCurrentRound[i]=address(0);\n\t\t}\n\n\t\tfor(uint j = 0; j< totalFeeders; j++){\n\t\t\thasCommitted[feederLists[j]] = false;\n\t\t\treceivedVotes[feederLists[j]] = 0;\n\n\n\t\t}\n\t}\n\n\tfunction calcFinalPrice() view internal returns (uint)  {\n\t\tuint currentTime = lastPriceTimeInSecond + period;\n\t\tuint weightedPricesSum = 0;\n\t\tuint weightsSum = 0;\n\t\t// mapping(address => uint) deltaT;\n\t\tfor(uint i = 0; i<addressCommitted.length; i++)\n\t\t{\n\t\t\taddress addr = addressCommitted[i];\n\t\t\tuint priceInWei = committedPrice[addr].priceInWei;\n\t\t\tuint blockTime = committedPrice[addr].blockTime;\n\t\t\tuint stakeAmt = totalStakedAmt[addr];\n\t\t\tuint deltaTime = (blockTime >= currentTime)? (blockTime - currentTime): (currentTime - blockTime);\n\t\t\tuint weight = stakeAmt.add(receivedVotes[addr])/deltaTime; //wanghe need to convert to wei?\n\t\t\tweightedPricesSum = weightedPricesSum.add(weight * priceInWei);\n\t\t\tweightsSum = weightsSum.add(weight);\n\t\t}\n\n\t\tuint finalPrice = weightedPricesSum / weightsSum; // wanghe need to convert to wei?\n\t\treturn finalPrice;\n\t}\n\n\n\tfunction bytes32ToString(bytes32 x) internal pure returns (string) {\n\t\tbytes memory bytesString = new bytes(32);\n\t\tuint charCount = 0;\n\t\tfor (uint j = 0; j < 32; j++) {\n\t\t\tbyte char = byte(bytes32(uint(x) * 2 ** (8 * j)));\n\t\t\tif (char != 0) {\n\t\t\t\tbytesString[charCount] = char;\n\t\t\t\tcharCount++;\n\t\t\t}\n\t\t}\n\t\tbytes memory bytesStringTrimmed = new bytes(charCount);\n\t\tfor (j = 0; j < charCount; j++) {\n\t\t\tbytesStringTrimmed[j] = bytesString[j];\n\t\t}\n\t\treturn string(bytesStringTrimmed);\n\t}\n\n\t\n\t// end of oracle\n\n\tfunction concat(string memory _a, string memory  _b) public pure returns (string){\n        bytes memory bytes_a = bytes(_a);\n        bytes memory bytes_b = bytes(_b);\n        string memory length_ab = new string(bytes_a.length + bytes_b.length);\n        bytes memory bytes_c = bytes(length_ab);\n        uint k = 0;\n        for (uint i = 0; i < bytes_a.length; i++) bytes_c[k++] = bytes_a[i];\n        for (i = 0; i < bytes_b.length; i++) bytes_c[k++] = bytes_b[i];\n        return string(bytes_c);\n    }\n\n\tfunction sort(uint[] data) public returns(uint[]) {\n       quickSort(data, int(0), int(data.length - 1));\n       return data;\n    }\n    \n    function quickSort(uint[] memory arr, int left, int right) internal{\n        int i = left;\n        int j = right;\n        if(i==j) return;\n        uint pivot = arr[uint(left + (right - left) / 2)];\n        while (i <= j) {\n            while (arr[uint(i)] < pivot) i++;\n            while (pivot < arr[uint(j)]) j--;\n            if (i <= j) {\n                (arr[uint(i)], arr[uint(j)]) = (arr[uint(j)], arr[uint(i)]);\n                i++;\n                j--;\n            }\n        }\n        if (left < j)\n            quickSort(arr, left, j);\n        if (i < right)\n            quickSort(arr, i, right);\n    }\n\n\t/*\n     * ERC token functions\n     */\n\t/// @dev transferInternal function.\n\t/// @param from  from address\n\t/// @param to   to address\n\t/// @param tokens num of tokens transferred\n\tfunction transferInternal(address from, address to, uint tokens) \n\t\tinternal \n\t\treturns (bool success) \n\t{\n\t\t// Prevent transfer to 0x0 address. Use burn() instead\n\t\trequire(to != address(0));\n\t\t// Check if the sender has enough\n\t\trequire(balanceOf[from] >= tokens);\n\t\t// Save this for an assertion in the future\n\t\tuint previousBalances = balanceOf[from].add(balanceOf[to]);\n\t\t// Subtract from the sender\n\t\tbalanceOf[from] = balanceOf[from].sub(tokens);\n\t\t// Add the same to the recipient\n\t\tbalanceOf[to] = balanceOf[to].add(tokens);\n\t\t// Asserts are used to use static analysis to find bugs in your code. They should never fail\n\t\tassert(balanceOf[from].add(balanceOf[to]) == previousBalances);\n\t\temit Transfer(from, to, tokens);\n\t\treturn true;\n\t}\n\n\tfunction transfer(address to, uint tokens)\n\t\tpublic\n\t\treturns (bool success) \n\t{\n\t\treturn transferInternal( msg.sender, to, tokens);\n\t}\n\n\tfunction transferFrom( address from, address to, uint tokens) \n\t\tpublic \n\t\treturns (bool success) \n\t{\n\t\taddress spenderToUse = msg.sender;\n\t\trequire(tokens <= allowance[from][spenderToUse]);\t // Check allowance\n\t\tallowance[from][spenderToUse] = allowance[from][spenderToUse].sub(tokens);\n\t\treturn transferInternal( from, to, tokens);\n\t}\n\n\tfunction approve( address spender, uint tokens) \n\t\tpublic \n\t\treturns (bool success) \n\t{\n\t\taddress senderToUse = msg.sender;\n\t\tallowance[senderToUse][spender] = tokens;\n\t\temit Approval(senderToUse, spender, tokens);\n\t\treturn true;\n\t}\n\n}\n",
	"sourcePath": "C:/Users/WeitaoYang/Downloads/dev/posOracle/contracts/Oracle.sol",
	"compiler": {
		"name": "solc",
		"version": "0.4.24+commit.e67f0147.Emscripten.clang"
	},
	"schemaVersion": "3.0.0-beta.0",
	"updatedAt": "2018-12-08T15:27:13.258Z"
}