{
  "contractName": "Oracle",
  "abi": [
    {
      "constant": true,
      "inputs": [],
      "name": "lastPrice",
      "outputs": [
        {
          "name": "",
          "type": "uint256"
        }
      ],
      "payable": false,
      "stateMutability": "view",
      "type": "function",
      "signature": "0x053f14da"
    },
    {
      "constant": true,
      "inputs": [],
      "name": "name",
      "outputs": [
        {
          "name": "",
          "type": "string"
        }
      ],
      "payable": false,
      "stateMutability": "view",
      "type": "function",
      "signature": "0x06fdde03"
    },
    {
      "constant": true,
      "inputs": [],
      "name": "totalSupply",
      "outputs": [
        {
          "name": "",
          "type": "uint256"
        }
      ],
      "payable": false,
      "stateMutability": "view",
      "type": "function",
      "signature": "0x18160ddd"
    },
    {
      "constant": true,
      "inputs": [],
      "name": "decimals",
      "outputs": [
        {
          "name": "",
          "type": "uint8"
        }
      ],
      "payable": false,
      "stateMutability": "view",
      "type": "function",
      "signature": "0x313ce567"
    },
    {
      "constant": true,
      "inputs": [
        {
          "name": "",
          "type": "address"
        }
      ],
      "name": "totalStakedAmt",
      "outputs": [
        {
          "name": "",
          "type": "uint256"
        }
      ],
      "payable": false,
      "stateMutability": "view",
      "type": "function",
      "signature": "0x645bd810"
    },
    {
      "constant": true,
      "inputs": [
        {
          "name": "",
          "type": "address"
        }
      ],
      "name": "votesForCurrentRound",
      "outputs": [
        {
          "name": "",
          "type": "uint256"
        }
      ],
      "payable": false,
      "stateMutability": "view",
      "type": "function",
      "signature": "0x6bff5813"
    },
    {
      "constant": true,
      "inputs": [
        {
          "name": "",
          "type": "address"
        }
      ],
      "name": "balanceOf",
      "outputs": [
        {
          "name": "",
          "type": "uint256"
        }
      ],
      "payable": false,
      "stateMutability": "view",
      "type": "function",
      "signature": "0x70a08231"
    },
    {
      "constant": true,
      "inputs": [
        {
          "name": "",
          "type": "address"
        }
      ],
      "name": "committedPrice",
      "outputs": [
        {
          "name": "priceInWei",
          "type": "uint256"
        },
        {
          "name": "timeInSecond",
          "type": "uint256"
        },
        {
          "name": "blockTime",
          "type": "uint256"
        }
      ],
      "payable": false,
      "stateMutability": "view",
      "type": "function",
      "signature": "0x7df4f56b"
    },
    {
      "constant": true,
      "inputs": [],
      "name": "inceptionTimeInSecond",
      "outputs": [
        {
          "name": "",
          "type": "uint256"
        }
      ],
      "payable": false,
      "stateMutability": "view",
      "type": "function",
      "signature": "0x838e09d9"
    },
    {
      "constant": true,
      "inputs": [],
      "name": "symbol",
      "outputs": [
        {
          "name": "",
          "type": "string"
        }
      ],
      "payable": false,
      "stateMutability": "view",
      "type": "function",
      "signature": "0x95d89b41"
    },
    {
      "constant": true,
      "inputs": [
        {
          "name": "",
          "type": "address"
        }
      ],
      "name": "isWhiteListFeeders",
      "outputs": [
        {
          "name": "",
          "type": "bool"
        }
      ],
      "payable": false,
      "stateMutability": "view",
      "type": "function",
      "signature": "0x9981dbdc"
    },
    {
      "constant": true,
      "inputs": [],
      "name": "mingRatio",
      "outputs": [
        {
          "name": "",
          "type": "uint256"
        }
      ],
      "payable": false,
      "stateMutability": "view",
      "type": "function",
      "signature": "0xa4857f3d"
    },
    {
      "constant": true,
      "inputs": [
        {
          "name": "",
          "type": "address"
        }
      ],
      "name": "hasCommitted",
      "outputs": [
        {
          "name": "",
          "type": "bool"
        }
      ],
      "payable": false,
      "stateMutability": "view",
      "type": "function",
      "signature": "0xc6dbe15a"
    },
    {
      "constant": true,
      "inputs": [],
      "name": "totalFeeders",
      "outputs": [
        {
          "name": "",
          "type": "uint256"
        }
      ],
      "payable": false,
      "stateMutability": "view",
      "type": "function",
      "signature": "0xd3686dcf"
    },
    {
      "constant": true,
      "inputs": [
        {
          "name": "",
          "type": "address"
        }
      ],
      "name": "receivedVotes",
      "outputs": [
        {
          "name": "",
          "type": "uint256"
        }
      ],
      "payable": false,
      "stateMutability": "view",
      "type": "function",
      "signature": "0xd8ce95ab"
    },
    {
      "constant": true,
      "inputs": [
        {
          "name": "",
          "type": "address"
        },
        {
          "name": "",
          "type": "address"
        }
      ],
      "name": "allowance",
      "outputs": [
        {
          "name": "",
          "type": "uint256"
        }
      ],
      "payable": false,
      "stateMutability": "view",
      "type": "function",
      "signature": "0xdd62ed3e"
    },
    {
      "constant": true,
      "inputs": [],
      "name": "totalVotersForCurrentRound",
      "outputs": [
        {
          "name": "",
          "type": "uint256"
        }
      ],
      "payable": false,
      "stateMutability": "view",
      "type": "function",
      "signature": "0xe814e7f5"
    },
    {
      "constant": true,
      "inputs": [],
      "name": "lastPriceTimeInSecond",
      "outputs": [
        {
          "name": "",
          "type": "uint256"
        }
      ],
      "payable": false,
      "stateMutability": "view",
      "type": "function",
      "signature": "0xed9e4789"
    },
    {
      "constant": true,
      "inputs": [],
      "name": "period",
      "outputs": [
        {
          "name": "",
          "type": "uint256"
        }
      ],
      "payable": false,
      "stateMutability": "view",
      "type": "function",
      "signature": "0xef78d4fd"
    },
    {
      "constant": true,
      "inputs": [],
      "name": "openWindowTimeInSecond",
      "outputs": [
        {
          "name": "",
          "type": "uint256"
        }
      ],
      "payable": false,
      "stateMutability": "view",
      "type": "function",
      "signature": "0xf7732499"
    },
    {
      "inputs": [
        {
          "name": "pd",
          "type": "uint256"
        },
        {
          "name": "openWindow",
          "type": "uint256"
        },
        {
          "name": "tokenName",
          "type": "string"
        },
        {
          "name": "tokenSymbol",
          "type": "string"
        },
        {
          "name": "totalSupplyInWei",
          "type": "uint256"
        }
      ],
      "payable": false,
      "stateMutability": "nonpayable",
      "type": "constructor",
      "signature": "constructor"
    },
    {
      "anonymous": false,
      "inputs": [
        {
          "indexed": true,
          "name": "from",
          "type": "address"
        },
        {
          "indexed": true,
          "name": "to",
          "type": "address"
        },
        {
          "indexed": false,
          "name": "value",
          "type": "uint256"
        }
      ],
      "name": "Transfer",
      "type": "event",
      "signature": "0xddf252ad1be2c89b69c2b068fc378daa952ba7f163c4a11628f55a4df523b3ef"
    },
    {
      "anonymous": false,
      "inputs": [
        {
          "indexed": true,
          "name": "tokenOwner",
          "type": "address"
        },
        {
          "indexed": true,
          "name": "spender",
          "type": "address"
        },
        {
          "indexed": false,
          "name": "tokens",
          "type": "uint256"
        }
      ],
      "name": "Approval",
      "type": "event",
      "signature": "0x8c5be1e5ebec7d5bd14f71427d1e84f3dd0314c0f7b2291e5b200ac8c7c3b925"
    },
    {
      "anonymous": false,
      "inputs": [
        {
          "indexed": true,
          "name": "priceInWei",
          "type": "uint256"
        },
        {
          "indexed": true,
          "name": "timeInSecond",
          "type": "uint256"
        },
        {
          "indexed": false,
          "name": "sender",
          "type": "address"
        }
      ],
      "name": "CommitPrice",
      "type": "event",
      "signature": "0x2f4ba6f2db22a6371cf4a725ab5bcc8ff678b0b9071bbd043e04eac67e2c66ad"
    },
    {
      "anonymous": false,
      "inputs": [
        {
          "indexed": false,
          "name": "inceptionTime",
          "type": "uint256"
        },
        {
          "indexed": false,
          "name": "startAddr",
          "type": "address"
        }
      ],
      "name": "Inception",
      "type": "event",
      "signature": "0xbc20852d5f54c23d3800000c77c1a3369f5dd794fcb93c3d48122e148c67fad3"
    },
    {
      "constant": false,
      "inputs": [
        {
          "name": "startTime",
          "type": "uint256"
        },
        {
          "name": "whiteList",
          "type": "address[]"
        }
      ],
      "name": "startOracle",
      "outputs": [
        {
          "name": "success",
          "type": "bool"
        }
      ],
      "payable": false,
      "stateMutability": "nonpayable",
      "type": "function",
      "signature": "0x84af39d1"
    },
    {
      "constant": false,
      "inputs": [
        {
          "name": "priceInWei",
          "type": "uint256"
        },
        {
          "name": "timeInSecond",
          "type": "uint256"
        },
        {
          "name": "addrs",
          "type": "address[]"
        },
        {
          "name": "timeStakeOfVoters",
          "type": "uint256[2][]"
        },
        {
          "name": "vList",
          "type": "uint8[]"
        },
        {
          "name": "rsList",
          "type": "bytes32[2][]"
        }
      ],
      "name": "commitPrice",
      "outputs": [
        {
          "name": "success",
          "type": "bool"
        }
      ],
      "payable": false,
      "stateMutability": "nonpayable",
      "type": "function",
      "signature": "0x603f30a9"
    },
    {
      "constant": false,
      "inputs": [],
      "name": "startNextRound",
      "outputs": [],
      "payable": false,
      "stateMutability": "nonpayable",
      "type": "function",
      "signature": "0x3c3ccc44"
    },
    {
      "constant": true,
      "inputs": [
        {
          "name": "_a",
          "type": "string"
        },
        {
          "name": "_b",
          "type": "string"
        }
      ],
      "name": "concat",
      "outputs": [
        {
          "name": "",
          "type": "string"
        }
      ],
      "payable": false,
      "stateMutability": "pure",
      "type": "function",
      "signature": "0x89c19ddb"
    },
    {
      "constant": false,
      "inputs": [
        {
          "name": "data",
          "type": "uint256[]"
        }
      ],
      "name": "sort",
      "outputs": [
        {
          "name": "",
          "type": "uint256[]"
        }
      ],
      "payable": false,
      "stateMutability": "nonpayable",
      "type": "function",
      "signature": "0x9ec8b026"
    },
    {
      "constant": false,
      "inputs": [
        {
          "name": "to",
          "type": "address"
        },
        {
          "name": "tokens",
          "type": "uint256"
        }
      ],
      "name": "transfer",
      "outputs": [
        {
          "name": "success",
          "type": "bool"
        }
      ],
      "payable": false,
      "stateMutability": "nonpayable",
      "type": "function",
      "signature": "0xa9059cbb"
    },
    {
      "constant": false,
      "inputs": [
        {
          "name": "from",
          "type": "address"
        },
        {
          "name": "to",
          "type": "address"
        },
        {
          "name": "tokens",
          "type": "uint256"
        }
      ],
      "name": "transferFrom",
      "outputs": [
        {
          "name": "success",
          "type": "bool"
        }
      ],
      "payable": false,
      "stateMutability": "nonpayable",
      "type": "function",
      "signature": "0x23b872dd"
    },
    {
      "constant": false,
      "inputs": [
        {
          "name": "spender",
          "type": "address"
        },
        {
          "name": "tokens",
          "type": "uint256"
        }
      ],
      "name": "approve",
      "outputs": [
        {
          "name": "success",
          "type": "bool"
        }
      ],
      "payable": false,
      "stateMutability": "nonpayable",
      "type": "function",
      "signature": "0x095ea7b3"
    }
  ],
  "bytecode": "0x6080604052600180556012601960006101000a81548160ff021916908360ff1602179055503480156200003157600080fd5b506040516200379738038062003797833981018060405262000057919081019062000268565b84600081905550836002819055506001601160003373ffffffffffffffffffffffffffffffffffffffff1673ffffffffffffffffffffffffffffffffffffffff16815260200190815260200160002060006101000a81548160ff0219169083151502179055508260169080519060200190620000d592919062000145565b508160179080519060200190620000ee92919062000145565b508060188190555080600660003373ffffffffffffffffffffffffffffffffffffffff1673ffffffffffffffffffffffffffffffffffffffff168152602001908152602001600020819055505050505050620003b7565b828054600181600116156101000203166002900490600052602060002090601f016020900481019282601f106200018857805160ff1916838001178555620001b9565b82800160010185558215620001b9579182015b82811115620001b85782518255916020019190600101906200019b565b5b509050620001c89190620001cc565b5090565b620001f191905b80821115620001ed576000816000905550600101620001d3565b5090565b90565b600082601f83011215156200020857600080fd5b81516200021f62000219826200034a565b6200031c565b915080825260208301602083018583830111156200023c57600080fd5b6200024983828462000381565b50505092915050565b600062000260825162000377565b905092915050565b600080600080600060a086880312156200028157600080fd5b6000620002918882890162000252565b9550506020620002a48882890162000252565b945050604086015167ffffffffffffffff811115620002c257600080fd5b620002d088828901620001f4565b935050606086015167ffffffffffffffff811115620002ee57600080fd5b620002fc88828901620001f4565b92505060806200030f8882890162000252565b9150509295509295909350565b6000604051905081810181811067ffffffffffffffff821117156200034057600080fd5b8060405250919050565b600067ffffffffffffffff8211156200036257600080fd5b601f19601f8301169050602081019050919050565b6000819050919050565b60005b83811015620003a157808201518184015260208101905062000384565b83811115620003b1576000848401525b50505050565b6133d080620003c76000396000f30060806040526004361061016a576000357c0100000000000000000000000000000000000000000000000000000000900463ffffffff168063053f14da1461016f57806306fdde031461019a578063095ea7b3146101c557806318160ddd1461020257806323b872dd1461022d578063313ce5671461026a5780633c3ccc4414610295578063603f30a9146102ac578063645bd810146102e95780636bff58131461032657806370a08231146103635780637df4f56b146103a0578063838e09d9146103df57806384af39d11461040a57806389c19ddb1461044757806395d89b41146104845780639981dbdc146104af5780639ec8b026146104ec578063a4857f3d14610529578063a9059cbb14610554578063c6dbe15a14610591578063d3686dcf146105ce578063d8ce95ab146105f9578063dd62ed3e14610636578063e814e7f514610673578063ed9e47891461069e578063ef78d4fd146106c9578063f7732499146106f4575b600080fd5b34801561017b57600080fd5b5061018461071f565b604051610191919061307f565b60405180910390f35b3480156101a657600080fd5b506101af610725565b6040516101bc919061303b565b60405180910390f35b3480156101d157600080fd5b506101ec60048036036101e79190810190612c81565b6107c3565b6040516101f99190612fdb565b60405180910390f35b34801561020e57600080fd5b506102176108ba565b604051610224919061307f565b60405180910390f35b34801561023957600080fd5b50610254600480360361024f9190810190612c32565b6108c0565b6040516102619190612fdb565b60405180910390f35b34801561027657600080fd5b5061027f610a75565b60405161028c91906130fa565b60405180910390f35b3480156102a157600080fd5b506102aa610a88565b005b3480156102b857600080fd5b506102d360048036036102ce9190810190612dbe565b610d5b565b6040516102e09190612fdb565b60405180910390f35b3480156102f557600080fd5b50610310600480360361030b9190810190612bcd565b61189e565b60405161031d919061307f565b60405180910390f35b34801561033257600080fd5b5061034d60048036036103489190810190612bcd565b6118b6565b60405161035a919061307f565b60405180910390f35b34801561036f57600080fd5b5061038a60048036036103859190810190612bcd565b6118ce565b604051610397919061307f565b60405180910390f35b3480156103ac57600080fd5b506103c760048036036103c29190810190612bcd565b6118e6565b6040516103d6939291906130c3565b60405180910390f35b3480156103eb57600080fd5b506103f4611910565b604051610401919061307f565b60405180910390f35b34801561041657600080fd5b50610431600480360361042c9190810190612d6a565b611916565b60405161043e9190612fdb565b60405180910390f35b34801561045357600080fd5b5061046e60048036036104699190810190612cfe565b611ae4565b60405161047b919061305d565b60405180910390f35b34801561049057600080fd5b50610499611cb5565b6040516104a6919061303b565b60405180910390f35b3480156104bb57600080fd5b506104d660048036036104d19190810190612bcd565b611d53565b6040516104e39190612fdb565b60405180910390f35b3480156104f857600080fd5b50610513600480360361050e9190810190612cbd565b611d73565b6040516105209190612fb9565b60405180910390f35b34801561053557600080fd5b5061053e611d8d565b60405161054b919061307f565b60405180910390f35b34801561056057600080fd5b5061057b60048036036105769190810190612c81565b611d93565b6040516105889190612fdb565b60405180910390f35b34801561059d57600080fd5b506105b860048036036105b39190810190612bcd565b611da8565b6040516105c59190612fdb565b60405180910390f35b3480156105da57600080fd5b506105e3611dc8565b6040516105f0919061307f565b60405180910390f35b34801561060557600080fd5b50610620600480360361061b9190810190612bcd565b611dce565b60405161062d919061307f565b60405180910390f35b34801561064257600080fd5b5061065d60048036036106589190810190612bf6565b611de6565b60405161066a919061307f565b60405180910390f35b34801561067f57600080fd5b50610688611e0b565b604051610695919061307f565b60405180910390f35b3480156106aa57600080fd5b506106b3611e11565b6040516106c0919061307f565b60405180910390f35b3480156106d557600080fd5b506106de611e17565b6040516106eb919061307f565b60405180910390f35b34801561070057600080fd5b50610709611e1d565b604051610716919061307f565b60405180910390f35b60045481565b60168054600181600116156101000203166002900480601f0160208091040260200160405190810160405280929190818152602001828054600181600116156101000203166002900480156107bb5780601f10610790576101008083540402835291602001916107bb565b820191906000526020600020905b81548152906001019060200180831161079e57829003601f168201915b505050505081565b60008033905082600760008373ffffffffffffffffffffffffffffffffffffffff1673ffffffffffffffffffffffffffffffffffffffff16815260200190815260200160002060008673ffffffffffffffffffffffffffffffffffffffff1673ffffffffffffffffffffffffffffffffffffffff168152602001908152602001600020819055508373ffffffffffffffffffffffffffffffffffffffff168173ffffffffffffffffffffffffffffffffffffffff167f8c5be1e5ebec7d5bd14f71427d1e84f3dd0314c0f7b2291e5b200ac8c7c3b925856040516108a7919061307f565b60405180910390a3600191505092915050565b60185481565b600080339050600760008673ffffffffffffffffffffffffffffffffffffffff1673ffffffffffffffffffffffffffffffffffffffff16815260200190815260200160002060008273ffffffffffffffffffffffffffffffffffffffff1673ffffffffffffffffffffffffffffffffffffffff16815260200190815260200160002054831115151561095157600080fd5b6109e083600760008873ffffffffffffffffffffffffffffffffffffffff1673ffffffffffffffffffffffffffffffffffffffff16815260200190815260200160002060008473ffffffffffffffffffffffffffffffffffffffff1673ffffffffffffffffffffffffffffffffffffffff16815260200190815260200160002054611e2390919063ffffffff16565b600760008773ffffffffffffffffffffffffffffffffffffffff1673ffffffffffffffffffffffffffffffffffffffff16815260200190815260200160002060008373ffffffffffffffffffffffffffffffffffffffff1673ffffffffffffffffffffffffffffffffffffffff16815260200190815260200160002081905550610a6b858585611e3c565b9150509392505050565b601960009054906101000a900460ff1681565b600080610aa260005460035461219290919063ffffffff16565b600381905550600091505b600954821015610c2c576000600b6000600a85815481101515610acc57fe5b9060005260206000200160009054906101000a900473ffffffffffffffffffffffffffffffffffffffff1673ffffffffffffffffffffffffffffffffffffffff1673ffffffffffffffffffffffffffffffffffffffff16815260200190815260200160002060006101000a81548160ff0219169083151502179055506000600c6000600a85815481101515610b5d57fe5b9060005260206000200160009054906101000a900473ffffffffffffffffffffffffffffffffffffffff1673ffffffffffffffffffffffffffffffffffffffff1673ffffffffffffffffffffffffffffffffffffffff168152602001908152602001600020819055506000600a83815481101515610bd757fe5b9060005260206000200160006101000a81548173ffffffffffffffffffffffffffffffffffffffff021916908373ffffffffffffffffffffffffffffffffffffffff1602179055508180600101925050610aad565b600090505b600d54811015610d5757600060126000600e84815481101515610c5057fe5b9060005260206000200160009054906101000a900473ffffffffffffffffffffffffffffffffffffffff1673ffffffffffffffffffffffffffffffffffffffff1673ffffffffffffffffffffffffffffffffffffffff16815260200190815260200160002060006101000a81548160ff021916908315150217905550600060136000600e84815481101515610ce157fe5b9060005260206000200160009054906101000a900473ffffffffffffffffffffffffffffffffffffffff1673ffffffffffffffffffffffffffffffffffffffff1673ffffffffffffffffffffffffffffffffffffffff168152602001908152602001600020819055508080600101915050610c31565b5050565b6000806000806000806000606060011515601160003373ffffffffffffffffffffffffffffffffffffffff1673ffffffffffffffffffffffffffffffffffffffff16815260200190815260200160002060009054906101000a900460ff161515141515610dc757600080fd5b8c610df3600254610de560005460035461219290919063ffffffff16565b61219290919063ffffffff16565b10158015610e2b57508c610e28600254610e1a60005460035461219290919063ffffffff16565b611e2390919063ffffffff16565b11155b15611573576060604051908101604052808f81526020018e815260200142815250600f60003373ffffffffffffffffffffffffffffffffffffffff1673ffffffffffffffffffffffffffffffffffffffff16815260200190815260200160002060008201518160000155602082015181600101556040820151816002015590505060143390806001815401808255809150509060018203906000526020600020016000909192909190916101000a81548173ffffffffffffffffffffffffffffffffffffffff021916908373ffffffffffffffffffffffffffffffffffffffff160217905550506001601260003373ffffffffffffffffffffffffffffffffffffffff1673ffffffffffffffffffffffffffffffffffffffff16815260200190815260200160002060006101000a81548160ff021916908315150217905550600096505b8a6000815181101515610f7e57fe5b9060200190602002015150600287101561156a578c8b6000815181101515610fa257fe5b9060200190602002015188600281101515610fb957fe5b60200201511480156110775750600860008d89815181101515610fd857fe5b9060200190602002015173ffffffffffffffffffffffffffffffffffffffff1673ffffffffffffffffffffffffffffffffffffffff16815260200190815260200160002054600c60008e8a81518110151561102f57fe5b9060200190602002015173ffffffffffffffffffffffffffffffffffffffff1673ffffffffffffffffffffffffffffffffffffffff1681526020019081526020016000205411155b801561124f575061124e8c8881518110151561108f57fe5b9060200190602002015161110d6110d28e60008151811015156110ae57fe5b906020019060200201518b6002811015156110c557fe5b60200201516001026121b0565b6111088f60008151811015156110e457fe5b906020019060200201518c6002811015156110fb57fe5b60200201516001026121b0565b611ae4565b6040516020018082805190602001908083835b6020831015156111455780518252602082019150602081019050602083039250611120565b6001836020036101000a0380198251168184511680821785525050505050509050019150506040516020818303038152906040526040518082805190602001908083835b6020831015156111ae5780518252602082019150602081019050602083039250611189565b6001836020036101000a03801982511681845116808217855250505050505090500191505060405180910390208c8a8151811015156111e957fe5b906020019060200201518c600081518110151561120257fe5b906020019060200201518b60028110151561121957fe5b60200201518d600181518110151561122d57fe5b906020019060200201518c60028110151561124457fe5b60200201516123ac565b5b1561155d576112e78b600181518110151561126657fe5b906020019060200201518860028110151561127d57fe5b6020020151600c60008f8b81518110151561129457fe5b9060200190602002015173ffffffffffffffffffffffffffffffffffffffff1673ffffffffffffffffffffffffffffffffffffffff1681526020019081526020016000205461219290919063ffffffff16565b600c60008e8a8151811015156112f957fe5b9060200190602002015173ffffffffffffffffffffffffffffffffffffffff1673ffffffffffffffffffffffffffffffffffffffff16815260200190815260200160002081905550600b60008d8981518110151561135357fe5b9060200190602002015173ffffffffffffffffffffffffffffffffffffffff1673ffffffffffffffffffffffffffffffffffffffff16815260200190815260200160002060009054906101000a900460ff16151561149d5760016009600082825401925050819055506001600b60008e8a8151811015156113d057fe5b9060200190602002015173ffffffffffffffffffffffffffffffffffffffff1673ffffffffffffffffffffffffffffffffffffffff16815260200190815260200160002060006101000a81548160ff0219169083151502179055508b8781518110151561143957fe5b90602001906020020151600a60095481548110151561145457fe5b9060005260206000200160006101000a81548173ffffffffffffffffffffffffffffffffffffffff021916908373ffffffffffffffffffffffffffffffffffffffff1602179055505b6115198b60018151811015156114af57fe5b90602001906020020151886002811015156114c657fe5b6020020151601360003373ffffffffffffffffffffffffffffffffffffffff1673ffffffffffffffffffffffffffffffffffffffff1681526020019081526020016000205461219290919063ffffffff16565b601360003373ffffffffffffffffffffffffffffffffffffffff1673ffffffffffffffffffffffffffffffffffffffff168152602001908152602001600020819055505b8680600101975050610f6f565b6001975061188d565b4261159f60025461159160005460035461219290919063ffffffff16565b61219290919063ffffffff16565b101561188c576115ad612438565b955085600481905550600094505b6014805490508510156116ea576014878154811015156115d757fe5b9060005260206000200160009054906101000a900473ffffffffffffffffffffffffffffffffffffffff169350600f60008573ffffffffffffffffffffffffffffffffffffffff1673ffffffffffffffffffffffffffffffffffffffff168152602001908152602001600020600001549250858310156116595782860361165d565b8583035b91506015829080600181540180825580915050906001820390600052602060002001600090919290919091505550836010600084815260200190815260200160002060006101000a81548173ffffffffffffffffffffffffffffffffffffffff021916908373ffffffffffffffffffffffffffffffffffffffff16021790555084806001019550506115bb565b611743601580548060200260200160405190810160405280929190818152602001828054801561173957602002820191906000526020600020905b815481526020019060010190808311611725575b5050505050611d73565b90506117f56127106001546018540281151561175b57fe5b04600660006010600086600081518110151561177357fe5b90602001906020020151815260200190815260200160002060009054906101000a900473ffffffffffffffffffffffffffffffffffffffff1673ffffffffffffffffffffffffffffffffffffffff1673ffffffffffffffffffffffffffffffffffffffff1681526020019081526020016000205461219290919063ffffffff16565b600660006010600085600081518110151561180c57fe5b90602001906020020151815260200190815260200160002060009054906101000a900473ffffffffffffffffffffffffffffffffffffffff1673ffffffffffffffffffffffffffffffffffffffff1673ffffffffffffffffffffffffffffffffffffffff1681526020019081526020016000208190555061188b610a88565b5b5b505050505050509695505050505050565b60086020528060005260406000206000915090505481565b600c6020528060005260406000206000915090505481565b60066020528060005260406000206000915090505481565b600f6020528060005260406000206000915090508060000154908060010154908060020154905083565b60055481565b60008060011515601160003373ffffffffffffffffffffffffffffffffffffffff1673ffffffffffffffffffffffffffffffffffffffff16815260200190815260200160002060009054906101000a900460ff16151514151561197857600080fd5b8360058190555083600381905550600090505b8251811015611a9e5760016011600085848151811015156119a857fe5b9060200190602002015173ffffffffffffffffffffffffffffffffffffffff1673ffffffffffffffffffffffffffffffffffffffff16815260200190815260200160002060006101000a81548160ff021916908315150217905550600e8382815181101515611a1357fe5b9060200190602002015190806001815401808255809150509060018203906000526020600020016000909192909190916101000a81548173ffffffffffffffffffffffffffffffffffffffff021916908373ffffffffffffffffffffffffffffffffffffffff160217905550506001600d60008282540192505081905550808060010191505061198b565b7fbc20852d5f54c23d3800000c77c1a3369f5dd794fcb93c3d48122e148c67fad360055433604051611ad192919061309a565b60405180910390a1600191505092915050565b606080606080606060008088955087945084518651016040519080825280601f01601f191660200182016040528015611b2c5781602001602082028038833980820191505090505b50935083925060009150600090505b8551811015611bee578581815181101515611b5257fe5b9060200101517f010000000000000000000000000000000000000000000000000000000000000090047f0100000000000000000000000000000000000000000000000000000000000000028383806001019450815181101515611bb157fe5b9060200101907effffffffffffffffffffffffffffffffffffffffffffffffffffffffffffff1916908160001a9053508080600101915050611b3b565b600090505b8451811015611ca6578481815181101515611c0a57fe5b9060200101517f010000000000000000000000000000000000000000000000000000000000000090047f0100000000000000000000000000000000000000000000000000000000000000028383806001019450815181101515611c6957fe5b9060200101907effffffffffffffffffffffffffffffffffffffffffffffffffffffffffffff1916908160001a9053508080600101915050611bf3565b82965050505050505092915050565b60178054600181600116156101000203166002900480601f016020809104026020016040519081016040528092919081815260200182805460018160011615610100020316600290048015611d4b5780601f10611d2057610100808354040283529160200191611d4b565b820191906000526020600020905b815481529060010190602001808311611d2e57829003601f168201915b505050505081565b60116020528060005260406000206000915054906101000a900460ff1681565b6060611d858260006001855103612642565b819050919050565b60015481565b6000611da0338484611e3c565b905092915050565b60126020528060005260406000206000915054906101000a900460ff1681565b600d5481565b60136020528060005260406000206000915090505481565b6007602052816000526040600020602052806000526040600020600091509150505481565b60095481565b60035481565b60005481565b60025481565b6000828211151515611e3157fe5b818303905092915050565b600080600073ffffffffffffffffffffffffffffffffffffffff168473ffffffffffffffffffffffffffffffffffffffff1614151515611e7b57600080fd5b82600660008773ffffffffffffffffffffffffffffffffffffffff1673ffffffffffffffffffffffffffffffffffffffff1681526020019081526020016000205410151515611ec957600080fd5b611f5a600660008673ffffffffffffffffffffffffffffffffffffffff1673ffffffffffffffffffffffffffffffffffffffff16815260200190815260200160002054600660008873ffffffffffffffffffffffffffffffffffffffff1673ffffffffffffffffffffffffffffffffffffffff1681526020019081526020016000205461219290919063ffffffff16565b9050611fae83600660008873ffffffffffffffffffffffffffffffffffffffff1673ffffffffffffffffffffffffffffffffffffffff16815260200190815260200160002054611e2390919063ffffffff16565b600660008773ffffffffffffffffffffffffffffffffffffffff1673ffffffffffffffffffffffffffffffffffffffff1681526020019081526020016000208190555061204383600660008773ffffffffffffffffffffffffffffffffffffffff1673ffffffffffffffffffffffffffffffffffffffff1681526020019081526020016000205461219290919063ffffffff16565b600660008673ffffffffffffffffffffffffffffffffffffffff1673ffffffffffffffffffffffffffffffffffffffff1681526020019081526020016000208190555080612118600660008773ffffffffffffffffffffffffffffffffffffffff1673ffffffffffffffffffffffffffffffffffffffff16815260200190815260200160002054600660008973ffffffffffffffffffffffffffffffffffffffff1673ffffffffffffffffffffffffffffffffffffffff1681526020019081526020016000205461219290919063ffffffff16565b14151561212157fe5b8373ffffffffffffffffffffffffffffffffffffffff168573ffffffffffffffffffffffffffffffffffffffff167fddf252ad1be2c89b69c2b068fc378daa952ba7f163c4a11628f55a4df523b3ef8560405161217e919061307f565b60405180910390a360019150509392505050565b60008082840190508381101515156121a657fe5b8091505092915050565b6060806000806000606060206040519080825280601f01601f1916602001820160405280156121ee5781602001602082028038833980820191505090505b50945060009350600092505b60208310156122b8578260080260020a876001900402600102915060007f010000000000000000000000000000000000000000000000000000000000000002827effffffffffffffffffffffffffffffffffffffffffffffffffffffffffffff19161415156122ab5781858581518110151561227257fe5b9060200101907effffffffffffffffffffffffffffffffffffffffffffffffffffffffffffff1916908160001a90535083806001019450505b82806001019350506121fa565b836040519080825280601f01601f1916602001820160405280156122eb5781602001602082028038833980820191505090505b509050600092505b8383101561239f57848381518110151561230957fe5b9060200101517f010000000000000000000000000000000000000000000000000000000000000090047f010000000000000000000000000000000000000000000000000000000000000002818481518110151561236257fe5b9060200101907effffffffffffffffffffffffffffffffffffffffffffffffffffffffffffff1916908160001a90535082806001019350506122f3565b8095505050505050919050565b60008573ffffffffffffffffffffffffffffffffffffffff16600186868686604051600081526020016040526040516123e89493929190612ff6565b60206040516020810390808403906000865af115801561240c573d6000803e3d6000fd5b5050506020604051035173ffffffffffffffffffffffffffffffffffffffff1614905095945050505050565b600080600080600080600080600080600080600054600354019a506000995060009850600097505b6014805490508810156126235760148881548110151561247c57fe5b9060005260206000200160009054906101000a900473ffffffffffffffffffffffffffffffffffffffff169650600f60008873ffffffffffffffffffffffffffffffffffffffff1673ffffffffffffffffffffffffffffffffffffffff168152602001908152602001600020600001549550600f60008873ffffffffffffffffffffffffffffffffffffffff1673ffffffffffffffffffffffffffffffffffffffff168152602001908152602001600020600201549450600860008873ffffffffffffffffffffffffffffffffffffffff1673ffffffffffffffffffffffffffffffffffffffff1681526020019081526020016000205493508a85101561258557848b03612589565b8a85035b9250826125de601360008a73ffffffffffffffffffffffffffffffffffffffff1673ffffffffffffffffffffffffffffffffffffffff168152602001908152602001600020548661219290919063ffffffff16565b8115156125e757fe5b0491506125ff8683028b61219290919063ffffffff16565b9950612614828a61219290919063ffffffff16565b98508780600101985050612460565b888a81151561262e57fe5b049050809b50505050505050505050505090565b60008060008492508391508183141561265a5761279a565b85600286860381151561266957fe5b05860181518110151561267857fe5b9060200190602002015190505b8183131515612771575b80868481518110151561269e57fe5b9060200190602002015110156126bb57828060010193505061268f565b5b85828151811015156126ca57fe5b906020019060200201518110156126e9578180600190039250506126bc565b818313151561276c57858281518110151561270057fe5b90602001906020020151868481518110151561271857fe5b90602001906020020151878581518110151561273057fe5b906020019060200201888581518110151561274757fe5b9060200190602002018281525082815250505082806001019350508180600190039250505b612685565b8185121561278557612784868684612642565b5b8383121561279957612798868486612642565b5b5b505050505050565b60006127ae8235613302565b905092915050565b600082601f83011215156127c957600080fd5b81356127dc6127d782613142565b613115565b9150818183526020840193506020810190508385602084028201111561280157600080fd5b60005b83811015612831578161281788826127a2565b845260208401935060208301925050600181019050612804565b5050505092915050565b600082601f830112151561284e57600080fd5b813561286161285c8261316a565b613115565b9150818183526020840193506020810190508385604084028201111561288657600080fd5b60005b838110156128b6578161289c8882612945565b845260208401935060408301925050600181019050612889565b5050505092915050565b600082601f83011215156128d357600080fd5b81356128e66128e182613192565b613115565b9150818183526020840193506020810190508385604084028201111561290b57600080fd5b60005b8381101561293b578161292188826129bb565b84526020840193506040830192505060018101905061290e565b5050505092915050565b600082601f830112151561295857600080fd5b600261296b612966826131ba565b613115565b9150818385602084028201111561298157600080fd5b60005b838110156129b157816129978882612b3b565b845260208401935060208301925050600181019050612984565b5050505092915050565b600082601f83011215156129ce57600080fd5b60026129e16129dc826131dc565b613115565b915081838560208402820111156129f757600080fd5b60005b83811015612a275781612a0d8882612ba5565b8452602084019350602083019250506001810190506129fa565b5050505092915050565b600082601f8301121515612a4457600080fd5b8135612a57612a52826131fe565b613115565b91508181835260208401935060208101905083856020840282011115612a7c57600080fd5b60005b83811015612aac5781612a928882612ba5565b845260208401935060208301925050600181019050612a7f565b5050505092915050565b600082601f8301121515612ac957600080fd5b8135612adc612ad782613226565b613115565b91508181835260208401935060208101905083856020840282011115612b0157600080fd5b60005b83811015612b315781612b178882612bb9565b845260208401935060208301925050600181019050612b04565b5050505092915050565b6000612b478235613322565b905092915050565b600082601f8301121515612b6257600080fd5b8135612b75612b708261324e565b613115565b91508082526020830160208301858383011115612b9157600080fd5b612b9c838284613343565b50505092915050565b6000612bb1823561332c565b905092915050565b6000612bc58235613336565b905092915050565b600060208284031215612bdf57600080fd5b6000612bed848285016127a2565b91505092915050565b60008060408385031215612c0957600080fd5b6000612c17858286016127a2565b9250506020612c28858286016127a2565b9150509250929050565b600080600060608486031215612c4757600080fd5b6000612c55868287016127a2565b9350506020612c66868287016127a2565b9250506040612c7786828701612ba5565b9150509250925092565b60008060408385031215612c9457600080fd5b6000612ca2858286016127a2565b9250506020612cb385828601612ba5565b9150509250929050565b600060208284031215612ccf57600080fd5b600082013567ffffffffffffffff811115612ce957600080fd5b612cf584828501612a31565b91505092915050565b60008060408385031215612d1157600080fd5b600083013567ffffffffffffffff811115612d2b57600080fd5b612d3785828601612b4f565b925050602083013567ffffffffffffffff811115612d5457600080fd5b612d6085828601612b4f565b9150509250929050565b60008060408385031215612d7d57600080fd5b6000612d8b85828601612ba5565b925050602083013567ffffffffffffffff811115612da857600080fd5b612db4858286016127b6565b9150509250929050565b60008060008060008060c08789031215612dd757600080fd5b6000612de589828a01612ba5565b9650506020612df689828a01612ba5565b955050604087013567ffffffffffffffff811115612e1357600080fd5b612e1f89828a016127b6565b945050606087013567ffffffffffffffff811115612e3c57600080fd5b612e4889828a016128c0565b935050608087013567ffffffffffffffff811115612e6557600080fd5b612e7189828a01612ab6565b92505060a087013567ffffffffffffffff811115612e8e57600080fd5b612e9a89828a0161283b565b9150509295509295509295565b612eb0816132b5565b82525050565b6000612ec182613287565b808452602084019350612ed38361327a565b60005b82811015612f0557612ee9868351612f9b565b612ef2826132a8565b9150602086019550600181019050612ed6565b50849250505092915050565b612f1a816132d5565b82525050565b612f29816132e1565b82525050565b6000612f3a8261329d565b808452612f4e816020860160208601613352565b612f5781613385565b602085010191505092915050565b6000612f7082613292565b808452612f84816020860160208601613352565b612f8d81613385565b602085010191505092915050565b612fa4816132eb565b82525050565b612fb3816132f5565b82525050565b60006020820190508181036000830152612fd38184612eb6565b905092915050565b6000602082019050612ff06000830184612f11565b92915050565b600060808201905061300b6000830187612f20565b6130186020830186612faa565b6130256040830185612f20565b6130326060830184612f20565b95945050505050565b600060208201905081810360008301526130558184612f65565b905092915050565b600060208201905081810360008301526130778184612f2f565b905092915050565b60006020820190506130946000830184612f9b565b92915050565b60006040820190506130af6000830185612f9b565b6130bc6020830184612ea7565b9392505050565b60006060820190506130d86000830186612f9b565b6130e56020830185612f9b565b6130f26040830184612f9b565b949350505050565b600060208201905061310f6000830184612faa565b92915050565b6000604051905081810181811067ffffffffffffffff8211171561313857600080fd5b8060405250919050565b600067ffffffffffffffff82111561315957600080fd5b602082029050602081019050919050565b600067ffffffffffffffff82111561318157600080fd5b602082029050602081019050919050565b600067ffffffffffffffff8211156131a957600080fd5b602082029050602081019050919050565b600067ffffffffffffffff8211156131d157600080fd5b602082029050919050565b600067ffffffffffffffff8211156131f357600080fd5b602082029050919050565b600067ffffffffffffffff82111561321557600080fd5b602082029050602081019050919050565b600067ffffffffffffffff82111561323d57600080fd5b602082029050602081019050919050565b600067ffffffffffffffff82111561326557600080fd5b601f19601f8301169050602081019050919050565b6000602082019050919050565b600081519050919050565b600081519050919050565b600081519050919050565b6000602082019050919050565b600073ffffffffffffffffffffffffffffffffffffffff82169050919050565b60008115159050919050565b6000819050919050565b6000819050919050565b600060ff82169050919050565b600073ffffffffffffffffffffffffffffffffffffffff82169050919050565b6000819050919050565b6000819050919050565b600060ff82169050919050565b82818337600083830152505050565b60005b83811015613370578082015181840152602081019050613355565b8381111561337f576000848401525b50505050565b6000601f19601f83011690509190505600a265627a7a723058200708518844d258802d8430d8d2b6a51efb60bc8a7c561c46ded261793de102a46c6578706572696d656e74616cf50037",
  "source": "pragma solidity ^0.4.24;\npragma experimental ABIEncoderV2;\nimport { SafeMath } from \"./common/SafeMath.sol\";\n\n/// @title Oracle\n/// @author \ncontract Oracle {\n\tusing SafeMath for uint;\n\n\t/*\n     * Storage\n     */\n\tstruct Price {\n\t\tuint priceInWei;\n\t\tuint timeInSecond;\n\t\tuint blockTime;\n\t}\n\n\tstruct DelegateStake{\n\t\taddress addr;\n\t\tuint timeInSecond;\n\t\tuint stakes;\n\t\tuint8 v;\n\t\tbytes32 r;\n\t\tbytes32 s;\n\t}\n\tuint public period;\n\tuint public mingRatio = 1;\n\tuint public openWindowTimeInSecond;\n\tuint public lastPriceTimeInSecond;\n\tuint public lastPrice;\n\tuint public inceptionTimeInSecond;\n\t\n\tmapping(address => uint) public balanceOf;\n\tmapping (address => mapping (address => uint)) public allowance;\n\tmapping (address => uint) public totalStakedAmt; // for every one\n\n\n\tuint public totalVotersForCurrentRound;\n\taddress[] votersInCurrentRound;\n\tmapping(address => bool) hasVotedInCurrentRound;\n\tmapping(address => uint) public votesForCurrentRound; //voter => votes\n\n\tuint public totalFeeders;\n\taddress[] feederLists;\n\tmapping (address => Price) public committedPrice;\n\tmapping(uint => address) deltaPriceToAddr;\n\tmapping (address => bool) public isWhiteListFeeders;\n\tmapping(address => bool) public hasCommitted;\n\tmapping(address => uint) public receivedVotes; //committer => votesReciverd\n\taddress[] addressCommitted;\n\tuint[] addressDelta;\n\n\tuint constant WEI_DEOMINATOR = 1000000000000000000;\n\tuint constant BP_DENOMINATOR = 10000;\n\n\tstring public name;\n\tstring public symbol;\n\tuint public totalSupply;\n\tuint8 public decimals = 18;\n\n\n\n\t/*\n     * Modifier\n     */\n\tmodifier isPriceFeed() {\n\t\trequire(isWhiteListFeeders[msg.sender] == true);\n\t\t_;\n\t}\n\n\t/*\n     * Events\n     */\n\tevent Transfer(address indexed from, address indexed to, uint value);\n\tevent Approval(address indexed tokenOwner, address indexed spender, uint tokens);\n\tevent CommitPrice(uint indexed priceInWei, uint indexed timeInSecond, address sender);\n\tevent Inception(uint inceptionTime, address startAddr);\n\n\t/*\n     * Constructor\n     */\n\tconstructor(\n\t\tuint pd,\n\t\tuint openWindow,\n\t\tstring memory tokenName,\n\t\tstring memory tokenSymbol,\n\t\tuint totalSupplyInWei\n\t\t) \n\t\tpublic\n\t{\n\t\tperiod = pd;\n\t\topenWindowTimeInSecond = openWindow;\n\t\tisWhiteListFeeders[msg.sender] = true;\n\t\tname = tokenName;\t\t\t\t\t\t\t\t   // Set the name for display purposes\n\t\tsymbol = tokenSymbol;\t\t\t\t\t\t\t   // Set the symbol for display purposes\n\t\ttotalSupply = totalSupplyInWei;\n\t\tbalanceOf[msg.sender] = totalSupplyInWei;\n\t}\n\n\t/*\n     * Public Functions\n     */\n\tfunction startOracle(\n\t\tuint startTime,\n\t\taddress[] memory whiteList\n\t)\n\t\tpublic \n\t\tisPriceFeed() \n\t\treturns (bool success) \n\t{\n\t\tinceptionTimeInSecond = startTime;\n\t\tlastPriceTimeInSecond = startTime;\n\t\tfor(uint i = 0;  i < whiteList.length; i++ ) {\n\t\t\tisWhiteListFeeders[whiteList[i]] = true;\n\t\t\tfeederLists.push(whiteList[i]);\n\t\t\ttotalFeeders +=1;\n\t\t}\n\t\temit Inception(inceptionTimeInSecond, msg.sender);\n\t\treturn true;\n\t}\n\n\tfunction verify(address addr, bytes32 hash, uint8 v, bytes32 r, bytes32 s) internal pure returns(bool) {\n        return ecrecover(hash, v, r, s) == addr;\n    }\n\n// start of oracle\n\tfunction commitPrice(uint priceInWei, uint timeInSecond, address[] addrs, uint[2][] timeStakeOfVoters, uint8[] vList, bytes32[2][] rsList) \n\t\tpublic \n\t\tisPriceFeed()\n\t\treturns (bool success)\n\t{\t\n\t\t// address sender = msg.sender;\n\t\t// uint blkTime = block.timestamp;\n\t\tif(\n\t\t\tlastPriceTimeInSecond.add(period).add(openWindowTimeInSecond) >= timeInSecond\n\t\t\t&& lastPriceTimeInSecond.add(period).sub(openWindowTimeInSecond) <= timeInSecond\n\t\t)\n\t\t{\n\t\t\tcommittedPrice[msg.sender] = Price( priceInWei,timeInSecond,block.timestamp);\n\t\t\taddressCommitted.push(msg.sender);\n\t\t\thasCommitted[msg.sender] = true;\n\n\t\t\tfor(uint i = 0; i<timeStakeOfVoters[0].length; i++){\n\t\t\t\t// DelegateStake memory stake = delegatedStakes[i];\n\n\t\t\t\tif(\n\t\t\t\t\ttimeStakeOfVoters[0][i]== timeInSecond &&\n\t\t\t\t\tvotesForCurrentRound[addrs[i]] <= totalStakedAmt[addrs[i]] &&\n\t\t\t\t\tverify(\n\t\t\t\t\t\taddrs[i], \n\t\t\t\t\t\tkeccak256(abi.encodePacked( \n\t\t\t\t\t\t\tconcat(\n\t\t\t\t\t\t\t\tbytes32ToString(bytes32(timeStakeOfVoters[0][i])),\n\t\t\t\t\t\t\t\tbytes32ToString(bytes32(timeStakeOfVoters[0][i]))\n\t\t\t\t\t\t\t)\n\t\t\t\t\t\t)),\n\t\t\t\t\t\tvList[i],\n\t\t\t\t\t\trsList[0][i],\n\t\t\t\t\t\trsList[1][i]\n\t\t\t\t\t)\n\t\t\t\t){\n\t\t\t\t\tvotesForCurrentRound[addrs[i]] = votesForCurrentRound[addrs[i]].add(timeStakeOfVoters[1][i]);\n\t\t\t\t\tif(!hasVotedInCurrentRound[addrs[i]]) {\n\t\t\t\t\t\ttotalVotersForCurrentRound+=1;\n\t\t\t\t\t\thasVotedInCurrentRound[addrs[i]] = true;\n\t\t\t\t\t\tvotersInCurrentRound[totalVotersForCurrentRound] = addrs[i];\n\t\t\t\t\t}\n\t\t\t\t\t\n\t\t\t\t\treceivedVotes[msg.sender] = receivedVotes[msg.sender].add(timeStakeOfVoters[1][i]);\n\t\t\t\t}\n\t\t\t}\n\n\t\t\treturn true;\t\n\t\t} else if (lastPriceTimeInSecond.add(period).add(openWindowTimeInSecond) < block.timestamp ){\n\t\t\t// round end, settle\n\t\t\t\n\t\t\tuint finalPriceInWei = calcFinalPrice();\n\t\t\tlastPrice = finalPriceInWei;\n\t\t\t// uint size = addressCommitted.length;\n\t\t\t\n\t\t\t// uint[] storage prices = [];\n\t\t\tfor(uint j = 0;j <addressCommitted.length; j++){\n\t\t\t\taddress addr = addressCommitted[i];\n\t\t\t\tuint price = committedPrice[addr].priceInWei;\n\t\t\t\tuint delta = (price >= finalPriceInWei)? (price - finalPriceInWei): (finalPriceInWei - price);\n\t\t\t\taddressDelta.push(delta);\n\t\t\t\tdeltaPriceToAddr[delta] = addr;\n\t\t\t}\n\n\t\t\tuint[] memory sortedDeltaArray = sort(addressDelta);\n\t\t\tbalanceOf[deltaPriceToAddr[sortedDeltaArray[0]]] = \n\t\t\t\tbalanceOf[deltaPriceToAddr[sortedDeltaArray[0]]]\n\t\t\t\t.add(totalSupply * mingRatio / BP_DENOMINATOR);\n\n\t\t\t\n\t\t\tstartNextRound();\n\n\t\t}\n\t}\n\n\tfunction startNextRound() {\n\t\tlastPriceTimeInSecond = lastPriceTimeInSecond.add(period);\n\n\t\tfor(uint i = 0;i <totalVotersForCurrentRound; i ++) {\n\t\t\thasVotedInCurrentRound[votersInCurrentRound[i]] = false;\n\t\t\tvotesForCurrentRound[votersInCurrentRound[i]] = 0;\n\t\t\tvotersInCurrentRound[i]=address(0);\n\t\t}\n\n\t\tfor(uint j = 0; j< totalFeeders; j++){\n\t\t\thasCommitted[feederLists[j]] = false;\n\t\t\treceivedVotes[feederLists[j]] = 0;\n\n\n\t\t}\n\t}\n\n\tfunction calcFinalPrice() view internal returns (uint)  {\n\t\tuint currentTime = lastPriceTimeInSecond + period;\n\t\tuint weightedPricesSum = 0;\n\t\tuint weightsSum = 0;\n\t\t// mapping(address => uint) deltaT;\n\t\tfor(uint i = 0; i<addressCommitted.length; i++)\n\t\t{\n\t\t\taddress addr = addressCommitted[i];\n\t\t\tuint priceInWei = committedPrice[addr].priceInWei;\n\t\t\tuint blockTime = committedPrice[addr].blockTime;\n\t\t\tuint stakeAmt = totalStakedAmt[addr];\n\t\t\tuint deltaTime = (blockTime >= currentTime)? (blockTime - currentTime): (currentTime - blockTime);\n\t\t\tuint weight = stakeAmt.add(receivedVotes[addr])/deltaTime; //wanghe need to convert to wei?\n\t\t\tweightedPricesSum = weightedPricesSum.add(weight * priceInWei);\n\t\t\tweightsSum = weightsSum.add(weight);\n\t\t}\n\n\t\tuint finalPrice = weightedPricesSum / weightsSum; // wanghe need to convert to wei?\n\t\treturn finalPrice;\n\t}\n\n\n\tfunction bytes32ToString(bytes32 x) internal pure returns (string) {\n\t\tbytes memory bytesString = new bytes(32);\n\t\tuint charCount = 0;\n\t\tfor (uint j = 0; j < 32; j++) {\n\t\t\tbyte char = byte(bytes32(uint(x) * 2 ** (8 * j)));\n\t\t\tif (char != 0) {\n\t\t\t\tbytesString[charCount] = char;\n\t\t\t\tcharCount++;\n\t\t\t}\n\t\t}\n\t\tbytes memory bytesStringTrimmed = new bytes(charCount);\n\t\tfor (j = 0; j < charCount; j++) {\n\t\t\tbytesStringTrimmed[j] = bytesString[j];\n\t\t}\n\t\treturn string(bytesStringTrimmed);\n\t}\n\n\t\n\t// end of oracle\n\n\tfunction concat(string memory _a, string memory  _b) public pure returns (string){\n        bytes memory bytes_a = bytes(_a);\n        bytes memory bytes_b = bytes(_b);\n        string memory length_ab = new string(bytes_a.length + bytes_b.length);\n        bytes memory bytes_c = bytes(length_ab);\n        uint k = 0;\n        for (uint i = 0; i < bytes_a.length; i++) bytes_c[k++] = bytes_a[i];\n        for (i = 0; i < bytes_b.length; i++) bytes_c[k++] = bytes_b[i];\n        return string(bytes_c);\n    }\n\n\tfunction sort(uint[] data) public returns(uint[]) {\n       quickSort(data, int(0), int(data.length - 1));\n       return data;\n    }\n    \n    function quickSort(uint[] memory arr, int left, int right) internal{\n        int i = left;\n        int j = right;\n        if(i==j) return;\n        uint pivot = arr[uint(left + (right - left) / 2)];\n        while (i <= j) {\n            while (arr[uint(i)] < pivot) i++;\n            while (pivot < arr[uint(j)]) j--;\n            if (i <= j) {\n                (arr[uint(i)], arr[uint(j)]) = (arr[uint(j)], arr[uint(i)]);\n                i++;\n                j--;\n            }\n        }\n        if (left < j)\n            quickSort(arr, left, j);\n        if (i < right)\n            quickSort(arr, i, right);\n    }\n\n\t/*\n     * ERC token functions\n     */\n\t/// @dev transferInternal function.\n\t/// @param from  from address\n\t/// @param to   to address\n\t/// @param tokens num of tokens transferred\n\tfunction transferInternal(address from, address to, uint tokens) \n\t\tinternal \n\t\treturns (bool success) \n\t{\n\t\t// Prevent transfer to 0x0 address. Use burn() instead\n\t\trequire(to != address(0));\n\t\t// Check if the sender has enough\n\t\trequire(balanceOf[from] >= tokens);\n\t\t// Save this for an assertion in the future\n\t\tuint previousBalances = balanceOf[from].add(balanceOf[to]);\n\t\t// Subtract from the sender\n\t\tbalanceOf[from] = balanceOf[from].sub(tokens);\n\t\t// Add the same to the recipient\n\t\tbalanceOf[to] = balanceOf[to].add(tokens);\n\t\t// Asserts are used to use static analysis to find bugs in your code. They should never fail\n\t\tassert(balanceOf[from].add(balanceOf[to]) == previousBalances);\n\t\temit Transfer(from, to, tokens);\n\t\treturn true;\n\t}\n\n\tfunction transfer(address to, uint tokens)\n\t\tpublic\n\t\treturns (bool success) \n\t{\n\t\treturn transferInternal( msg.sender, to, tokens);\n\t}\n\n\tfunction transferFrom( address from, address to, uint tokens) \n\t\tpublic \n\t\treturns (bool success) \n\t{\n\t\taddress spenderToUse = msg.sender;\n\t\trequire(tokens <= allowance[from][spenderToUse]);\t // Check allowance\n\t\tallowance[from][spenderToUse] = allowance[from][spenderToUse].sub(tokens);\n\t\treturn transferInternal( from, to, tokens);\n\t}\n\n\tfunction approve( address spender, uint tokens) \n\t\tpublic \n\t\treturns (bool success) \n\t{\n\t\taddress senderToUse = msg.sender;\n\t\tallowance[senderToUse][spender] = tokens;\n\t\temit Approval(senderToUse, spender, tokens);\n\t\treturn true;\n\t}\n\n}\n",
  "sourcePath": "C:/Users/WeitaoYang/Downloads/dev/posOracle/contracts/Oracle.sol",
  "compiler": {
    "name": "solc",
    "version": "0.4.24+commit.e67f0147.Emscripten.clang"
  },
  "schemaVersion": "3.0.0-beta.0",
  "updatedAt": "2018-12-08T22:14:00.754Z"
}