{
  "contractName": "Oracle",
  "abi": [
    {
      "constant": true,
      "inputs": [],
      "name": "lastPrice",
      "outputs": [
        {
          "name": "",
          "type": "uint256"
        }
      ],
      "payable": false,
      "stateMutability": "view",
      "type": "function",
      "signature": "0x053f14da"
    },
    {
      "constant": true,
      "inputs": [],
      "name": "name",
      "outputs": [
        {
          "name": "",
          "type": "string"
        }
      ],
      "payable": false,
      "stateMutability": "view",
      "type": "function",
      "signature": "0x06fdde03"
    },
    {
      "constant": true,
      "inputs": [],
      "name": "totalSupply",
      "outputs": [
        {
          "name": "",
          "type": "uint256"
        }
      ],
      "payable": false,
      "stateMutability": "view",
      "type": "function",
      "signature": "0x18160ddd"
    },
    {
      "constant": true,
      "inputs": [],
      "name": "decimals",
      "outputs": [
        {
          "name": "",
          "type": "uint8"
        }
      ],
      "payable": false,
      "stateMutability": "view",
      "type": "function",
      "signature": "0x313ce567"
    },
    {
      "constant": true,
      "inputs": [
        {
          "name": "",
          "type": "address"
        }
      ],
      "name": "totalStakedAmt",
      "outputs": [
        {
          "name": "",
          "type": "uint256"
        }
      ],
      "payable": false,
      "stateMutability": "view",
      "type": "function",
      "signature": "0x645bd810"
    },
    {
      "constant": true,
      "inputs": [
        {
          "name": "",
          "type": "address"
        }
      ],
      "name": "votesForCurrentRound",
      "outputs": [
        {
          "name": "",
          "type": "uint256"
        }
      ],
      "payable": false,
      "stateMutability": "view",
      "type": "function",
      "signature": "0x6bff5813"
    },
    {
      "constant": true,
      "inputs": [
        {
          "name": "",
          "type": "address"
        }
      ],
      "name": "balanceOf",
      "outputs": [
        {
          "name": "",
          "type": "uint256"
        }
      ],
      "payable": false,
      "stateMutability": "view",
      "type": "function",
      "signature": "0x70a08231"
    },
    {
      "constant": true,
      "inputs": [
        {
          "name": "",
          "type": "address"
        }
      ],
      "name": "committedPrice",
      "outputs": [
        {
          "name": "priceInWei",
          "type": "uint256"
        },
        {
          "name": "timeInSecond",
          "type": "uint256"
        },
        {
          "name": "blockTime",
          "type": "uint256"
        }
      ],
      "payable": false,
      "stateMutability": "view",
      "type": "function",
      "signature": "0x7df4f56b"
    },
    {
      "constant": true,
      "inputs": [],
      "name": "inceptionTimeInSecond",
      "outputs": [
        {
          "name": "",
          "type": "uint256"
        }
      ],
      "payable": false,
      "stateMutability": "view",
      "type": "function",
      "signature": "0x838e09d9"
    },
    {
      "constant": true,
      "inputs": [],
      "name": "symbol",
      "outputs": [
        {
          "name": "",
          "type": "string"
        }
      ],
      "payable": false,
      "stateMutability": "view",
      "type": "function",
      "signature": "0x95d89b41"
    },
    {
      "constant": true,
      "inputs": [
        {
          "name": "",
          "type": "address"
        }
      ],
      "name": "isWhiteListFeeders",
      "outputs": [
        {
          "name": "",
          "type": "bool"
        }
      ],
      "payable": false,
      "stateMutability": "view",
      "type": "function",
      "signature": "0x9981dbdc"
    },
    {
      "constant": true,
      "inputs": [],
      "name": "mingRatio",
      "outputs": [
        {
          "name": "",
          "type": "uint256"
        }
      ],
      "payable": false,
      "stateMutability": "view",
      "type": "function",
      "signature": "0xa4857f3d"
    },
    {
      "constant": true,
      "inputs": [
        {
          "name": "",
          "type": "address"
        }
      ],
      "name": "hasCommitted",
      "outputs": [
        {
          "name": "",
          "type": "bool"
        }
      ],
      "payable": false,
      "stateMutability": "view",
      "type": "function",
      "signature": "0xc6dbe15a"
    },
    {
      "constant": true,
      "inputs": [],
      "name": "totalFeeders",
      "outputs": [
        {
          "name": "",
          "type": "uint256"
        }
      ],
      "payable": false,
      "stateMutability": "view",
      "type": "function",
      "signature": "0xd3686dcf"
    },
    {
      "constant": true,
      "inputs": [
        {
          "name": "",
          "type": "address"
        }
      ],
      "name": "receivedVotes",
      "outputs": [
        {
          "name": "",
          "type": "uint256"
        }
      ],
      "payable": false,
      "stateMutability": "view",
      "type": "function",
      "signature": "0xd8ce95ab"
    },
    {
      "constant": true,
      "inputs": [
        {
          "name": "",
          "type": "address"
        },
        {
          "name": "",
          "type": "address"
        }
      ],
      "name": "allowance",
      "outputs": [
        {
          "name": "",
          "type": "uint256"
        }
      ],
      "payable": false,
      "stateMutability": "view",
      "type": "function",
      "signature": "0xdd62ed3e"
    },
    {
      "constant": true,
      "inputs": [],
      "name": "totalVotersForCurrentRound",
      "outputs": [
        {
          "name": "",
          "type": "uint256"
        }
      ],
      "payable": false,
      "stateMutability": "view",
      "type": "function",
      "signature": "0xe814e7f5"
    },
    {
      "constant": true,
      "inputs": [],
      "name": "lastPriceTimeInSecond",
      "outputs": [
        {
          "name": "",
          "type": "uint256"
        }
      ],
      "payable": false,
      "stateMutability": "view",
      "type": "function",
      "signature": "0xed9e4789"
    },
    {
      "constant": true,
      "inputs": [],
      "name": "period",
      "outputs": [
        {
          "name": "",
          "type": "uint256"
        }
      ],
      "payable": false,
      "stateMutability": "view",
      "type": "function",
      "signature": "0xef78d4fd"
    },
    {
      "constant": true,
      "inputs": [],
      "name": "openWindowTimeInSecond",
      "outputs": [
        {
          "name": "",
          "type": "uint256"
        }
      ],
      "payable": false,
      "stateMutability": "view",
      "type": "function",
      "signature": "0xf7732499"
    },
    {
      "inputs": [
        {
          "name": "pd",
          "type": "uint256"
        },
        {
          "name": "openWindow",
          "type": "uint256"
        },
        {
          "name": "tokenName",
          "type": "string"
        },
        {
          "name": "tokenSymbol",
          "type": "string"
        },
        {
          "name": "totalSupplyInWei",
          "type": "uint256"
        }
      ],
      "payable": false,
      "stateMutability": "nonpayable",
      "type": "constructor",
      "signature": "constructor"
    },
    {
      "anonymous": false,
      "inputs": [
        {
          "indexed": true,
          "name": "from",
          "type": "address"
        },
        {
          "indexed": true,
          "name": "to",
          "type": "address"
        },
        {
          "indexed": false,
          "name": "value",
          "type": "uint256"
        }
      ],
      "name": "Transfer",
      "type": "event",
      "signature": "0xddf252ad1be2c89b69c2b068fc378daa952ba7f163c4a11628f55a4df523b3ef"
    },
    {
      "anonymous": false,
      "inputs": [
        {
          "indexed": true,
          "name": "tokenOwner",
          "type": "address"
        },
        {
          "indexed": true,
          "name": "spender",
          "type": "address"
        },
        {
          "indexed": false,
          "name": "tokens",
          "type": "uint256"
        }
      ],
      "name": "Approval",
      "type": "event",
      "signature": "0x8c5be1e5ebec7d5bd14f71427d1e84f3dd0314c0f7b2291e5b200ac8c7c3b925"
    },
    {
      "anonymous": false,
      "inputs": [
        {
          "indexed": true,
          "name": "priceInWei",
          "type": "uint256"
        },
        {
          "indexed": true,
          "name": "timeInSecond",
          "type": "uint256"
        },
        {
          "indexed": false,
          "name": "sender",
          "type": "address"
        }
      ],
      "name": "CommitPrice",
      "type": "event",
      "signature": "0x2f4ba6f2db22a6371cf4a725ab5bcc8ff678b0b9071bbd043e04eac67e2c66ad"
    },
    {
      "anonymous": false,
      "inputs": [
        {
          "indexed": false,
          "name": "inceptionTime",
          "type": "uint256"
        },
        {
          "indexed": false,
          "name": "startAddr",
          "type": "address"
        }
      ],
      "name": "Inception",
      "type": "event",
      "signature": "0xbc20852d5f54c23d3800000c77c1a3369f5dd794fcb93c3d48122e148c67fad3"
    },
    {
      "constant": false,
      "inputs": [
        {
          "name": "startTime",
          "type": "uint256"
        },
        {
          "name": "whiteList",
          "type": "address[]"
        }
      ],
      "name": "startOracle",
      "outputs": [
        {
          "name": "success",
          "type": "bool"
        }
      ],
      "payable": false,
      "stateMutability": "nonpayable",
      "type": "function",
      "signature": "0x84af39d1"
    },
    {
      "constant": false,
      "inputs": [
        {
          "name": "amtInWei",
          "type": "uint256"
        }
      ],
      "name": "stake",
      "outputs": [],
      "payable": false,
      "stateMutability": "nonpayable",
      "type": "function",
      "signature": "0xa694fc3a"
    },
    {
      "constant": false,
      "inputs": [
        {
          "name": "amtInWei",
          "type": "uint256"
        }
      ],
      "name": "unStake",
      "outputs": [],
      "payable": false,
      "stateMutability": "nonpayable",
      "type": "function",
      "signature": "0x5d3eea91"
    },
    {
      "constant": false,
      "inputs": [
        {
          "name": "priceInWei",
          "type": "uint256"
        },
        {
          "name": "timeInSecond",
          "type": "uint256"
        },
        {
          "name": "addrs",
          "type": "address[]"
        },
        {
          "name": "timeStakeOfVoters",
          "type": "uint256[2][]"
        },
        {
          "name": "vList",
          "type": "uint8[]"
        },
        {
          "name": "rsList",
          "type": "bytes32[2][]"
        }
      ],
      "name": "commitPrice",
      "outputs": [
        {
          "name": "success",
          "type": "bool"
        }
      ],
      "payable": false,
      "stateMutability": "nonpayable",
      "type": "function",
      "signature": "0x603f30a9"
    },
    {
      "constant": false,
      "inputs": [],
      "name": "startNextRound",
      "outputs": [],
      "payable": false,
      "stateMutability": "nonpayable",
      "type": "function",
      "signature": "0x3c3ccc44"
    },
    {
      "constant": true,
      "inputs": [
        {
          "name": "_a",
          "type": "string"
        },
        {
          "name": "_b",
          "type": "string"
        }
      ],
      "name": "concat",
      "outputs": [
        {
          "name": "",
          "type": "string"
        }
      ],
      "payable": false,
      "stateMutability": "pure",
      "type": "function",
      "signature": "0x89c19ddb"
    },
    {
      "constant": false,
      "inputs": [
        {
          "name": "data",
          "type": "uint256[]"
        }
      ],
      "name": "sort",
      "outputs": [
        {
          "name": "",
          "type": "uint256[]"
        }
      ],
      "payable": false,
      "stateMutability": "nonpayable",
      "type": "function",
      "signature": "0x9ec8b026"
    },
    {
      "constant": false,
      "inputs": [
        {
          "name": "to",
          "type": "address"
        },
        {
          "name": "tokens",
          "type": "uint256"
        }
      ],
      "name": "transfer",
      "outputs": [
        {
          "name": "success",
          "type": "bool"
        }
      ],
      "payable": false,
      "stateMutability": "nonpayable",
      "type": "function",
      "signature": "0xa9059cbb"
    },
    {
      "constant": false,
      "inputs": [
        {
          "name": "from",
          "type": "address"
        },
        {
          "name": "to",
          "type": "address"
        },
        {
          "name": "tokens",
          "type": "uint256"
        }
      ],
      "name": "transferFrom",
      "outputs": [
        {
          "name": "success",
          "type": "bool"
        }
      ],
      "payable": false,
      "stateMutability": "nonpayable",
      "type": "function",
      "signature": "0x23b872dd"
    },
    {
      "constant": false,
      "inputs": [
        {
          "name": "spender",
          "type": "address"
        },
        {
          "name": "tokens",
          "type": "uint256"
        }
      ],
      "name": "approve",
      "outputs": [
        {
          "name": "success",
          "type": "bool"
        }
      ],
      "payable": false,
      "stateMutability": "nonpayable",
      "type": "function",
      "signature": "0x095ea7b3"
    }
  ],
  "bytecode": "0x6080604052600180556012601960006101000a81548160ff021916908360ff1602179055503480156200003157600080fd5b5060405162003aea38038062003aea833981018060405262000057919081019062000268565b84600081905550836002819055506001601160003373ffffffffffffffffffffffffffffffffffffffff1673ffffffffffffffffffffffffffffffffffffffff16815260200190815260200160002060006101000a81548160ff0219169083151502179055508260169080519060200190620000d592919062000145565b508160179080519060200190620000ee92919062000145565b508060188190555080600660003373ffffffffffffffffffffffffffffffffffffffff1673ffffffffffffffffffffffffffffffffffffffff168152602001908152602001600020819055505050505050620003b7565b828054600181600116156101000203166002900490600052602060002090601f016020900481019282601f106200018857805160ff1916838001178555620001b9565b82800160010185558215620001b9579182015b82811115620001b85782518255916020019190600101906200019b565b5b509050620001c89190620001cc565b5090565b620001f191905b80821115620001ed576000816000905550600101620001d3565b5090565b90565b600082601f83011215156200020857600080fd5b81516200021f62000219826200034a565b6200031c565b915080825260208301602083018583830111156200023c57600080fd5b6200024983828462000381565b50505092915050565b600062000260825162000377565b905092915050565b600080600080600060a086880312156200028157600080fd5b6000620002918882890162000252565b9550506020620002a48882890162000252565b945050604086015167ffffffffffffffff811115620002c257600080fd5b620002d088828901620001f4565b935050606086015167ffffffffffffffff811115620002ee57600080fd5b620002fc88828901620001f4565b92505060806200030f8882890162000252565b9150509295509295909350565b6000604051905081810181811067ffffffffffffffff821117156200034057600080fd5b8060405250919050565b600067ffffffffffffffff8211156200036257600080fd5b601f19601f8301169050602081019050919050565b6000819050919050565b60005b83811015620003a157808201518184015260208101905062000384565b83811115620003b1576000848401525b50505050565b61372380620003c76000396000f300608060405260043610610180576000357c0100000000000000000000000000000000000000000000000000000000900463ffffffff168063053f14da1461018557806306fdde03146101b0578063095ea7b3146101db57806318160ddd1461021857806323b872dd14610243578063313ce567146102805780633c3ccc44146102ab5780635d3eea91146102c2578063603f30a9146102eb578063645bd810146103285780636bff58131461036557806370a08231146103a25780637df4f56b146103df578063838e09d91461041e57806384af39d11461044957806389c19ddb1461048657806395d89b41146104c35780639981dbdc146104ee5780639ec8b0261461052b578063a4857f3d14610568578063a694fc3a14610593578063a9059cbb146105bc578063c6dbe15a146105f9578063d3686dcf14610636578063d8ce95ab14610661578063dd62ed3e1461069e578063e814e7f5146106db578063ed9e478914610706578063ef78d4fd14610731578063f77324991461075c575b600080fd5b34801561019157600080fd5b5061019a610787565b6040516101a791906133d2565b60405180910390f35b3480156101bc57600080fd5b506101c561078d565b6040516101d2919061338e565b60405180910390f35b3480156101e757600080fd5b5061020260048036036101fd9190810190612fab565b61082b565b60405161020f919061332e565b60405180910390f35b34801561022457600080fd5b5061022d610922565b60405161023a91906133d2565b60405180910390f35b34801561024f57600080fd5b5061026a60048036036102659190810190612f5c565b610928565b604051610277919061332e565b60405180910390f35b34801561028c57600080fd5b50610295610add565b6040516102a2919061344d565b60405180910390f35b3480156102b757600080fd5b506102c0610af0565b005b3480156102ce57600080fd5b506102e960048036036102e49190810190613094565b610dc3565b005b3480156102f757600080fd5b50610312600480360361030d9190810190613111565b610f24565b60405161031f919061332e565b60405180910390f35b34801561033457600080fd5b5061034f600480360361034a9190810190612ef7565b611a67565b60405161035c91906133d2565b60405180910390f35b34801561037157600080fd5b5061038c60048036036103879190810190612ef7565b611a7f565b60405161039991906133d2565b60405180910390f35b3480156103ae57600080fd5b506103c960048036036103c49190810190612ef7565b611a97565b6040516103d691906133d2565b60405180910390f35b3480156103eb57600080fd5b5061040660048036036104019190810190612ef7565b611aaf565b60405161041593929190613416565b60405180910390f35b34801561042a57600080fd5b50610433611ad9565b60405161044091906133d2565b60405180910390f35b34801561045557600080fd5b50610470600480360361046b91908101906130bd565b611adf565b60405161047d919061332e565b60405180910390f35b34801561049257600080fd5b506104ad60048036036104a89190810190613028565b611cad565b6040516104ba91906133b0565b60405180910390f35b3480156104cf57600080fd5b506104d8611e7e565b6040516104e5919061338e565b60405180910390f35b3480156104fa57600080fd5b5061051560048036036105109190810190612ef7565b611f1c565b604051610522919061332e565b60405180910390f35b34801561053757600080fd5b50610552600480360361054d9190810190612fe7565b611f3c565b60405161055f919061330c565b60405180910390f35b34801561057457600080fd5b5061057d611f56565b60405161058a91906133d2565b60405180910390f35b34801561059f57600080fd5b506105ba60048036036105b59190810190613094565b611f5c565b005b3480156105c857600080fd5b506105e360048036036105de9190810190612fab565b6120bd565b6040516105f0919061332e565b60405180910390f35b34801561060557600080fd5b50610620600480360361061b9190810190612ef7565b6120d2565b60405161062d919061332e565b60405180910390f35b34801561064257600080fd5b5061064b6120f2565b60405161065891906133d2565b60405180910390f35b34801561066d57600080fd5b5061068860048036036106839190810190612ef7565b6120f8565b60405161069591906133d2565b60405180910390f35b3480156106aa57600080fd5b506106c560048036036106c09190810190612f20565b612110565b6040516106d291906133d2565b60405180910390f35b3480156106e757600080fd5b506106f0612135565b6040516106fd91906133d2565b60405180910390f35b34801561071257600080fd5b5061071b61213b565b60405161072891906133d2565b60405180910390f35b34801561073d57600080fd5b50610746612141565b60405161075391906133d2565b60405180910390f35b34801561076857600080fd5b50610771612147565b60405161077e91906133d2565b60405180910390f35b60045481565b60168054600181600116156101000203166002900480601f0160208091040260200160405190810160405280929190818152602001828054600181600116156101000203166002900480156108235780601f106107f857610100808354040283529160200191610823565b820191906000526020600020905b81548152906001019060200180831161080657829003601f168201915b505050505081565b60008033905082600760008373ffffffffffffffffffffffffffffffffffffffff1673ffffffffffffffffffffffffffffffffffffffff16815260200190815260200160002060008673ffffffffffffffffffffffffffffffffffffffff1673ffffffffffffffffffffffffffffffffffffffff168152602001908152602001600020819055508373ffffffffffffffffffffffffffffffffffffffff168173ffffffffffffffffffffffffffffffffffffffff167f8c5be1e5ebec7d5bd14f71427d1e84f3dd0314c0f7b2291e5b200ac8c7c3b9258560405161090f91906133d2565b60405180910390a3600191505092915050565b60185481565b600080339050600760008673ffffffffffffffffffffffffffffffffffffffff1673ffffffffffffffffffffffffffffffffffffffff16815260200190815260200160002060008273ffffffffffffffffffffffffffffffffffffffff1673ffffffffffffffffffffffffffffffffffffffff1681526020019081526020016000205483111515156109b957600080fd5b610a4883600760008873ffffffffffffffffffffffffffffffffffffffff1673ffffffffffffffffffffffffffffffffffffffff16815260200190815260200160002060008473ffffffffffffffffffffffffffffffffffffffff1673ffffffffffffffffffffffffffffffffffffffff1681526020019081526020016000205461214d90919063ffffffff16565b600760008773ffffffffffffffffffffffffffffffffffffffff1673ffffffffffffffffffffffffffffffffffffffff16815260200190815260200160002060008373ffffffffffffffffffffffffffffffffffffffff1673ffffffffffffffffffffffffffffffffffffffff16815260200190815260200160002081905550610ad3858585612166565b9150509392505050565b601960009054906101000a900460ff1681565b600080610b0a6000546003546124bc90919063ffffffff16565b600381905550600091505b600954821015610c94576000600b6000600a85815481101515610b3457fe5b9060005260206000200160009054906101000a900473ffffffffffffffffffffffffffffffffffffffff1673ffffffffffffffffffffffffffffffffffffffff1673ffffffffffffffffffffffffffffffffffffffff16815260200190815260200160002060006101000a81548160ff0219169083151502179055506000600c6000600a85815481101515610bc557fe5b9060005260206000200160009054906101000a900473ffffffffffffffffffffffffffffffffffffffff1673ffffffffffffffffffffffffffffffffffffffff1673ffffffffffffffffffffffffffffffffffffffff168152602001908152602001600020819055506000600a83815481101515610c3f57fe5b9060005260206000200160006101000a81548173ffffffffffffffffffffffffffffffffffffffff021916908373ffffffffffffffffffffffffffffffffffffffff1602179055508180600101925050610b15565b600090505b600d54811015610dbf57600060126000600e84815481101515610cb857fe5b9060005260206000200160009054906101000a900473ffffffffffffffffffffffffffffffffffffffff1673ffffffffffffffffffffffffffffffffffffffff1673ffffffffffffffffffffffffffffffffffffffff16815260200190815260200160002060006101000a81548160ff021916908315150217905550600060136000600e84815481101515610d4957fe5b9060005260206000200160009054906101000a900473ffffffffffffffffffffffffffffffffffffffff1673ffffffffffffffffffffffffffffffffffffffff1673ffffffffffffffffffffffffffffffffffffffff168152602001908152602001600020819055508080600101915050610c99565b5050565b6000339050600860008273ffffffffffffffffffffffffffffffffffffffff1673ffffffffffffffffffffffffffffffffffffffff168152602001908152602001600020548211151515610e1657600080fd5b81600660008373ffffffffffffffffffffffffffffffffffffffff1673ffffffffffffffffffffffffffffffffffffffff1681526020019081526020016000205401600660008373ffffffffffffffffffffffffffffffffffffffff1673ffffffffffffffffffffffffffffffffffffffff1681526020019081526020016000208190555081600860008373ffffffffffffffffffffffffffffffffffffffff1673ffffffffffffffffffffffffffffffffffffffff1681526020019081526020016000205403600860008373ffffffffffffffffffffffffffffffffffffffff1673ffffffffffffffffffffffffffffffffffffffff168152602001908152602001600020819055505050565b6000806000806000806000606060011515601160003373ffffffffffffffffffffffffffffffffffffffff1673ffffffffffffffffffffffffffffffffffffffff16815260200190815260200160002060009054906101000a900460ff161515141515610f9057600080fd5b8c610fbc600254610fae6000546003546124bc90919063ffffffff16565b6124bc90919063ffffffff16565b10158015610ff457508c610ff1600254610fe36000546003546124bc90919063ffffffff16565b61214d90919063ffffffff16565b11155b1561173c576060604051908101604052808f81526020018e815260200142815250600f60003373ffffffffffffffffffffffffffffffffffffffff1673ffffffffffffffffffffffffffffffffffffffff16815260200190815260200160002060008201518160000155602082015181600101556040820151816002015590505060143390806001815401808255809150509060018203906000526020600020016000909192909190916101000a81548173ffffffffffffffffffffffffffffffffffffffff021916908373ffffffffffffffffffffffffffffffffffffffff160217905550506001601260003373ffffffffffffffffffffffffffffffffffffffff1673ffffffffffffffffffffffffffffffffffffffff16815260200190815260200160002060006101000a81548160ff021916908315150217905550600096505b8a600081518110151561114757fe5b90602001906020020151506002871015611733578c8b600081518110151561116b57fe5b906020019060200201518860028110151561118257fe5b60200201511480156112405750600860008d898151811015156111a157fe5b9060200190602002015173ffffffffffffffffffffffffffffffffffffffff1673ffffffffffffffffffffffffffffffffffffffff16815260200190815260200160002054600c60008e8a8151811015156111f857fe5b9060200190602002015173ffffffffffffffffffffffffffffffffffffffff1673ffffffffffffffffffffffffffffffffffffffff1681526020019081526020016000205411155b801561141857506114178c8881518110151561125857fe5b906020019060200201516112d661129b8e600081518110151561127757fe5b906020019060200201518b60028110151561128e57fe5b60200201516001026124da565b6112d18f60008151811015156112ad57fe5b906020019060200201518c6002811015156112c457fe5b60200201516001026124da565b611cad565b6040516020018082805190602001908083835b60208310151561130e57805182526020820191506020810190506020830392506112e9565b6001836020036101000a0380198251168184511680821785525050505050509050019150506040516020818303038152906040526040518082805190602001908083835b6020831015156113775780518252602082019150602081019050602083039250611352565b6001836020036101000a03801982511681845116808217855250505050505090500191505060405180910390208c8a8151811015156113b257fe5b906020019060200201518c60008151811015156113cb57fe5b906020019060200201518b6002811015156113e257fe5b60200201518d60018151811015156113f657fe5b906020019060200201518c60028110151561140d57fe5b60200201516126d6565b5b15611726576114b08b600181518110151561142f57fe5b906020019060200201518860028110151561144657fe5b6020020151600c60008f8b81518110151561145d57fe5b9060200190602002015173ffffffffffffffffffffffffffffffffffffffff1673ffffffffffffffffffffffffffffffffffffffff168152602001908152602001600020546124bc90919063ffffffff16565b600c60008e8a8151811015156114c257fe5b9060200190602002015173ffffffffffffffffffffffffffffffffffffffff1673ffffffffffffffffffffffffffffffffffffffff16815260200190815260200160002081905550600b60008d8981518110151561151c57fe5b9060200190602002015173ffffffffffffffffffffffffffffffffffffffff1673ffffffffffffffffffffffffffffffffffffffff16815260200190815260200160002060009054906101000a900460ff1615156116665760016009600082825401925050819055506001600b60008e8a81518110151561159957fe5b9060200190602002015173ffffffffffffffffffffffffffffffffffffffff1673ffffffffffffffffffffffffffffffffffffffff16815260200190815260200160002060006101000a81548160ff0219169083151502179055508b8781518110151561160257fe5b90602001906020020151600a60095481548110151561161d57fe5b9060005260206000200160006101000a81548173ffffffffffffffffffffffffffffffffffffffff021916908373ffffffffffffffffffffffffffffffffffffffff1602179055505b6116e28b600181518110151561167857fe5b906020019060200201518860028110151561168f57fe5b6020020151601360003373ffffffffffffffffffffffffffffffffffffffff1673ffffffffffffffffffffffffffffffffffffffff168152602001908152602001600020546124bc90919063ffffffff16565b601360003373ffffffffffffffffffffffffffffffffffffffff1673ffffffffffffffffffffffffffffffffffffffff168152602001908152602001600020819055505b8680600101975050611138565b60019750611a56565b4261176860025461175a6000546003546124bc90919063ffffffff16565b6124bc90919063ffffffff16565b1015611a5557611776612762565b955085600481905550600094505b6014805490508510156118b3576014878154811015156117a057fe5b9060005260206000200160009054906101000a900473ffffffffffffffffffffffffffffffffffffffff169350600f60008573ffffffffffffffffffffffffffffffffffffffff1673ffffffffffffffffffffffffffffffffffffffff1681526020019081526020016000206000015492508583101561182257828603611826565b8583035b91506015829080600181540180825580915050906001820390600052602060002001600090919290919091505550836010600084815260200190815260200160002060006101000a81548173ffffffffffffffffffffffffffffffffffffffff021916908373ffffffffffffffffffffffffffffffffffffffff1602179055508480600101955050611784565b61190c601580548060200260200160405190810160405280929190818152602001828054801561190257602002820191906000526020600020905b8154815260200190600101908083116118ee575b5050505050611f3c565b90506119be6127106001546018540281151561192457fe5b04600660006010600086600081518110151561193c57fe5b90602001906020020151815260200190815260200160002060009054906101000a900473ffffffffffffffffffffffffffffffffffffffff1673ffffffffffffffffffffffffffffffffffffffff1673ffffffffffffffffffffffffffffffffffffffff168152602001908152602001600020546124bc90919063ffffffff16565b60066000601060008560008151811015156119d557fe5b90602001906020020151815260200190815260200160002060009054906101000a900473ffffffffffffffffffffffffffffffffffffffff1673ffffffffffffffffffffffffffffffffffffffff1673ffffffffffffffffffffffffffffffffffffffff16815260200190815260200160002081905550611a54610af0565b5b5b505050505050509695505050505050565b60086020528060005260406000206000915090505481565b600c6020528060005260406000206000915090505481565b60066020528060005260406000206000915090505481565b600f6020528060005260406000206000915090508060000154908060010154908060020154905083565b60055481565b60008060011515601160003373ffffffffffffffffffffffffffffffffffffffff1673ffffffffffffffffffffffffffffffffffffffff16815260200190815260200160002060009054906101000a900460ff161515141515611b4157600080fd5b8360058190555083600381905550600090505b8251811015611c67576001601160008584815181101515611b7157fe5b9060200190602002015173ffffffffffffffffffffffffffffffffffffffff1673ffffffffffffffffffffffffffffffffffffffff16815260200190815260200160002060006101000a81548160ff021916908315150217905550600e8382815181101515611bdc57fe5b9060200190602002015190806001815401808255809150509060018203906000526020600020016000909192909190916101000a81548173ffffffffffffffffffffffffffffffffffffffff021916908373ffffffffffffffffffffffffffffffffffffffff160217905550506001600d600082825401925050819055508080600101915050611b54565b7fbc20852d5f54c23d3800000c77c1a3369f5dd794fcb93c3d48122e148c67fad360055433604051611c9a9291906133ed565b60405180910390a1600191505092915050565b606080606080606060008088955087945084518651016040519080825280601f01601f191660200182016040528015611cf55781602001602082028038833980820191505090505b50935083925060009150600090505b8551811015611db7578581815181101515611d1b57fe5b9060200101517f010000000000000000000000000000000000000000000000000000000000000090047f0100000000000000000000000000000000000000000000000000000000000000028383806001019450815181101515611d7a57fe5b9060200101907effffffffffffffffffffffffffffffffffffffffffffffffffffffffffffff1916908160001a9053508080600101915050611d04565b600090505b8451811015611e6f578481815181101515611dd357fe5b9060200101517f010000000000000000000000000000000000000000000000000000000000000090047f0100000000000000000000000000000000000000000000000000000000000000028383806001019450815181101515611e3257fe5b9060200101907effffffffffffffffffffffffffffffffffffffffffffffffffffffffffffff1916908160001a9053508080600101915050611dbc565b82965050505050505092915050565b60178054600181600116156101000203166002900480601f016020809104026020016040519081016040528092919081815260200182805460018160011615610100020316600290048015611f145780601f10611ee957610100808354040283529160200191611f14565b820191906000526020600020905b815481529060010190602001808311611ef757829003601f168201915b505050505081565b60116020528060005260406000206000915054906101000a900460ff1681565b6060611f4e826000600185510361296c565b819050919050565b60015481565b6000339050600660008273ffffffffffffffffffffffffffffffffffffffff1673ffffffffffffffffffffffffffffffffffffffff168152602001908152602001600020548211151515611faf57600080fd5b81600660008373ffffffffffffffffffffffffffffffffffffffff1673ffffffffffffffffffffffffffffffffffffffff1681526020019081526020016000205403600660008373ffffffffffffffffffffffffffffffffffffffff1673ffffffffffffffffffffffffffffffffffffffff1681526020019081526020016000208190555081600860008373ffffffffffffffffffffffffffffffffffffffff1673ffffffffffffffffffffffffffffffffffffffff1681526020019081526020016000205401600860008373ffffffffffffffffffffffffffffffffffffffff1673ffffffffffffffffffffffffffffffffffffffff168152602001908152602001600020819055505050565b60006120ca338484612166565b905092915050565b60126020528060005260406000206000915054906101000a900460ff1681565b600d5481565b60136020528060005260406000206000915090505481565b6007602052816000526040600020602052806000526040600020600091509150505481565b60095481565b60035481565b60005481565b60025481565b600082821115151561215b57fe5b818303905092915050565b600080600073ffffffffffffffffffffffffffffffffffffffff168473ffffffffffffffffffffffffffffffffffffffff16141515156121a557600080fd5b82600660008773ffffffffffffffffffffffffffffffffffffffff1673ffffffffffffffffffffffffffffffffffffffff16815260200190815260200160002054101515156121f357600080fd5b612284600660008673ffffffffffffffffffffffffffffffffffffffff1673ffffffffffffffffffffffffffffffffffffffff16815260200190815260200160002054600660008873ffffffffffffffffffffffffffffffffffffffff1673ffffffffffffffffffffffffffffffffffffffff168152602001908152602001600020546124bc90919063ffffffff16565b90506122d883600660008873ffffffffffffffffffffffffffffffffffffffff1673ffffffffffffffffffffffffffffffffffffffff1681526020019081526020016000205461214d90919063ffffffff16565b600660008773ffffffffffffffffffffffffffffffffffffffff1673ffffffffffffffffffffffffffffffffffffffff1681526020019081526020016000208190555061236d83600660008773ffffffffffffffffffffffffffffffffffffffff1673ffffffffffffffffffffffffffffffffffffffff168152602001908152602001600020546124bc90919063ffffffff16565b600660008673ffffffffffffffffffffffffffffffffffffffff1673ffffffffffffffffffffffffffffffffffffffff1681526020019081526020016000208190555080612442600660008773ffffffffffffffffffffffffffffffffffffffff1673ffffffffffffffffffffffffffffffffffffffff16815260200190815260200160002054600660008973ffffffffffffffffffffffffffffffffffffffff1673ffffffffffffffffffffffffffffffffffffffff168152602001908152602001600020546124bc90919063ffffffff16565b14151561244b57fe5b8373ffffffffffffffffffffffffffffffffffffffff168573ffffffffffffffffffffffffffffffffffffffff167fddf252ad1be2c89b69c2b068fc378daa952ba7f163c4a11628f55a4df523b3ef856040516124a891906133d2565b60405180910390a360019150509392505050565b60008082840190508381101515156124d057fe5b8091505092915050565b6060806000806000606060206040519080825280601f01601f1916602001820160405280156125185781602001602082028038833980820191505090505b50945060009350600092505b60208310156125e2578260080260020a876001900402600102915060007f010000000000000000000000000000000000000000000000000000000000000002827effffffffffffffffffffffffffffffffffffffffffffffffffffffffffffff19161415156125d55781858581518110151561259c57fe5b9060200101907effffffffffffffffffffffffffffffffffffffffffffffffffffffffffffff1916908160001a90535083806001019450505b8280600101935050612524565b836040519080825280601f01601f1916602001820160405280156126155781602001602082028038833980820191505090505b509050600092505b838310156126c957848381518110151561263357fe5b9060200101517f010000000000000000000000000000000000000000000000000000000000000090047f010000000000000000000000000000000000000000000000000000000000000002818481518110151561268c57fe5b9060200101907effffffffffffffffffffffffffffffffffffffffffffffffffffffffffffff1916908160001a905350828060010193505061261d565b8095505050505050919050565b60008573ffffffffffffffffffffffffffffffffffffffff16600186868686604051600081526020016040526040516127129493929190613349565b60206040516020810390808403906000865af1158015612736573d6000803e3d6000fd5b5050506020604051035173ffffffffffffffffffffffffffffffffffffffff1614905095945050505050565b600080600080600080600080600080600080600054600354019a506000995060009850600097505b60148054905088101561294d576014888154811015156127a657fe5b9060005260206000200160009054906101000a900473ffffffffffffffffffffffffffffffffffffffff169650600f60008873ffffffffffffffffffffffffffffffffffffffff1673ffffffffffffffffffffffffffffffffffffffff168152602001908152602001600020600001549550600f60008873ffffffffffffffffffffffffffffffffffffffff1673ffffffffffffffffffffffffffffffffffffffff168152602001908152602001600020600201549450600860008873ffffffffffffffffffffffffffffffffffffffff1673ffffffffffffffffffffffffffffffffffffffff1681526020019081526020016000205493508a8510156128af57848b036128b3565b8a85035b925082612908601360008a73ffffffffffffffffffffffffffffffffffffffff1673ffffffffffffffffffffffffffffffffffffffff16815260200190815260200160002054866124bc90919063ffffffff16565b81151561291157fe5b0491506129298683028b6124bc90919063ffffffff16565b995061293e828a6124bc90919063ffffffff16565b9850878060010198505061278a565b888a81151561295857fe5b049050809b50505050505050505050505090565b60008060008492508391508183141561298457612ac4565b85600286860381151561299357fe5b0586018151811015156129a257fe5b9060200190602002015190505b8183131515612a9b575b8086848151811015156129c857fe5b9060200190602002015110156129e55782806001019350506129b9565b5b85828151811015156129f457fe5b90602001906020020151811015612a13578180600190039250506129e6565b8183131515612a96578582815181101515612a2a57fe5b906020019060200201518684815181101515612a4257fe5b906020019060200201518785815181101515612a5a57fe5b9060200190602002018885815181101515612a7157fe5b9060200190602002018281525082815250505082806001019350508180600190039250505b6129af565b81851215612aaf57612aae86868461296c565b5b83831215612ac357612ac286848661296c565b5b5b505050505050565b6000612ad88235613655565b905092915050565b600082601f8301121515612af357600080fd5b8135612b06612b0182613495565b613468565b91508181835260208401935060208101905083856020840282011115612b2b57600080fd5b60005b83811015612b5b5781612b418882612acc565b845260208401935060208301925050600181019050612b2e565b5050505092915050565b600082601f8301121515612b7857600080fd5b8135612b8b612b86826134bd565b613468565b91508181835260208401935060208101905083856040840282011115612bb057600080fd5b60005b83811015612be05781612bc68882612c6f565b845260208401935060408301925050600181019050612bb3565b5050505092915050565b600082601f8301121515612bfd57600080fd5b8135612c10612c0b826134e5565b613468565b91508181835260208401935060208101905083856040840282011115612c3557600080fd5b60005b83811015612c655781612c4b8882612ce5565b845260208401935060408301925050600181019050612c38565b5050505092915050565b600082601f8301121515612c8257600080fd5b6002612c95612c908261350d565b613468565b91508183856020840282011115612cab57600080fd5b60005b83811015612cdb5781612cc18882612e65565b845260208401935060208301925050600181019050612cae565b5050505092915050565b600082601f8301121515612cf857600080fd5b6002612d0b612d068261352f565b613468565b91508183856020840282011115612d2157600080fd5b60005b83811015612d515781612d378882612ecf565b845260208401935060208301925050600181019050612d24565b5050505092915050565b600082601f8301121515612d6e57600080fd5b8135612d81612d7c82613551565b613468565b91508181835260208401935060208101905083856020840282011115612da657600080fd5b60005b83811015612dd65781612dbc8882612ecf565b845260208401935060208301925050600181019050612da9565b5050505092915050565b600082601f8301121515612df357600080fd5b8135612e06612e0182613579565b613468565b91508181835260208401935060208101905083856020840282011115612e2b57600080fd5b60005b83811015612e5b5781612e418882612ee3565b845260208401935060208301925050600181019050612e2e565b5050505092915050565b6000612e718235613675565b905092915050565b600082601f8301121515612e8c57600080fd5b8135612e9f612e9a826135a1565b613468565b91508082526020830160208301858383011115612ebb57600080fd5b612ec6838284613696565b50505092915050565b6000612edb823561367f565b905092915050565b6000612eef8235613689565b905092915050565b600060208284031215612f0957600080fd5b6000612f1784828501612acc565b91505092915050565b60008060408385031215612f3357600080fd5b6000612f4185828601612acc565b9250506020612f5285828601612acc565b9150509250929050565b600080600060608486031215612f7157600080fd5b6000612f7f86828701612acc565b9350506020612f9086828701612acc565b9250506040612fa186828701612ecf565b9150509250925092565b60008060408385031215612fbe57600080fd5b6000612fcc85828601612acc565b9250506020612fdd85828601612ecf565b9150509250929050565b600060208284031215612ff957600080fd5b600082013567ffffffffffffffff81111561301357600080fd5b61301f84828501612d5b565b91505092915050565b6000806040838503121561303b57600080fd5b600083013567ffffffffffffffff81111561305557600080fd5b61306185828601612e79565b925050602083013567ffffffffffffffff81111561307e57600080fd5b61308a85828601612e79565b9150509250929050565b6000602082840312156130a657600080fd5b60006130b484828501612ecf565b91505092915050565b600080604083850312156130d057600080fd5b60006130de85828601612ecf565b925050602083013567ffffffffffffffff8111156130fb57600080fd5b61310785828601612ae0565b9150509250929050565b60008060008060008060c0878903121561312a57600080fd5b600061313889828a01612ecf565b965050602061314989828a01612ecf565b955050604087013567ffffffffffffffff81111561316657600080fd5b61317289828a01612ae0565b945050606087013567ffffffffffffffff81111561318f57600080fd5b61319b89828a01612bea565b935050608087013567ffffffffffffffff8111156131b857600080fd5b6131c489828a01612de0565b92505060a087013567ffffffffffffffff8111156131e157600080fd5b6131ed89828a01612b65565b9150509295509295509295565b61320381613608565b82525050565b6000613214826135da565b808452602084019350613226836135cd565b60005b828110156132585761323c8683516132ee565b613245826135fb565b9150602086019550600181019050613229565b50849250505092915050565b61326d81613628565b82525050565b61327c81613634565b82525050565b600061328d826135f0565b8084526132a18160208601602086016136a5565b6132aa816136d8565b602085010191505092915050565b60006132c3826135e5565b8084526132d78160208601602086016136a5565b6132e0816136d8565b602085010191505092915050565b6132f78161363e565b82525050565b61330681613648565b82525050565b600060208201905081810360008301526133268184613209565b905092915050565b60006020820190506133436000830184613264565b92915050565b600060808201905061335e6000830187613273565b61336b60208301866132fd565b6133786040830185613273565b6133856060830184613273565b95945050505050565b600060208201905081810360008301526133a881846132b8565b905092915050565b600060208201905081810360008301526133ca8184613282565b905092915050565b60006020820190506133e760008301846132ee565b92915050565b600060408201905061340260008301856132ee565b61340f60208301846131fa565b9392505050565b600060608201905061342b60008301866132ee565b61343860208301856132ee565b61344560408301846132ee565b949350505050565b600060208201905061346260008301846132fd565b92915050565b6000604051905081810181811067ffffffffffffffff8211171561348b57600080fd5b8060405250919050565b600067ffffffffffffffff8211156134ac57600080fd5b602082029050602081019050919050565b600067ffffffffffffffff8211156134d457600080fd5b602082029050602081019050919050565b600067ffffffffffffffff8211156134fc57600080fd5b602082029050602081019050919050565b600067ffffffffffffffff82111561352457600080fd5b602082029050919050565b600067ffffffffffffffff82111561354657600080fd5b602082029050919050565b600067ffffffffffffffff82111561356857600080fd5b602082029050602081019050919050565b600067ffffffffffffffff82111561359057600080fd5b602082029050602081019050919050565b600067ffffffffffffffff8211156135b857600080fd5b601f19601f8301169050602081019050919050565b6000602082019050919050565b600081519050919050565b600081519050919050565b600081519050919050565b6000602082019050919050565b600073ffffffffffffffffffffffffffffffffffffffff82169050919050565b60008115159050919050565b6000819050919050565b6000819050919050565b600060ff82169050919050565b600073ffffffffffffffffffffffffffffffffffffffff82169050919050565b6000819050919050565b6000819050919050565b600060ff82169050919050565b82818337600083830152505050565b60005b838110156136c35780820151818401526020810190506136a8565b838111156136d2576000848401525b50505050565b6000601f19601f83011690509190505600a265627a7a72305820da01bf02386779718d884a7dd8814f06bcc1a183fc97b83052dacb1c1aedbc636c6578706572696d656e74616cf50037",
  "source": "pragma solidity ^0.4.24;\npragma experimental ABIEncoderV2;\nimport { SafeMath } from \"./common/SafeMath.sol\";\n\n/// @title Oracle\n/// @author \ncontract Oracle {\n\tusing SafeMath for uint;\n\n\t/*\n     * Storage\n     */\n\tstruct Price {\n\t\tuint priceInWei;\n\t\tuint timeInSecond;\n\t\tuint blockTime;\n\t}\n\n\tstruct DelegateStake{\n\t\taddress addr;\n\t\tuint timeInSecond;\n\t\tuint stakes;\n\t\tuint8 v;\n\t\tbytes32 r;\n\t\tbytes32 s;\n\t}\n\tuint public period;\n\tuint public mingRatio = 1;\n\tuint public openWindowTimeInSecond;\n\tuint public lastPriceTimeInSecond;\n\tuint public lastPrice;\n\tuint public inceptionTimeInSecond;\n\t\n\tmapping(address => uint) public balanceOf;\n\tmapping (address => mapping (address => uint)) public allowance;\n\tmapping (address => uint) public totalStakedAmt; // for every one\n\n\n\tuint public totalVotersForCurrentRound;\n\taddress[] votersInCurrentRound;\n\tmapping(address => bool) hasVotedInCurrentRound;\n\tmapping(address => uint) public votesForCurrentRound; //voter => votes\n\n\tuint public totalFeeders;\n\taddress[] feederLists;\n\tmapping (address => Price) public committedPrice;\n\tmapping(uint => address) deltaPriceToAddr;\n\tmapping (address => bool) public isWhiteListFeeders;\n\tmapping(address => bool) public hasCommitted;\n\tmapping(address => uint) public receivedVotes; //committer => votesReciverd\n\taddress[] addressCommitted;\n\tuint[] addressDelta;\n\n\tuint constant WEI_DEOMINATOR = 1000000000000000000;\n\tuint constant BP_DENOMINATOR = 10000;\n\n\tstring public name;\n\tstring public symbol;\n\tuint public totalSupply;\n\tuint8 public decimals = 18;\n\n\n\n\t/*\n     * Modifier\n     */\n\tmodifier isPriceFeed() {\n\t\trequire(isWhiteListFeeders[msg.sender] == true);\n\t\t_;\n\t}\n\n\t/*\n     * Events\n     */\n\tevent Transfer(address indexed from, address indexed to, uint value);\n\tevent Approval(address indexed tokenOwner, address indexed spender, uint tokens);\n\tevent CommitPrice(uint indexed priceInWei, uint indexed timeInSecond, address sender);\n\tevent Inception(uint inceptionTime, address startAddr);\n\n\t/*\n     * Constructor\n     */\n\tconstructor(\n\t\tuint pd,\n\t\tuint openWindow,\n\t\tstring memory tokenName,\n\t\tstring memory tokenSymbol,\n\t\tuint totalSupplyInWei\n\t\t) \n\t\tpublic\n\t{\n\t\tperiod = pd;\n\t\topenWindowTimeInSecond = openWindow;\n\t\tisWhiteListFeeders[msg.sender] = true;\n\t\tname = tokenName;\t\t\t\t\t\t\t\t   // Set the name for display purposes\n\t\tsymbol = tokenSymbol;\t\t\t\t\t\t\t   // Set the symbol for display purposes\n\t\ttotalSupply = totalSupplyInWei;\n\t\tbalanceOf[msg.sender] = totalSupplyInWei;\n\t}\n\n\t/*\n     * Public Functions\n     */\n\tfunction startOracle(\n\t\tuint startTime,\n\t\taddress[] memory whiteList\n\t)\n\t\tpublic \n\t\tisPriceFeed() \n\t\treturns (bool success) \n\t{\n\t\tinceptionTimeInSecond = startTime;\n\t\tlastPriceTimeInSecond = startTime;\n\t\tfor(uint i = 0;  i < whiteList.length; i++ ) {\n\t\t\tisWhiteListFeeders[whiteList[i]] = true;\n\t\t\tfeederLists.push(whiteList[i]);\n\t\t\ttotalFeeders +=1;\n\t\t}\n\t\temit Inception(inceptionTimeInSecond, msg.sender);\n\t\treturn true;\n\t}\n\n\tfunction verify(address addr, bytes32 hash, uint8 v, bytes32 r, bytes32 s) internal pure returns(bool) {\n        return ecrecover(hash, v, r, s) == addr;\n    }\n\n\tfunction stake(uint amtInWei) public {\n\t\taddress sender = msg.sender;\n\t\trequire(amtInWei <= balanceOf[sender]);\n\t\t\n\t\tbalanceOf[sender] = balanceOf[sender] - amtInWei;\n\t\ttotalStakedAmt[sender] = totalStakedAmt[sender] + amtInWei;\n\t}\n\n\tfunction unStake(uint amtInWei) public {\n\t\taddress sender = msg.sender;\n\t\trequire(amtInWei <= totalStakedAmt[sender]);\n\t\tbalanceOf[sender] = balanceOf[sender] + amtInWei;\n\t\ttotalStakedAmt[sender] = totalStakedAmt[sender] - amtInWei;\n\t}\n\n// start of oracle\n\tfunction commitPrice(uint priceInWei, uint timeInSecond, address[] addrs, uint[2][] timeStakeOfVoters, uint8[] vList, bytes32[2][] rsList) \n\t\tpublic \n\t\tisPriceFeed()\n\t\treturns (bool success)\n\t{\t\n\t\t// address sender = msg.sender;\n\t\t// uint blkTime = block.timestamp;\n\t\tif(\n\t\t\tlastPriceTimeInSecond.add(period).add(openWindowTimeInSecond) >= timeInSecond\n\t\t\t&& lastPriceTimeInSecond.add(period).sub(openWindowTimeInSecond) <= timeInSecond\n\t\t)\n\t\t{\n\t\t\tcommittedPrice[msg.sender] = Price( priceInWei,timeInSecond,block.timestamp);\n\t\t\taddressCommitted.push(msg.sender);\n\t\t\thasCommitted[msg.sender] = true;\n\n\t\t\tfor(uint i = 0; i<timeStakeOfVoters[0].length; i++){\n\t\t\t\t// DelegateStake memory stake = delegatedStakes[i];\n\n\t\t\t\tif(\n\t\t\t\t\ttimeStakeOfVoters[0][i]== timeInSecond &&\n\t\t\t\t\tvotesForCurrentRound[addrs[i]] <= totalStakedAmt[addrs[i]] &&\n\t\t\t\t\tverify(\n\t\t\t\t\t\taddrs[i], \n\t\t\t\t\t\tkeccak256(abi.encodePacked( \n\t\t\t\t\t\t\tconcat(\n\t\t\t\t\t\t\t\tbytes32ToString(bytes32(timeStakeOfVoters[0][i])),\n\t\t\t\t\t\t\t\tbytes32ToString(bytes32(timeStakeOfVoters[0][i]))\n\t\t\t\t\t\t\t)\n\t\t\t\t\t\t)),\n\t\t\t\t\t\tvList[i],\n\t\t\t\t\t\trsList[0][i],\n\t\t\t\t\t\trsList[1][i]\n\t\t\t\t\t)\n\t\t\t\t){\n\t\t\t\t\tvotesForCurrentRound[addrs[i]] = votesForCurrentRound[addrs[i]].add(timeStakeOfVoters[1][i]);\n\t\t\t\t\tif(!hasVotedInCurrentRound[addrs[i]]) {\n\t\t\t\t\t\ttotalVotersForCurrentRound+=1;\n\t\t\t\t\t\thasVotedInCurrentRound[addrs[i]] = true;\n\t\t\t\t\t\tvotersInCurrentRound[totalVotersForCurrentRound] = addrs[i];\n\t\t\t\t\t}\n\t\t\t\t\t\n\t\t\t\t\treceivedVotes[msg.sender] = receivedVotes[msg.sender].add(timeStakeOfVoters[1][i]);\n\t\t\t\t}\n\t\t\t}\n\n\t\t\treturn true;\t\n\t\t} else if (lastPriceTimeInSecond.add(period).add(openWindowTimeInSecond) < block.timestamp ){\n\t\t\t// round end, settle\n\t\t\t\n\t\t\tuint finalPriceInWei = calcFinalPrice();\n\t\t\tlastPrice = finalPriceInWei;\n\t\t\t// uint size = addressCommitted.length;\n\t\t\t\n\t\t\t// uint[] storage prices = [];\n\t\t\tfor(uint j = 0;j <addressCommitted.length; j++){\n\t\t\t\taddress addr = addressCommitted[i];\n\t\t\t\tuint price = committedPrice[addr].priceInWei;\n\t\t\t\tuint delta = (price >= finalPriceInWei)? (price - finalPriceInWei): (finalPriceInWei - price);\n\t\t\t\taddressDelta.push(delta);\n\t\t\t\tdeltaPriceToAddr[delta] = addr;\n\t\t\t}\n\n\t\t\tuint[] memory sortedDeltaArray = sort(addressDelta);\n\t\t\tbalanceOf[deltaPriceToAddr[sortedDeltaArray[0]]] = \n\t\t\t\tbalanceOf[deltaPriceToAddr[sortedDeltaArray[0]]]\n\t\t\t\t.add(totalSupply * mingRatio / BP_DENOMINATOR);\n\n\t\t\t\n\t\t\tstartNextRound();\n\n\t\t}\n\t}\n\n\tfunction startNextRound() {\n\t\tlastPriceTimeInSecond = lastPriceTimeInSecond.add(period);\n\n\t\tfor(uint i = 0;i <totalVotersForCurrentRound; i ++) {\n\t\t\thasVotedInCurrentRound[votersInCurrentRound[i]] = false;\n\t\t\tvotesForCurrentRound[votersInCurrentRound[i]] = 0;\n\t\t\tvotersInCurrentRound[i]=address(0);\n\t\t}\n\n\t\tfor(uint j = 0; j< totalFeeders; j++){\n\t\t\thasCommitted[feederLists[j]] = false;\n\t\t\treceivedVotes[feederLists[j]] = 0;\n\n\n\t\t}\n\t}\n\n\tfunction calcFinalPrice() view internal returns (uint)  {\n\t\tuint currentTime = lastPriceTimeInSecond + period;\n\t\tuint weightedPricesSum = 0;\n\t\tuint weightsSum = 0;\n\t\t// mapping(address => uint) deltaT;\n\t\tfor(uint i = 0; i<addressCommitted.length; i++)\n\t\t{\n\t\t\taddress addr = addressCommitted[i];\n\t\t\tuint priceInWei = committedPrice[addr].priceInWei;\n\t\t\tuint blockTime = committedPrice[addr].blockTime;\n\t\t\tuint stakeAmt = totalStakedAmt[addr];\n\t\t\tuint deltaTime = (blockTime >= currentTime)? (blockTime - currentTime): (currentTime - blockTime);\n\t\t\tuint weight = stakeAmt.add(receivedVotes[addr])/deltaTime; //wanghe need to convert to wei?\n\t\t\tweightedPricesSum = weightedPricesSum.add(weight * priceInWei);\n\t\t\tweightsSum = weightsSum.add(weight);\n\t\t}\n\n\t\tuint finalPrice = weightedPricesSum / weightsSum; // wanghe need to convert to wei?\n\t\treturn finalPrice;\n\t}\n\n\n\tfunction bytes32ToString(bytes32 x) internal pure returns (string) {\n\t\tbytes memory bytesString = new bytes(32);\n\t\tuint charCount = 0;\n\t\tfor (uint j = 0; j < 32; j++) {\n\t\t\tbyte char = byte(bytes32(uint(x) * 2 ** (8 * j)));\n\t\t\tif (char != 0) {\n\t\t\t\tbytesString[charCount] = char;\n\t\t\t\tcharCount++;\n\t\t\t}\n\t\t}\n\t\tbytes memory bytesStringTrimmed = new bytes(charCount);\n\t\tfor (j = 0; j < charCount; j++) {\n\t\t\tbytesStringTrimmed[j] = bytesString[j];\n\t\t}\n\t\treturn string(bytesStringTrimmed);\n\t}\n\n\t\n\t// end of oracle\n\n\tfunction concat(string memory _a, string memory  _b) public pure returns (string){\n        bytes memory bytes_a = bytes(_a);\n        bytes memory bytes_b = bytes(_b);\n        string memory length_ab = new string(bytes_a.length + bytes_b.length);\n        bytes memory bytes_c = bytes(length_ab);\n        uint k = 0;\n        for (uint i = 0; i < bytes_a.length; i++) bytes_c[k++] = bytes_a[i];\n        for (i = 0; i < bytes_b.length; i++) bytes_c[k++] = bytes_b[i];\n        return string(bytes_c);\n    }\n\n\tfunction sort(uint[] data) public returns(uint[]) {\n       quickSort(data, int(0), int(data.length - 1));\n       return data;\n    }\n    \n    function quickSort(uint[] memory arr, int left, int right) internal{\n        int i = left;\n        int j = right;\n        if(i==j) return;\n        uint pivot = arr[uint(left + (right - left) / 2)];\n        while (i <= j) {\n            while (arr[uint(i)] < pivot) i++;\n            while (pivot < arr[uint(j)]) j--;\n            if (i <= j) {\n                (arr[uint(i)], arr[uint(j)]) = (arr[uint(j)], arr[uint(i)]);\n                i++;\n                j--;\n            }\n        }\n        if (left < j)\n            quickSort(arr, left, j);\n        if (i < right)\n            quickSort(arr, i, right);\n    }\n\n\t/*\n     * ERC token functions\n     */\n\t/// @dev transferInternal function.\n\t/// @param from  from address\n\t/// @param to   to address\n\t/// @param tokens num of tokens transferred\n\tfunction transferInternal(address from, address to, uint tokens) \n\t\tinternal \n\t\treturns (bool success) \n\t{\n\t\t// Prevent transfer to 0x0 address. Use burn() instead\n\t\trequire(to != address(0));\n\t\t// Check if the sender has enough\n\t\trequire(balanceOf[from] >= tokens);\n\t\t// Save this for an assertion in the future\n\t\tuint previousBalances = balanceOf[from].add(balanceOf[to]);\n\t\t// Subtract from the sender\n\t\tbalanceOf[from] = balanceOf[from].sub(tokens);\n\t\t// Add the same to the recipient\n\t\tbalanceOf[to] = balanceOf[to].add(tokens);\n\t\t// Asserts are used to use static analysis to find bugs in your code. They should never fail\n\t\tassert(balanceOf[from].add(balanceOf[to]) == previousBalances);\n\t\temit Transfer(from, to, tokens);\n\t\treturn true;\n\t}\n\n\tfunction transfer(address to, uint tokens)\n\t\tpublic\n\t\treturns (bool success) \n\t{\n\t\treturn transferInternal( msg.sender, to, tokens);\n\t}\n\n\tfunction transferFrom( address from, address to, uint tokens) \n\t\tpublic \n\t\treturns (bool success) \n\t{\n\t\taddress spenderToUse = msg.sender;\n\t\trequire(tokens <= allowance[from][spenderToUse]);\t // Check allowance\n\t\tallowance[from][spenderToUse] = allowance[from][spenderToUse].sub(tokens);\n\t\treturn transferInternal( from, to, tokens);\n\t}\n\n\tfunction approve( address spender, uint tokens) \n\t\tpublic \n\t\treturns (bool success) \n\t{\n\t\taddress senderToUse = msg.sender;\n\t\tallowance[senderToUse][spender] = tokens;\n\t\temit Approval(senderToUse, spender, tokens);\n\t\treturn true;\n\t}\n\n}\n",
  "sourcePath": "C:/Users/WeitaoYang/Downloads/dev/posOracle/contracts/Oracle.sol",
  "compiler": {
    "name": "solc",
    "version": "0.4.24+commit.e67f0147.Emscripten.clang"
  },
  "schemaVersion": "3.0.0-beta.0",
  "updatedAt": "2018-12-08T23:19:09.064Z"
}