{
  "contractName": "Oracle",
  "abi": [
    {
      "constant": true,
      "inputs": [],
      "name": "name",
      "outputs": [
        {
          "name": "",
          "type": "string"
        }
      ],
      "payable": false,
      "stateMutability": "view",
      "type": "function",
      "signature": "0x06fdde03"
    },
    {
      "constant": true,
      "inputs": [],
      "name": "totalSupply",
      "outputs": [
        {
          "name": "",
          "type": "uint256"
        }
      ],
      "payable": false,
      "stateMutability": "view",
      "type": "function",
      "signature": "0x18160ddd"
    },
    {
      "constant": true,
      "inputs": [],
      "name": "decimals",
      "outputs": [
        {
          "name": "",
          "type": "uint8"
        }
      ],
      "payable": false,
      "stateMutability": "view",
      "type": "function",
      "signature": "0x313ce567"
    },
    {
      "constant": true,
      "inputs": [
        {
          "name": "",
          "type": "address"
        }
      ],
      "name": "totalStakedAmt",
      "outputs": [
        {
          "name": "",
          "type": "uint256"
        }
      ],
      "payable": false,
      "stateMutability": "view",
      "type": "function",
      "signature": "0x645bd810"
    },
    {
      "constant": true,
      "inputs": [
        {
          "name": "",
          "type": "address"
        }
      ],
      "name": "votesForCurrentRound",
      "outputs": [
        {
          "name": "",
          "type": "uint256"
        }
      ],
      "payable": false,
      "stateMutability": "view",
      "type": "function",
      "signature": "0x6bff5813"
    },
    {
      "constant": true,
      "inputs": [
        {
          "name": "",
          "type": "address"
        }
      ],
      "name": "balanceOf",
      "outputs": [
        {
          "name": "",
          "type": "uint256"
        }
      ],
      "payable": false,
      "stateMutability": "view",
      "type": "function",
      "signature": "0x70a08231"
    },
    {
      "constant": true,
      "inputs": [
        {
          "name": "",
          "type": "address"
        }
      ],
      "name": "committedPrice",
      "outputs": [
        {
          "name": "priceInWei",
          "type": "uint256"
        },
        {
          "name": "timeInSecond",
          "type": "uint256"
        },
        {
          "name": "blockTime",
          "type": "uint256"
        }
      ],
      "payable": false,
      "stateMutability": "view",
      "type": "function",
      "signature": "0x7df4f56b"
    },
    {
      "constant": true,
      "inputs": [],
      "name": "inceptionTimeInSecond",
      "outputs": [
        {
          "name": "",
          "type": "uint256"
        }
      ],
      "payable": false,
      "stateMutability": "view",
      "type": "function",
      "signature": "0x838e09d9"
    },
    {
      "constant": true,
      "inputs": [],
      "name": "symbol",
      "outputs": [
        {
          "name": "",
          "type": "string"
        }
      ],
      "payable": false,
      "stateMutability": "view",
      "type": "function",
      "signature": "0x95d89b41"
    },
    {
      "constant": true,
      "inputs": [
        {
          "name": "",
          "type": "address"
        }
      ],
      "name": "isWhiteListFeeders",
      "outputs": [
        {
          "name": "",
          "type": "bool"
        }
      ],
      "payable": false,
      "stateMutability": "view",
      "type": "function",
      "signature": "0x9981dbdc"
    },
    {
      "constant": true,
      "inputs": [],
      "name": "mingRatio",
      "outputs": [
        {
          "name": "",
          "type": "uint256"
        }
      ],
      "payable": false,
      "stateMutability": "view",
      "type": "function",
      "signature": "0xa4857f3d"
    },
    {
      "constant": true,
      "inputs": [
        {
          "name": "",
          "type": "address"
        }
      ],
      "name": "hasCommitted",
      "outputs": [
        {
          "name": "",
          "type": "bool"
        }
      ],
      "payable": false,
      "stateMutability": "view",
      "type": "function",
      "signature": "0xc6dbe15a"
    },
    {
      "constant": true,
      "inputs": [],
      "name": "totalFeeders",
      "outputs": [
        {
          "name": "",
          "type": "uint256"
        }
      ],
      "payable": false,
      "stateMutability": "view",
      "type": "function",
      "signature": "0xd3686dcf"
    },
    {
      "constant": true,
      "inputs": [
        {
          "name": "",
          "type": "address"
        }
      ],
      "name": "receivedVotes",
      "outputs": [
        {
          "name": "",
          "type": "uint256"
        }
      ],
      "payable": false,
      "stateMutability": "view",
      "type": "function",
      "signature": "0xd8ce95ab"
    },
    {
      "constant": true,
      "inputs": [
        {
          "name": "",
          "type": "address"
        },
        {
          "name": "",
          "type": "address"
        }
      ],
      "name": "allowance",
      "outputs": [
        {
          "name": "",
          "type": "uint256"
        }
      ],
      "payable": false,
      "stateMutability": "view",
      "type": "function",
      "signature": "0xdd62ed3e"
    },
    {
      "constant": true,
      "inputs": [],
      "name": "totalVotersForCurrentRound",
      "outputs": [
        {
          "name": "",
          "type": "uint256"
        }
      ],
      "payable": false,
      "stateMutability": "view",
      "type": "function",
      "signature": "0xe814e7f5"
    },
    {
      "constant": true,
      "inputs": [],
      "name": "lastPriceTimeInSecond",
      "outputs": [
        {
          "name": "",
          "type": "uint256"
        }
      ],
      "payable": false,
      "stateMutability": "view",
      "type": "function",
      "signature": "0xed9e4789"
    },
    {
      "constant": true,
      "inputs": [],
      "name": "period",
      "outputs": [
        {
          "name": "",
          "type": "uint256"
        }
      ],
      "payable": false,
      "stateMutability": "view",
      "type": "function",
      "signature": "0xef78d4fd"
    },
    {
      "constant": true,
      "inputs": [],
      "name": "openWindowTimeInSecond",
      "outputs": [
        {
          "name": "",
          "type": "uint256"
        }
      ],
      "payable": false,
      "stateMutability": "view",
      "type": "function",
      "signature": "0xf7732499"
    },
    {
      "inputs": [
        {
          "name": "pd",
          "type": "uint256"
        },
        {
          "name": "openWindow",
          "type": "uint256"
        },
        {
          "name": "tokenName",
          "type": "string"
        },
        {
          "name": "tokenSymbol",
          "type": "string"
        },
        {
          "name": "totalSupplyInWei",
          "type": "uint256"
        }
      ],
      "payable": false,
      "stateMutability": "nonpayable",
      "type": "constructor",
      "signature": "constructor"
    },
    {
      "anonymous": false,
      "inputs": [
        {
          "indexed": true,
          "name": "from",
          "type": "address"
        },
        {
          "indexed": true,
          "name": "to",
          "type": "address"
        },
        {
          "indexed": false,
          "name": "value",
          "type": "uint256"
        }
      ],
      "name": "Transfer",
      "type": "event",
      "signature": "0xddf252ad1be2c89b69c2b068fc378daa952ba7f163c4a11628f55a4df523b3ef"
    },
    {
      "anonymous": false,
      "inputs": [
        {
          "indexed": true,
          "name": "tokenOwner",
          "type": "address"
        },
        {
          "indexed": true,
          "name": "spender",
          "type": "address"
        },
        {
          "indexed": false,
          "name": "tokens",
          "type": "uint256"
        }
      ],
      "name": "Approval",
      "type": "event",
      "signature": "0x8c5be1e5ebec7d5bd14f71427d1e84f3dd0314c0f7b2291e5b200ac8c7c3b925"
    },
    {
      "anonymous": false,
      "inputs": [
        {
          "indexed": true,
          "name": "priceInWei",
          "type": "uint256"
        },
        {
          "indexed": true,
          "name": "timeInSecond",
          "type": "uint256"
        },
        {
          "indexed": false,
          "name": "sender",
          "type": "address"
        }
      ],
      "name": "CommitPrice",
      "type": "event",
      "signature": "0x2f4ba6f2db22a6371cf4a725ab5bcc8ff678b0b9071bbd043e04eac67e2c66ad"
    },
    {
      "anonymous": false,
      "inputs": [
        {
          "indexed": false,
          "name": "inceptionTime",
          "type": "uint256"
        },
        {
          "indexed": false,
          "name": "startAddr",
          "type": "address"
        }
      ],
      "name": "Inception",
      "type": "event",
      "signature": "0xbc20852d5f54c23d3800000c77c1a3369f5dd794fcb93c3d48122e148c67fad3"
    },
    {
      "anonymous": false,
      "inputs": [
        {
          "indexed": false,
          "name": "priceInSecond",
          "type": "uint256"
        },
        {
          "indexed": false,
          "name": "time",
          "type": "uint256"
        },
        {
          "indexed": false,
          "name": "winner",
          "type": "address"
        }
      ],
      "name": "FinalizedPrice",
      "type": "event",
      "signature": "0x1235e3f1e056a121ce07160d60e111799aa0d5039526a35a5719626baef4bbfe"
    },
    {
      "constant": false,
      "inputs": [
        {
          "name": "startTime",
          "type": "uint256"
        }
      ],
      "name": "startOracle",
      "outputs": [
        {
          "name": "success",
          "type": "bool"
        }
      ],
      "payable": false,
      "stateMutability": "nonpayable",
      "type": "function",
      "signature": "0xa99ae651"
    },
    {
      "constant": false,
      "inputs": [
        {
          "name": "addr",
          "type": "address"
        }
      ],
      "name": "addWhiteList",
      "outputs": [
        {
          "name": "",
          "type": "bool"
        }
      ],
      "payable": false,
      "stateMutability": "nonpayable",
      "type": "function",
      "signature": "0xe7cd4a04"
    },
    {
      "constant": false,
      "inputs": [
        {
          "name": "amtInWei",
          "type": "uint256"
        }
      ],
      "name": "stake",
      "outputs": [],
      "payable": false,
      "stateMutability": "nonpayable",
      "type": "function",
      "signature": "0xa694fc3a"
    },
    {
      "constant": false,
      "inputs": [
        {
          "name": "amtInWei",
          "type": "uint256"
        }
      ],
      "name": "unStake",
      "outputs": [],
      "payable": false,
      "stateMutability": "nonpayable",
      "type": "function",
      "signature": "0x5d3eea91"
    },
    {
      "constant": false,
      "inputs": [
        {
          "name": "priceInWei",
          "type": "uint256"
        },
        {
          "name": "timeInSecond",
          "type": "uint256"
        }
      ],
      "name": "commitPrice",
      "outputs": [
        {
          "name": "success",
          "type": "bool"
        }
      ],
      "payable": false,
      "stateMutability": "nonpayable",
      "type": "function",
      "signature": "0x03ee06f4"
    },
    {
      "constant": false,
      "inputs": [],
      "name": "startNextRound",
      "outputs": [],
      "payable": false,
      "stateMutability": "nonpayable",
      "type": "function",
      "signature": "0x3c3ccc44"
    },
    {
      "constant": true,
      "inputs": [
        {
          "name": "_a",
          "type": "string"
        },
        {
          "name": "_b",
          "type": "string"
        }
      ],
      "name": "concat",
      "outputs": [
        {
          "name": "",
          "type": "string"
        }
      ],
      "payable": false,
      "stateMutability": "pure",
      "type": "function",
      "signature": "0x89c19ddb"
    },
    {
      "constant": false,
      "inputs": [
        {
          "name": "data",
          "type": "uint256[]"
        }
      ],
      "name": "sort",
      "outputs": [
        {
          "name": "",
          "type": "uint256[]"
        }
      ],
      "payable": false,
      "stateMutability": "nonpayable",
      "type": "function",
      "signature": "0x9ec8b026"
    },
    {
      "constant": false,
      "inputs": [
        {
          "name": "to",
          "type": "address"
        },
        {
          "name": "tokens",
          "type": "uint256"
        }
      ],
      "name": "transfer",
      "outputs": [
        {
          "name": "success",
          "type": "bool"
        }
      ],
      "payable": false,
      "stateMutability": "nonpayable",
      "type": "function",
      "signature": "0xa9059cbb"
    },
    {
      "constant": false,
      "inputs": [
        {
          "name": "from",
          "type": "address"
        },
        {
          "name": "to",
          "type": "address"
        },
        {
          "name": "tokens",
          "type": "uint256"
        }
      ],
      "name": "transferFrom",
      "outputs": [
        {
          "name": "success",
          "type": "bool"
        }
      ],
      "payable": false,
      "stateMutability": "nonpayable",
      "type": "function",
      "signature": "0x23b872dd"
    },
    {
      "constant": false,
      "inputs": [
        {
          "name": "spender",
          "type": "address"
        },
        {
          "name": "tokens",
          "type": "uint256"
        }
      ],
      "name": "approve",
      "outputs": [
        {
          "name": "success",
          "type": "bool"
        }
      ],
      "payable": false,
      "stateMutability": "nonpayable",
      "type": "function",
      "signature": "0x095ea7b3"
    }
  ],
  "bytecode": "0x60806040526001805560006008556012601960006101000a81548160ff021916908360ff1602179055503480156200003657600080fd5b5060405162002dc838038062002dc883398101806040526200005c91908101906200026d565b84600081905550836002819055506001601160003373ffffffffffffffffffffffffffffffffffffffff1673ffffffffffffffffffffffffffffffffffffffff16815260200190815260200160002060006101000a81548160ff0219169083151502179055508260169080519060200190620000da9291906200014a565b508160179080519060200190620000f39291906200014a565b508060188190555080600560003373ffffffffffffffffffffffffffffffffffffffff1673ffffffffffffffffffffffffffffffffffffffff168152602001908152602001600020819055505050505050620003bc565b828054600181600116156101000203166002900490600052602060002090601f016020900481019282601f106200018d57805160ff1916838001178555620001be565b82800160010185558215620001be579182015b82811115620001bd578251825591602001919060010190620001a0565b5b509050620001cd9190620001d1565b5090565b620001f691905b80821115620001f2576000816000905550600101620001d8565b5090565b90565b600082601f83011215156200020d57600080fd5b8151620002246200021e826200034f565b62000321565b915080825260208301602083018583830111156200024157600080fd5b6200024e83828462000386565b50505092915050565b60006200026582516200037c565b905092915050565b600080600080600060a086880312156200028657600080fd5b6000620002968882890162000257565b9550506020620002a98882890162000257565b945050604086015167ffffffffffffffff811115620002c757600080fd5b620002d588828901620001f9565b935050606086015167ffffffffffffffff811115620002f357600080fd5b6200030188828901620001f9565b9250506080620003148882890162000257565b9150509295509295909350565b6000604051905081810181811067ffffffffffffffff821117156200034557600080fd5b8060405250919050565b600067ffffffffffffffff8211156200036757600080fd5b601f19601f8301169050602081019050919050565b6000819050919050565b60005b83811015620003a657808201518184015260208101905062000389565b83811115620003b6576000848401525b50505050565b6129fc80620003cc6000396000f300608060405260043610610180576000357c0100000000000000000000000000000000000000000000000000000000900463ffffffff16806303ee06f41461018557806306fdde03146101c2578063095ea7b3146101ed57806318160ddd1461022a57806323b872dd14610255578063313ce567146102925780633c3ccc44146102bd5780635d3eea91146102d4578063645bd810146102fd5780636bff58131461033a57806370a08231146103775780637df4f56b146103b4578063838e09d9146103f357806389c19ddb1461041e57806395d89b411461045b5780639981dbdc146104865780639ec8b026146104c3578063a4857f3d14610500578063a694fc3a1461052b578063a9059cbb14610554578063a99ae65114610591578063c6dbe15a146105ce578063d3686dcf1461060b578063d8ce95ab14610636578063dd62ed3e14610673578063e7cd4a04146106b0578063e814e7f5146106ed578063ed9e478914610718578063ef78d4fd14610743578063f77324991461076e575b600080fd5b34801561019157600080fd5b506101ac60048036036101a791908101906125b9565b610799565b6040516101b9919061271a565b60405180910390f35b3480156101ce57600080fd5b506101d7610d60565b6040516101e49190612735565b60405180910390f35b3480156101f957600080fd5b50610214600480360361020f91908101906124a7565b610dfe565b604051610221919061271a565b60405180910390f35b34801561023657600080fd5b5061023f610ef5565b60405161024c9190612779565b60405180910390f35b34801561026157600080fd5b5061027c60048036036102779190810190612458565b610efb565b604051610289919061271a565b60405180910390f35b34801561029e57600080fd5b506102a76110b0565b6040516102b4919061282b565b60405180910390f35b3480156102c957600080fd5b506102d26110c3565b005b3480156102e057600080fd5b506102fb60048036036102f69190810190612590565b611396565b005b34801561030957600080fd5b50610324600480360361031f91908101906123f3565b6114f7565b6040516103319190612779565b60405180910390f35b34801561034657600080fd5b50610361600480360361035c91908101906123f3565b61150f565b60405161036e9190612779565b60405180910390f35b34801561038357600080fd5b5061039e600480360361039991908101906123f3565b611527565b6040516103ab9190612779565b60405180910390f35b3480156103c057600080fd5b506103db60048036036103d691908101906123f3565b61153f565b6040516103ea939291906127f4565b60405180910390f35b3480156103ff57600080fd5b50610408611569565b6040516104159190612779565b60405180910390f35b34801561042a57600080fd5b5061044560048036036104409190810190612524565b61156f565b6040516104529190612757565b60405180910390f35b34801561046757600080fd5b50610470611740565b60405161047d9190612735565b60405180910390f35b34801561049257600080fd5b506104ad60048036036104a891908101906123f3565b6117de565b6040516104ba919061271a565b60405180910390f35b3480156104cf57600080fd5b506104ea60048036036104e591908101906124e3565b6117fe565b6040516104f791906126f8565b60405180910390f35b34801561050c57600080fd5b50610515611818565b6040516105229190612779565b60405180910390f35b34801561053757600080fd5b50610552600480360361054d9190810190612590565b61181e565b005b34801561056057600080fd5b5061057b600480360361057691908101906124a7565b61197f565b604051610588919061271a565b60405180910390f35b34801561059d57600080fd5b506105b860048036036105b39190810190612590565b611994565b6040516105c5919061271a565b60405180910390f35b3480156105da57600080fd5b506105f560048036036105f091908101906123f3565b611a47565b604051610602919061271a565b60405180910390f35b34801561061757600080fd5b50610620611a67565b60405161062d9190612779565b60405180910390f35b34801561064257600080fd5b5061065d600480360361065891908101906123f3565b611a6d565b60405161066a9190612779565b60405180910390f35b34801561067f57600080fd5b5061069a6004803603610695919081019061241c565b611a85565b6040516106a79190612779565b60405180910390f35b3480156106bc57600080fd5b506106d760048036036106d291908101906123f3565b611aaa565b6040516106e4919061271a565b60405180910390f35b3480156106f957600080fd5b50610702611be1565b60405161070f9190612779565b60405180910390f35b34801561072457600080fd5b5061072d611be7565b60405161073a9190612779565b60405180910390f35b34801561074f57600080fd5b50610758611bed565b6040516107659190612779565b60405180910390f35b34801561077a57600080fd5b50610783611bf3565b6040516107909190612779565b60405180910390f35b6000806000806000806000606060011515601160003373ffffffffffffffffffffffffffffffffffffffff1673ffffffffffffffffffffffffffffffffffffffff16815260200190815260200160002060009054906101000a900460ff16151514151561080557600080fd5b33965042610834600254610826600054600354611bf990919063ffffffff16565b611bf990919063ffffffff16565b1015801561086c57504261086960025461085b600054600354611bf990919063ffffffff16565b611c1790919063ffffffff16565b11155b156109b4576060604051908101604052808b81526020018a815260200142815250600f60008973ffffffffffffffffffffffffffffffffffffffff1673ffffffffffffffffffffffffffffffffffffffff16815260200190815260200160002060008201518160000155602082015181600101556040820151816002015590505060148790806001815401808255809150509060018203906000526020600020016000909192909190916101000a81548173ffffffffffffffffffffffffffffffffffffffff021916908373ffffffffffffffffffffffffffffffffffffffff160217905550506001601260008973ffffffffffffffffffffffffffffffffffffffff1673ffffffffffffffffffffffffffffffffffffffff16815260200190815260200160002060006101000a81548160ff02191690831515021790555060019750610d53565b426109e06002546109d2600054600354611bf990919063ffffffff16565b611bf990919063ffffffff16565b1015610d52576109ee611c30565b9550600094505b601480549050851015610b2457601485815481101515610a1157fe5b9060005260206000200160009054906101000a900473ffffffffffffffffffffffffffffffffffffffff169350600f60008573ffffffffffffffffffffffffffffffffffffffff1673ffffffffffffffffffffffffffffffffffffffff16815260200190815260200160002060000154925085831015610a9357828603610a97565b8583035b91506015829080600181540180825580915050906001820390600052602060002001600090919290919091505550836010600084815260200190815260200160002060006101000a81548173ffffffffffffffffffffffffffffffffffffffff021916908373ffffffffffffffffffffffffffffffffffffffff16021790555084806001019550506109f5565b610b7d6015805480602002602001604051908101604052809291908181526020018280548015610b7357602002820191906000526020600020905b815481526020019060010190808311610b5f575b50505050506117fe565b9050610c2f61271060015460185402811515610b9557fe5b046005600060106000866000815181101515610bad57fe5b90602001906020020151815260200190815260200160002060009054906101000a900473ffffffffffffffffffffffffffffffffffffffff1673ffffffffffffffffffffffffffffffffffffffff1673ffffffffffffffffffffffffffffffffffffffff16815260200190815260200160002054611bf990919063ffffffff16565b6005600060106000856000815181101515610c4657fe5b90602001906020020151815260200190815260200160002060009054906101000a900473ffffffffffffffffffffffffffffffffffffffff1673ffffffffffffffffffffffffffffffffffffffff1673ffffffffffffffffffffffffffffffffffffffff168152602001908152602001600020819055507f1235e3f1e056a121ce07160d60e111799aa0d5039526a35a5719626baef4bbfe866000546003540160106000856000815181101515610cf957fe5b90602001906020020151815260200190815260200160002060009054906101000a900473ffffffffffffffffffffffffffffffffffffffff16604051610d41939291906127bd565b60405180910390a1610d516110c3565b5b5b5050505050505092915050565b60168054600181600116156101000203166002900480601f016020809104026020016040519081016040528092919081815260200182805460018160011615610100020316600290048015610df65780601f10610dcb57610100808354040283529160200191610df6565b820191906000526020600020905b815481529060010190602001808311610dd957829003601f168201915b505050505081565b60008033905082600660008373ffffffffffffffffffffffffffffffffffffffff1673ffffffffffffffffffffffffffffffffffffffff16815260200190815260200160002060008673ffffffffffffffffffffffffffffffffffffffff1673ffffffffffffffffffffffffffffffffffffffff168152602001908152602001600020819055508373ffffffffffffffffffffffffffffffffffffffff168173ffffffffffffffffffffffffffffffffffffffff167f8c5be1e5ebec7d5bd14f71427d1e84f3dd0314c0f7b2291e5b200ac8c7c3b92585604051610ee29190612779565b60405180910390a3600191505092915050565b60185481565b600080339050600660008673ffffffffffffffffffffffffffffffffffffffff1673ffffffffffffffffffffffffffffffffffffffff16815260200190815260200160002060008273ffffffffffffffffffffffffffffffffffffffff1673ffffffffffffffffffffffffffffffffffffffff168152602001908152602001600020548311151515610f8c57600080fd5b61101b83600660008873ffffffffffffffffffffffffffffffffffffffff1673ffffffffffffffffffffffffffffffffffffffff16815260200190815260200160002060008473ffffffffffffffffffffffffffffffffffffffff1673ffffffffffffffffffffffffffffffffffffffff16815260200190815260200160002054611c1790919063ffffffff16565b600660008773ffffffffffffffffffffffffffffffffffffffff1673ffffffffffffffffffffffffffffffffffffffff16815260200190815260200160002060008373ffffffffffffffffffffffffffffffffffffffff1673ffffffffffffffffffffffffffffffffffffffff168152602001908152602001600020819055506110a6858585611e3a565b9150509392505050565b601960009054906101000a900460ff1681565b6000806110dd600054600354611bf990919063ffffffff16565b600381905550600091505b600954821015611267576000600b6000600a8581548110151561110757fe5b9060005260206000200160009054906101000a900473ffffffffffffffffffffffffffffffffffffffff1673ffffffffffffffffffffffffffffffffffffffff1673ffffffffffffffffffffffffffffffffffffffff16815260200190815260200160002060006101000a81548160ff0219169083151502179055506000600c6000600a8581548110151561119857fe5b9060005260206000200160009054906101000a900473ffffffffffffffffffffffffffffffffffffffff1673ffffffffffffffffffffffffffffffffffffffff1673ffffffffffffffffffffffffffffffffffffffff168152602001908152602001600020819055506000600a8381548110151561121257fe5b9060005260206000200160006101000a81548173ffffffffffffffffffffffffffffffffffffffff021916908373ffffffffffffffffffffffffffffffffffffffff16021790555081806001019250506110e8565b600090505b600d5481101561139257600060126000600e8481548110151561128b57fe5b9060005260206000200160009054906101000a900473ffffffffffffffffffffffffffffffffffffffff1673ffffffffffffffffffffffffffffffffffffffff1673ffffffffffffffffffffffffffffffffffffffff16815260200190815260200160002060006101000a81548160ff021916908315150217905550600060136000600e8481548110151561131c57fe5b9060005260206000200160009054906101000a900473ffffffffffffffffffffffffffffffffffffffff1673ffffffffffffffffffffffffffffffffffffffff1673ffffffffffffffffffffffffffffffffffffffff16815260200190815260200160002081905550808060010191505061126c565b5050565b6000339050600760008273ffffffffffffffffffffffffffffffffffffffff1673ffffffffffffffffffffffffffffffffffffffff1681526020019081526020016000205482111515156113e957600080fd5b81600560008373ffffffffffffffffffffffffffffffffffffffff1673ffffffffffffffffffffffffffffffffffffffff1681526020019081526020016000205401600560008373ffffffffffffffffffffffffffffffffffffffff1673ffffffffffffffffffffffffffffffffffffffff1681526020019081526020016000208190555081600760008373ffffffffffffffffffffffffffffffffffffffff1673ffffffffffffffffffffffffffffffffffffffff1681526020019081526020016000205403600760008373ffffffffffffffffffffffffffffffffffffffff1673ffffffffffffffffffffffffffffffffffffffff168152602001908152602001600020819055505050565b60076020528060005260406000206000915090505481565b600c6020528060005260406000206000915090505481565b60056020528060005260406000206000915090505481565b600f6020528060005260406000206000915090508060000154908060010154908060020154905083565b60045481565b606080606080606060008088955087945084518651016040519080825280601f01601f1916602001820160405280156115b75781602001602082028038833980820191505090505b50935083925060009150600090505b85518110156116795785818151811015156115dd57fe5b9060200101517f010000000000000000000000000000000000000000000000000000000000000090047f010000000000000000000000000000000000000000000000000000000000000002838380600101945081518110151561163c57fe5b9060200101907effffffffffffffffffffffffffffffffffffffffffffffffffffffffffffff1916908160001a90535080806001019150506115c6565b600090505b845181101561173157848181518110151561169557fe5b9060200101517f010000000000000000000000000000000000000000000000000000000000000090047f01000000000000000000000000000000000000000000000000000000000000000283838060010194508151811015156116f457fe5b9060200101907effffffffffffffffffffffffffffffffffffffffffffffffffffffffffffff1916908160001a905350808060010191505061167e565b82965050505050505092915050565b60178054600181600116156101000203166002900480601f0160208091040260200160405190810160405280929190818152602001828054600181600116156101000203166002900480156117d65780601f106117ab576101008083540402835291602001916117d6565b820191906000526020600020905b8154815290600101906020018083116117b957829003601f168201915b505050505081565b60116020528060005260406000206000915054906101000a900460ff1681565b60606118108260006001855103612190565b819050919050565b60015481565b6000339050600560008273ffffffffffffffffffffffffffffffffffffffff1673ffffffffffffffffffffffffffffffffffffffff16815260200190815260200160002054821115151561187157600080fd5b81600560008373ffffffffffffffffffffffffffffffffffffffff1673ffffffffffffffffffffffffffffffffffffffff1681526020019081526020016000205403600560008373ffffffffffffffffffffffffffffffffffffffff1673ffffffffffffffffffffffffffffffffffffffff1681526020019081526020016000208190555081600760008373ffffffffffffffffffffffffffffffffffffffff1673ffffffffffffffffffffffffffffffffffffffff1681526020019081526020016000205401600760008373ffffffffffffffffffffffffffffffffffffffff1673ffffffffffffffffffffffffffffffffffffffff168152602001908152602001600020819055505050565b600061198c338484611e3a565b905092915050565b600060011515601160003373ffffffffffffffffffffffffffffffffffffffff1673ffffffffffffffffffffffffffffffffffffffff16815260200190815260200160002060009054906101000a900460ff1615151415156119f557600080fd5b81600481905550816003819055507fbc20852d5f54c23d3800000c77c1a3369f5dd794fcb93c3d48122e148c67fad360045433604051611a36929190612794565b60405180910390a160019050919050565b60126020528060005260406000206000915054906101000a900460ff1681565b600d5481565b60136020528060005260406000206000915090505481565b6006602052816000526040600020602052806000526040600020600091509150505481565b6000601160008373ffffffffffffffffffffffffffffffffffffffff1673ffffffffffffffffffffffffffffffffffffffff16815260200190815260200160002060009054906101000a900460ff161515611bd7576001601160008473ffffffffffffffffffffffffffffffffffffffff1673ffffffffffffffffffffffffffffffffffffffff16815260200190815260200160002060006101000a81548160ff021916908315150217905550600e8290806001815401808255809150509060018203906000526020600020016000909192909190916101000a81548173ffffffffffffffffffffffffffffffffffffffff021916908373ffffffffffffffffffffffffffffffffffffffff160217905550506001600d6000828254019250508190555060019050611bdc565b600090505b919050565b60095481565b60035481565b60005481565b60025481565b6000808284019050838110151515611c0d57fe5b8091505092915050565b6000828211151515611c2557fe5b818303905092915050565b600080600080600080600080600080600080600054600354019a506000995060009850600097505b601480549050881015611e1b57601488815481101515611c7457fe5b9060005260206000200160009054906101000a900473ffffffffffffffffffffffffffffffffffffffff169650600f60008873ffffffffffffffffffffffffffffffffffffffff1673ffffffffffffffffffffffffffffffffffffffff168152602001908152602001600020600001549550600f60008873ffffffffffffffffffffffffffffffffffffffff1673ffffffffffffffffffffffffffffffffffffffff168152602001908152602001600020600201549450600760008873ffffffffffffffffffffffffffffffffffffffff1673ffffffffffffffffffffffffffffffffffffffff1681526020019081526020016000205493508a851015611d7d57848b03611d81565b8a85035b925082611dd6601360008a73ffffffffffffffffffffffffffffffffffffffff1673ffffffffffffffffffffffffffffffffffffffff1681526020019081526020016000205486611bf990919063ffffffff16565b811515611ddf57fe5b049150611df78683028b611bf990919063ffffffff16565b9950611e0c828a611bf990919063ffffffff16565b98508780600101985050611c58565b888a811515611e2657fe5b049050809b50505050505050505050505090565b600080600073ffffffffffffffffffffffffffffffffffffffff168473ffffffffffffffffffffffffffffffffffffffff1614151515611e7957600080fd5b82600560008773ffffffffffffffffffffffffffffffffffffffff1673ffffffffffffffffffffffffffffffffffffffff1681526020019081526020016000205410151515611ec757600080fd5b611f58600560008673ffffffffffffffffffffffffffffffffffffffff1673ffffffffffffffffffffffffffffffffffffffff16815260200190815260200160002054600560008873ffffffffffffffffffffffffffffffffffffffff1673ffffffffffffffffffffffffffffffffffffffff16815260200190815260200160002054611bf990919063ffffffff16565b9050611fac83600560008873ffffffffffffffffffffffffffffffffffffffff1673ffffffffffffffffffffffffffffffffffffffff16815260200190815260200160002054611c1790919063ffffffff16565b600560008773ffffffffffffffffffffffffffffffffffffffff1673ffffffffffffffffffffffffffffffffffffffff1681526020019081526020016000208190555061204183600560008773ffffffffffffffffffffffffffffffffffffffff1673ffffffffffffffffffffffffffffffffffffffff16815260200190815260200160002054611bf990919063ffffffff16565b600560008673ffffffffffffffffffffffffffffffffffffffff1673ffffffffffffffffffffffffffffffffffffffff1681526020019081526020016000208190555080612116600560008773ffffffffffffffffffffffffffffffffffffffff1673ffffffffffffffffffffffffffffffffffffffff16815260200190815260200160002054600560008973ffffffffffffffffffffffffffffffffffffffff1673ffffffffffffffffffffffffffffffffffffffff16815260200190815260200160002054611bf990919063ffffffff16565b14151561211f57fe5b8373ffffffffffffffffffffffffffffffffffffffff168573ffffffffffffffffffffffffffffffffffffffff167fddf252ad1be2c89b69c2b068fc378daa952ba7f163c4a11628f55a4df523b3ef8560405161217c9190612779565b60405180910390a360019150509392505050565b6000806000849250839150818314156121a8576122e8565b8560028686038115156121b757fe5b0586018151811015156121c657fe5b9060200190602002015190505b81831315156122bf575b8086848151811015156121ec57fe5b9060200190602002015110156122095782806001019350506121dd565b5b858281518110151561221857fe5b906020019060200201518110156122375781806001900392505061220a565b81831315156122ba57858281518110151561224e57fe5b90602001906020020151868481518110151561226657fe5b90602001906020020151878581518110151561227e57fe5b906020019060200201888581518110151561229557fe5b9060200190602002018281525082815250505082806001019350508180600190039250505b6121d3565b818512156122d3576122d2868684612190565b5b838312156122e7576122e6868486612190565b5b5b505050505050565b60006122fc8235612945565b905092915050565b600082601f830112151561231757600080fd5b813561232a61232582612873565b612846565b9150818183526020840193506020810190508385602084028201111561234f57600080fd5b60005b8381101561237f578161236588826123df565b845260208401935060208301925050600181019050612352565b5050505092915050565b600082601f830112151561239c57600080fd5b81356123af6123aa8261289b565b612846565b915080825260208301602083018583830111156123cb57600080fd5b6123d683828461296f565b50505092915050565b60006123eb8235612965565b905092915050565b60006020828403121561240557600080fd5b6000612413848285016122f0565b91505092915050565b6000806040838503121561242f57600080fd5b600061243d858286016122f0565b925050602061244e858286016122f0565b9150509250929050565b60008060006060848603121561246d57600080fd5b600061247b868287016122f0565b935050602061248c868287016122f0565b925050604061249d868287016123df565b9150509250925092565b600080604083850312156124ba57600080fd5b60006124c8858286016122f0565b92505060206124d9858286016123df565b9150509250929050565b6000602082840312156124f557600080fd5b600082013567ffffffffffffffff81111561250f57600080fd5b61251b84828501612304565b91505092915050565b6000806040838503121561253757600080fd5b600083013567ffffffffffffffff81111561255157600080fd5b61255d85828601612389565b925050602083013567ffffffffffffffff81111561257a57600080fd5b61258685828601612389565b9150509250929050565b6000602082840312156125a257600080fd5b60006125b0848285016123df565b91505092915050565b600080604083850312156125cc57600080fd5b60006125da858286016123df565b92505060206125eb858286016123df565b9150509250929050565b6125fe81612902565b82525050565b600061260f826128d4565b808452602084019350612621836128c7565b60005b82811015612653576126378683516126da565b612640826128f5565b9150602086019550600181019050612624565b50849250505092915050565b61266881612922565b82525050565b6000612679826128ea565b80845261268d81602086016020860161297e565b612696816129b1565b602085010191505092915050565b60006126af826128df565b8084526126c381602086016020860161297e565b6126cc816129b1565b602085010191505092915050565b6126e38161292e565b82525050565b6126f281612938565b82525050565b600060208201905081810360008301526127128184612604565b905092915050565b600060208201905061272f600083018461265f565b92915050565b6000602082019050818103600083015261274f81846126a4565b905092915050565b60006020820190508181036000830152612771818461266e565b905092915050565b600060208201905061278e60008301846126da565b92915050565b60006040820190506127a960008301856126da565b6127b660208301846125f5565b9392505050565b60006060820190506127d260008301866126da565b6127df60208301856126da565b6127ec60408301846125f5565b949350505050565b600060608201905061280960008301866126da565b61281660208301856126da565b61282360408301846126da565b949350505050565b600060208201905061284060008301846126e9565b92915050565b6000604051905081810181811067ffffffffffffffff8211171561286957600080fd5b8060405250919050565b600067ffffffffffffffff82111561288a57600080fd5b602082029050602081019050919050565b600067ffffffffffffffff8211156128b257600080fd5b601f19601f8301169050602081019050919050565b6000602082019050919050565b600081519050919050565b600081519050919050565b600081519050919050565b6000602082019050919050565b600073ffffffffffffffffffffffffffffffffffffffff82169050919050565b60008115159050919050565b6000819050919050565b600060ff82169050919050565b600073ffffffffffffffffffffffffffffffffffffffff82169050919050565b6000819050919050565b82818337600083830152505050565b60005b8381101561299c578082015181840152602081019050612981565b838111156129ab576000848401525b50505050565b6000601f19601f83011690509190505600a265627a7a723058208bb9718469742352bf5e2dd4f4f5ef99173120eb527c98f3f74e1cae83bb822d6c6578706572696d656e74616cf50037",
  "source": "pragma solidity ^0.4.24;\npragma experimental ABIEncoderV2;\nimport { SafeMath } from \"./common/SafeMath.sol\";\n\n/// @title Oracle\n/// @author \ncontract Oracle {\n\tusing SafeMath for uint;\n\n\t/*\n     * Storage\n     */\n\tstruct Price {\n\t\tuint priceInWei;\n\t\tuint timeInSecond;\n\t\tuint blockTime;\n\t}\n\n\tstruct DelegateStake{\n\t\taddress addr;\n\t\tuint timeInSecond;\n\t\tuint stakes;\n\t\tuint8 v;\n\t\tbytes32 r;\n\t\tbytes32 s;\n\t}\n\tuint public period;\n\tuint public mingRatio = 1;\n\tuint public openWindowTimeInSecond;\n\tuint public lastPriceTimeInSecond;\n\tuint public inceptionTimeInSecond;\n\t\n\tmapping(address => uint) public balanceOf;\n\tmapping(address => mapping (address => uint)) public allowance;\n\tmapping(address => uint) public totalStakedAmt; // for every one\n\tuint skipNum = 0;\n\n\n\tuint public totalVotersForCurrentRound;\n\taddress[] votersInCurrentRound;\n\tmapping(address => bool) hasVotedInCurrentRound;\n\tmapping(address => uint) public votesForCurrentRound; //voter => votes\n\n\tuint public totalFeeders;\n\taddress[] feederLists;\n\tmapping (address => Price) public committedPrice;\n\tmapping(uint => address) deltaPriceToAddr;\n\tmapping (address => bool) public isWhiteListFeeders;\n\tmapping(address => bool) public hasCommitted;\n\tmapping(address => uint) public receivedVotes; //committer => votesReciverd\n\taddress[] addressCommitted;\n\tuint[] addressDelta;\n\n\tuint constant WEI_DEOMINATOR = 1000000000000000000;\n\tuint constant BP_DENOMINATOR = 10000;\n\n\tstring public name;\n\tstring public symbol;\n\tuint public totalSupply;\n\tuint8 public decimals = 18;\n\n\n\n\t/*\n     * Modifier\n     */\n\tmodifier isPriceFeed() {\n\t\trequire(isWhiteListFeeders[msg.sender] == true);\n\t\t_;\n\t}\n\n\t/*\n     * Events\n     */\n\tevent Transfer(address indexed from, address indexed to, uint value);\n\tevent Approval(address indexed tokenOwner, address indexed spender, uint tokens);\n\tevent CommitPrice(uint indexed priceInWei, uint indexed timeInSecond, address sender);\n\tevent Inception(uint inceptionTime, address startAddr);\n\tevent FinalizedPrice(uint priceInSecond, uint time, address winner);\n\n\t/*\n     * Constructor\n     */\n\tconstructor(\n\t\tuint pd,\n\t\tuint openWindow,\n\t\tstring memory tokenName,\n\t\tstring memory tokenSymbol,\n\t\tuint totalSupplyInWei\n\t\t) \n\t\tpublic\n\t{\n\t\tperiod = pd;\n\t\topenWindowTimeInSecond = openWindow;\n\t\tisWhiteListFeeders[msg.sender] = true;\n\t\tname = tokenName;\t\t\t\t\t\t\t\t   // Set the name for display purposes\n\t\tsymbol = tokenSymbol;\t\t\t\t\t\t\t   // Set the symbol for display purposes\n\t\ttotalSupply = totalSupplyInWei;\n\t\tbalanceOf[msg.sender] = totalSupplyInWei;\n\t}\n\n\t/*\n     * Public Functions\n     */\n\tfunction startOracle(\n\t\tuint startTime\n\t)\n\t\tpublic \n\t\tisPriceFeed() \n\t\treturns (bool success) \n\t{\n\t\tinceptionTimeInSecond = startTime;\n\t\tlastPriceTimeInSecond = startTime;\n\t\temit Inception(inceptionTimeInSecond, msg.sender);\n\t\treturn true;\n\t}\n\n\tfunction addWhiteList(address addr) public returns(bool){\n\t\t// for(uint i = 0;  i < whiteList.length; i++ ) {\n\t\tif(!isWhiteListFeeders[addr]){\n\t\t\tisWhiteListFeeders[addr] = true;\n\t\t\tfeederLists.push(addr);\n\t\t\ttotalFeeders +=1;\n\t\t\treturn true;\n\t\t}\n\t\treturn false;\n\t}\n\n\tfunction stake(uint amtInWei) public {\n\t\taddress sender = msg.sender;\n\t\trequire(amtInWei <= balanceOf[sender]);\n\t\t\n\t\tbalanceOf[sender] = balanceOf[sender] - amtInWei;\n\t\ttotalStakedAmt[sender] = totalStakedAmt[sender] + amtInWei;\n\t}\n\n\tfunction unStake(uint amtInWei) public {\n\t\taddress sender = msg.sender;\n\t\trequire(amtInWei <= totalStakedAmt[sender]);\n\t\tbalanceOf[sender] = balanceOf[sender] + amtInWei;\n\t\ttotalStakedAmt[sender] = totalStakedAmt[sender] - amtInWei;\n\t}\n\n\tfunction verify(address addr, bytes32 hash, uint8 v, bytes32 r, bytes32 s) internal pure returns(bool) {\n        return ecrecover(hash, v, r, s) == addr;\n    }\n\n// start of oracle\n\tfunction commitPrice(\n\t\tuint priceInWei, \n\t\tuint timeInSecond\n\t\t// address addr,\n\t\t// uint stakes\n\t\t// uint8 v,\n\t\t// bytes32 r,\n\t\t// bytes32 s\n\t\n\t) \n\t\tpublic \n\t\tisPriceFeed()\n\t\treturns (bool success)\n\t{\t\n\t\taddress sender = msg.sender;\n\t\t// uint blkTime = block.timestamp;\n\n\t\tif(\n\t\t\tlastPriceTimeInSecond.add(period).add(openWindowTimeInSecond) >= block.timestamp \n\t\t\t&& lastPriceTimeInSecond.add(period).sub(openWindowTimeInSecond) <= block.timestamp\n\t\t)\n\t\t{\n\t\t\tcommittedPrice[sender] = Price( priceInWei, timeInSecond,block.timestamp);\n\t\t\taddressCommitted.push(sender);\n\t\t\thasCommitted[sender] = true;\n\n\t\t\t// for(uint i = 0; i<addrs.length; i++){\n\t\t\t\t// DelegateStake memory stake = delegatedStakes[i];\n\t\t\t\t// address addrs[i] = addrs[i];\n\t\t\t\t// uint stakess[i] = stakess[i];\n\t\t\t\t// uint8 v = vs[i];\n\t\t\t\t// bytes32 r =rs[i];\n\t\t\t\t// bytes32 s =ss[i];\n\t\t\t// if(\n\t\t\t// \tvotesForCurrentRound[addr] <= totalStakedAmt[addr] &&\n\t\t\t// \tverify(\n\t\t\t// \t\taddr, \n\t\t\t// \t\tkeccak256(abi.encodePacked( \n\t\t\t// \t\t\tconcat(\n\t\t\t// \t\t\t\tbytes32ToString(bytes32(timeInSecond)),\n\t\t\t// \t\t\t\tbytes32ToString(bytes32(stakes))\n\t\t\t// \t\t\t)\n\t\t\t// \t\t)),\n\t\t\t// \t\tv,\n\t\t\t// \t\tr,\n\t\t\t// \t\ts\t\t\t\t\n\t\t\t// \t)\n\t\t\t// ){\n\t\t\t// \tvotesForCurrentRound[addr] = votesForCurrentRound[addr].add(stakes);\n\t\t\t// \tif(!hasVotedInCurrentRound[addr]) {\n\t\t\t// \t\ttotalVotersForCurrentRound+=1;\n\t\t\t// \t\thasVotedInCurrentRound[addr] = true;\n\t\t\t// \t\tvotersInCurrentRound[totalVotersForCurrentRound] = addr;\n\t\t\t// \t}\n\t\t\t\t\n\t\t\t// \treceivedVotes[sender] = receivedVotes[sender].add(stakes);\n\t\t\t// }\n\t\t\t// }\n\n\t\t\treturn true;\t\n\t\t} else if (lastPriceTimeInSecond.add(period).add(openWindowTimeInSecond) < block.timestamp ){\n\t\t\t// round end, settle\n\t\t\t\n\t\t\tuint finalPriceInWei = calcFinalPrice();\n\t\t\t// uint size = addressCommitted.length;\n\t\t\t\n\t\t\t// uint[] storage prices = [];\n\t\t\tfor(uint j = 0;j <addressCommitted.length; j++){\n\t\t\t\taddress addrCommitted = addressCommitted[j];\n\t\t\t\tuint price = committedPrice[addrCommitted].priceInWei;\n\t\t\t\tuint delta = (price >= finalPriceInWei)? (price - finalPriceInWei): (finalPriceInWei - price);\n\t\t\t\taddressDelta.push(delta);\n\t\t\t\tdeltaPriceToAddr[delta] = addrCommitted;\n\t\t\t}\n\n\t\t\tuint[] memory sortedDeltaArray = sort(addressDelta);\n\t\t\tbalanceOf[deltaPriceToAddr[sortedDeltaArray[0]]] = \n\t\t\t\tbalanceOf[deltaPriceToAddr[sortedDeltaArray[0]]]\n\t\t\t\t.add(totalSupply * mingRatio / BP_DENOMINATOR);\n\n\t\t\temit FinalizedPrice(finalPriceInWei, lastPriceTimeInSecond + period, deltaPriceToAddr[sortedDeltaArray[0]]);\n\t\t\tstartNextRound();\n\t\t}\n\t}\n\n\tfunction startNextRound() {\n\t\tlastPriceTimeInSecond = lastPriceTimeInSecond.add(period);\n\t\tfor(uint i = 0;i <totalVotersForCurrentRound; i ++) {\n\t\t\thasVotedInCurrentRound[votersInCurrentRound[i]] = false;\n\t\t\tvotesForCurrentRound[votersInCurrentRound[i]] = 0;\n\t\t\tvotersInCurrentRound[i]=address(0);\n\t\t}\n\n\t\tfor(uint j = 0; j< totalFeeders; j++){\n\t\t\thasCommitted[feederLists[j]] = false;\n\t\t\treceivedVotes[feederLists[j]] = 0;\n\n\n\t\t}\n\t}\n\n\tfunction calcFinalPrice() view internal returns (uint)  {\n\t\tuint currentTime = lastPriceTimeInSecond + period;\n\t\tuint weightedPricesSum = 0;\n\t\tuint weightsSum = 0;\n\t\t// mapping(address => uint) deltaT;\n\t\tfor(uint i = 0; i<addressCommitted.length; i++)\n\t\t{\n\t\t\taddress addr = addressCommitted[i];\n\t\t\tuint priceInWei = committedPrice[addr].priceInWei;\n\t\t\tuint blockTime = committedPrice[addr].blockTime;\n\t\t\tuint stakeAmt = totalStakedAmt[addr];\n\t\t\tuint deltaTime = (blockTime >= currentTime)? (blockTime - currentTime): (currentTime - blockTime);\n\t\t\tuint weight = stakeAmt.add(receivedVotes[addr])/deltaTime; //wanghe need to convert to wei?\n\t\t\tweightedPricesSum = weightedPricesSum.add(weight * priceInWei);\n\t\t\tweightsSum = weightsSum.add(weight);\n\t\t}\n\n\t\tuint finalPrice = weightedPricesSum / weightsSum; // wanghe need to convert to wei?\n\t\treturn finalPrice;\n\t}\n\n\n\tfunction bytes32ToString(bytes32 x) internal pure returns (string) {\n\t\tbytes memory bytesString = new bytes(32);\n\t\tuint charCount = 0;\n\t\tfor (uint j = 0; j < 32; j++) {\n\t\t\tbyte char = byte(bytes32(uint(x) * 2 ** (8 * j)));\n\t\t\tif (char != 0) {\n\t\t\t\tbytesString[charCount] = char;\n\t\t\t\tcharCount++;\n\t\t\t}\n\t\t}\n\t\tbytes memory bytesStringTrimmed = new bytes(charCount);\n\t\tfor (j = 0; j < charCount; j++) {\n\t\t\tbytesStringTrimmed[j] = bytesString[j];\n\t\t}\n\t\treturn string(bytesStringTrimmed);\n\t}\n\n\t\n\t// end of oracle\n\n\tfunction concat(string memory _a, string memory  _b) public pure returns (string){\n        bytes memory bytes_a = bytes(_a);\n        bytes memory bytes_b = bytes(_b);\n        string memory length_ab = new string(bytes_a.length + bytes_b.length);\n        bytes memory bytes_c = bytes(length_ab);\n        uint k = 0;\n        for (uint i = 0; i < bytes_a.length; i++) bytes_c[k++] = bytes_a[i];\n        for (i = 0; i < bytes_b.length; i++) bytes_c[k++] = bytes_b[i];\n        return string(bytes_c);\n    }\n\n\tfunction sort(uint[] data) public returns(uint[]) {\n       quickSort(data, int(0), int(data.length - 1));\n       return data;\n    }\n    \n    function quickSort(uint[] memory arr, int left, int right) internal{\n        int i = left;\n        int j = right;\n        if(i==j) return;\n        uint pivot = arr[uint(left + (right - left) / 2)];\n        while (i <= j) {\n            while (arr[uint(i)] < pivot) i++;\n            while (pivot < arr[uint(j)]) j--;\n            if (i <= j) {\n                (arr[uint(i)], arr[uint(j)]) = (arr[uint(j)], arr[uint(i)]);\n                i++;\n                j--;\n            }\n        }\n        if (left < j)\n            quickSort(arr, left, j);\n        if (i < right)\n            quickSort(arr, i, right);\n    }\n\n\t/*\n     * ERC token functions\n     */\n\t/// @dev transferInternal function.\n\t/// @param from  from address\n\t/// @param to   to address\n\t/// @param tokens num of tokens transferred\n\tfunction transferInternal(address from, address to, uint tokens) \n\t\tinternal \n\t\treturns (bool success) \n\t{\n\t\t// Prevent transfer to 0x0 address. Use burn() instead\n\t\trequire(to != address(0));\n\t\t// Check if the sender has enough\n\t\trequire(balanceOf[from] >= tokens);\n\t\t// Save this for an assertion in the future\n\t\tuint previousBalances = balanceOf[from].add(balanceOf[to]);\n\t\t// Subtract from the sender\n\t\tbalanceOf[from] = balanceOf[from].sub(tokens);\n\t\t// Add the same to the recipient\n\t\tbalanceOf[to] = balanceOf[to].add(tokens);\n\t\t// Asserts are used to use static analysis to find bugs in your code. They should never fail\n\t\tassert(balanceOf[from].add(balanceOf[to]) == previousBalances);\n\t\temit Transfer(from, to, tokens);\n\t\treturn true;\n\t}\n\n\tfunction transfer(address to, uint tokens)\n\t\tpublic\n\t\treturns (bool success) \n\t{\n\t\treturn transferInternal( msg.sender, to, tokens);\n\t}\n\n\tfunction transferFrom( address from, address to, uint tokens) \n\t\tpublic \n\t\treturns (bool success) \n\t{\n\t\taddress spenderToUse = msg.sender;\n\t\trequire(tokens <= allowance[from][spenderToUse]);\t // Check allowance\n\t\tallowance[from][spenderToUse] = allowance[from][spenderToUse].sub(tokens);\n\t\treturn transferInternal( from, to, tokens);\n\t}\n\n\tfunction approve( address spender, uint tokens) \n\t\tpublic \n\t\treturns (bool success) \n\t{\n\t\taddress senderToUse = msg.sender;\n\t\tallowance[senderToUse][spender] = tokens;\n\t\temit Approval(senderToUse, spender, tokens);\n\t\treturn true;\n\t}\n\n}\n",
  "sourcePath": "C:/Users/WeitaoYang/Downloads/dev/posOracle/contracts/Oracle.sol",
  "compiler": {
    "name": "solc",
    "version": "0.4.24+commit.e67f0147.Emscripten.clang"
  },
  "schemaVersion": "3.0.0-beta.0",
  "updatedAt": "2018-12-08T20:54:49.678Z"
}