{
  "contractName": "Oracle",
  "abi": [
    {
      "constant": true,
      "inputs": [],
      "name": "name",
      "outputs": [
        {
          "name": "",
          "type": "string"
        }
      ],
      "payable": false,
      "stateMutability": "view",
      "type": "function",
      "signature": "0x06fdde03"
    },
    {
      "constant": true,
      "inputs": [],
      "name": "totalSupply",
      "outputs": [
        {
          "name": "",
          "type": "uint256"
        }
      ],
      "payable": false,
      "stateMutability": "view",
      "type": "function",
      "signature": "0x18160ddd"
    },
    {
      "constant": true,
      "inputs": [],
      "name": "decimals",
      "outputs": [
        {
          "name": "",
          "type": "uint8"
        }
      ],
      "payable": false,
      "stateMutability": "view",
      "type": "function",
      "signature": "0x313ce567"
    },
    {
      "constant": true,
      "inputs": [
        {
          "name": "",
          "type": "address"
        }
      ],
      "name": "totalStakedAmt",
      "outputs": [
        {
          "name": "",
          "type": "uint256"
        }
      ],
      "payable": false,
      "stateMutability": "view",
      "type": "function",
      "signature": "0x645bd810"
    },
    {
      "constant": true,
      "inputs": [
        {
          "name": "",
          "type": "address"
        }
      ],
      "name": "votesForCurrentRound",
      "outputs": [
        {
          "name": "",
          "type": "uint256"
        }
      ],
      "payable": false,
      "stateMutability": "view",
      "type": "function",
      "signature": "0x6bff5813"
    },
    {
      "constant": true,
      "inputs": [
        {
          "name": "",
          "type": "address"
        }
      ],
      "name": "balanceOf",
      "outputs": [
        {
          "name": "",
          "type": "uint256"
        }
      ],
      "payable": false,
      "stateMutability": "view",
      "type": "function",
      "signature": "0x70a08231"
    },
    {
      "constant": true,
      "inputs": [
        {
          "name": "",
          "type": "address"
        }
      ],
      "name": "committedPrice",
      "outputs": [
        {
          "name": "priceInWei",
          "type": "uint256"
        },
        {
          "name": "timeInSecond",
          "type": "uint256"
        },
        {
          "name": "blockTime",
          "type": "uint256"
        }
      ],
      "payable": false,
      "stateMutability": "view",
      "type": "function",
      "signature": "0x7df4f56b"
    },
    {
      "constant": true,
      "inputs": [],
      "name": "inceptionTimeInSecond",
      "outputs": [
        {
          "name": "",
          "type": "uint256"
        }
      ],
      "payable": false,
      "stateMutability": "view",
      "type": "function",
      "signature": "0x838e09d9"
    },
    {
      "constant": true,
      "inputs": [],
      "name": "symbol",
      "outputs": [
        {
          "name": "",
          "type": "string"
        }
      ],
      "payable": false,
      "stateMutability": "view",
      "type": "function",
      "signature": "0x95d89b41"
    },
    {
      "constant": true,
      "inputs": [
        {
          "name": "",
          "type": "address"
        }
      ],
      "name": "isWhiteListFeeders",
      "outputs": [
        {
          "name": "",
          "type": "bool"
        }
      ],
      "payable": false,
      "stateMutability": "view",
      "type": "function",
      "signature": "0x9981dbdc"
    },
    {
      "constant": true,
      "inputs": [],
      "name": "mingRatio",
      "outputs": [
        {
          "name": "",
          "type": "uint256"
        }
      ],
      "payable": false,
      "stateMutability": "view",
      "type": "function",
      "signature": "0xa4857f3d"
    },
    {
      "constant": true,
      "inputs": [
        {
          "name": "",
          "type": "address"
        }
      ],
      "name": "hasCommitted",
      "outputs": [
        {
          "name": "",
          "type": "bool"
        }
      ],
      "payable": false,
      "stateMutability": "view",
      "type": "function",
      "signature": "0xc6dbe15a"
    },
    {
      "constant": true,
      "inputs": [],
      "name": "totalFeeders",
      "outputs": [
        {
          "name": "",
          "type": "uint256"
        }
      ],
      "payable": false,
      "stateMutability": "view",
      "type": "function",
      "signature": "0xd3686dcf"
    },
    {
      "constant": true,
      "inputs": [
        {
          "name": "",
          "type": "address"
        }
      ],
      "name": "receivedVotes",
      "outputs": [
        {
          "name": "",
          "type": "uint256"
        }
      ],
      "payable": false,
      "stateMutability": "view",
      "type": "function",
      "signature": "0xd8ce95ab"
    },
    {
      "constant": true,
      "inputs": [
        {
          "name": "",
          "type": "address"
        },
        {
          "name": "",
          "type": "address"
        }
      ],
      "name": "allowance",
      "outputs": [
        {
          "name": "",
          "type": "uint256"
        }
      ],
      "payable": false,
      "stateMutability": "view",
      "type": "function",
      "signature": "0xdd62ed3e"
    },
    {
      "constant": true,
      "inputs": [],
      "name": "totalVotersForCurrentRound",
      "outputs": [
        {
          "name": "",
          "type": "uint256"
        }
      ],
      "payable": false,
      "stateMutability": "view",
      "type": "function",
      "signature": "0xe814e7f5"
    },
    {
      "constant": true,
      "inputs": [],
      "name": "lastPriceTimeInSecond",
      "outputs": [
        {
          "name": "",
          "type": "uint256"
        }
      ],
      "payable": false,
      "stateMutability": "view",
      "type": "function",
      "signature": "0xed9e4789"
    },
    {
      "constant": true,
      "inputs": [],
      "name": "period",
      "outputs": [
        {
          "name": "",
          "type": "uint256"
        }
      ],
      "payable": false,
      "stateMutability": "view",
      "type": "function",
      "signature": "0xef78d4fd"
    },
    {
      "constant": true,
      "inputs": [],
      "name": "openWindowTimeInSecond",
      "outputs": [
        {
          "name": "",
          "type": "uint256"
        }
      ],
      "payable": false,
      "stateMutability": "view",
      "type": "function",
      "signature": "0xf7732499"
    },
    {
      "inputs": [
        {
          "name": "pd",
          "type": "uint256"
        },
        {
          "name": "openWindow",
          "type": "uint256"
        },
        {
          "name": "tokenName",
          "type": "string"
        },
        {
          "name": "tokenSymbol",
          "type": "string"
        },
        {
          "name": "totalSupplyInWei",
          "type": "uint256"
        }
      ],
      "payable": false,
      "stateMutability": "nonpayable",
      "type": "constructor",
      "signature": "constructor"
    },
    {
      "anonymous": false,
      "inputs": [
        {
          "indexed": true,
          "name": "from",
          "type": "address"
        },
        {
          "indexed": true,
          "name": "to",
          "type": "address"
        },
        {
          "indexed": false,
          "name": "value",
          "type": "uint256"
        }
      ],
      "name": "Transfer",
      "type": "event",
      "signature": "0xddf252ad1be2c89b69c2b068fc378daa952ba7f163c4a11628f55a4df523b3ef"
    },
    {
      "anonymous": false,
      "inputs": [
        {
          "indexed": true,
          "name": "tokenOwner",
          "type": "address"
        },
        {
          "indexed": true,
          "name": "spender",
          "type": "address"
        },
        {
          "indexed": false,
          "name": "tokens",
          "type": "uint256"
        }
      ],
      "name": "Approval",
      "type": "event",
      "signature": "0x8c5be1e5ebec7d5bd14f71427d1e84f3dd0314c0f7b2291e5b200ac8c7c3b925"
    },
    {
      "anonymous": false,
      "inputs": [
        {
          "indexed": true,
          "name": "priceInWei",
          "type": "uint256"
        },
        {
          "indexed": true,
          "name": "timeInSecond",
          "type": "uint256"
        },
        {
          "indexed": false,
          "name": "sender",
          "type": "address"
        }
      ],
      "name": "CommitPrice",
      "type": "event",
      "signature": "0x2f4ba6f2db22a6371cf4a725ab5bcc8ff678b0b9071bbd043e04eac67e2c66ad"
    },
    {
      "anonymous": false,
      "inputs": [
        {
          "indexed": false,
          "name": "inceptionTime",
          "type": "uint256"
        },
        {
          "indexed": false,
          "name": "startAddr",
          "type": "address"
        }
      ],
      "name": "Inception",
      "type": "event",
      "signature": "0xbc20852d5f54c23d3800000c77c1a3369f5dd794fcb93c3d48122e148c67fad3"
    },
    {
      "anonymous": false,
      "inputs": [
        {
          "indexed": false,
          "name": "priceInSecond",
          "type": "uint256"
        },
        {
          "indexed": false,
          "name": "time",
          "type": "uint256"
        },
        {
          "indexed": false,
          "name": "winner",
          "type": "address"
        }
      ],
      "name": "FinalizedPrice",
      "type": "event",
      "signature": "0x1235e3f1e056a121ce07160d60e111799aa0d5039526a35a5719626baef4bbfe"
    },
    {
      "constant": false,
      "inputs": [
        {
          "name": "startTime",
          "type": "uint256"
        }
      ],
      "name": "startOracle",
      "outputs": [
        {
          "name": "success",
          "type": "bool"
        }
      ],
      "payable": false,
      "stateMutability": "nonpayable",
      "type": "function",
      "signature": "0xa99ae651"
    },
    {
      "constant": false,
      "inputs": [
        {
          "name": "addr",
          "type": "address"
        }
      ],
      "name": "addWhiteList",
      "outputs": [
        {
          "name": "",
          "type": "bool"
        }
      ],
      "payable": false,
      "stateMutability": "nonpayable",
      "type": "function",
      "signature": "0xe7cd4a04"
    },
    {
      "constant": false,
      "inputs": [
        {
          "name": "amtInWei",
          "type": "uint256"
        }
      ],
      "name": "stake",
      "outputs": [],
      "payable": false,
      "stateMutability": "nonpayable",
      "type": "function",
      "signature": "0xa694fc3a"
    },
    {
      "constant": false,
      "inputs": [
        {
          "name": "amtInWei",
          "type": "uint256"
        }
      ],
      "name": "unStake",
      "outputs": [],
      "payable": false,
      "stateMutability": "nonpayable",
      "type": "function",
      "signature": "0x5d3eea91"
    },
    {
      "constant": false,
      "inputs": [
        {
          "name": "priceInWei",
          "type": "uint256"
        },
        {
          "name": "timeInSecond",
          "type": "uint256"
        },
        {
          "components": [
            {
              "name": "addr",
              "type": "address"
            },
            {
              "name": "timeInSecond",
              "type": "uint256"
            },
            {
              "name": "stakes",
              "type": "uint256"
            },
            {
              "name": "v",
              "type": "uint8"
            },
            {
              "name": "r",
              "type": "bytes32"
            },
            {
              "name": "s",
              "type": "bytes32"
            }
          ],
          "name": "delegatedStakes",
          "type": "tuple[3]"
        }
      ],
      "name": "commitPrice",
      "outputs": [
        {
          "name": "success",
          "type": "bool"
        }
      ],
      "payable": false,
      "stateMutability": "nonpayable",
      "type": "function",
      "signature": "0x7f16c2a1"
    },
    {
      "constant": false,
      "inputs": [],
      "name": "startNextRound",
      "outputs": [],
      "payable": false,
      "stateMutability": "nonpayable",
      "type": "function",
      "signature": "0x3c3ccc44"
    },
    {
      "constant": true,
      "inputs": [
        {
          "name": "_a",
          "type": "string"
        },
        {
          "name": "_b",
          "type": "string"
        }
      ],
      "name": "concat",
      "outputs": [
        {
          "name": "",
          "type": "string"
        }
      ],
      "payable": false,
      "stateMutability": "pure",
      "type": "function",
      "signature": "0x89c19ddb"
    },
    {
      "constant": false,
      "inputs": [
        {
          "name": "data",
          "type": "uint256[]"
        }
      ],
      "name": "sort",
      "outputs": [
        {
          "name": "",
          "type": "uint256[]"
        }
      ],
      "payable": false,
      "stateMutability": "nonpayable",
      "type": "function",
      "signature": "0x9ec8b026"
    },
    {
      "constant": false,
      "inputs": [
        {
          "name": "to",
          "type": "address"
        },
        {
          "name": "tokens",
          "type": "uint256"
        }
      ],
      "name": "transfer",
      "outputs": [
        {
          "name": "success",
          "type": "bool"
        }
      ],
      "payable": false,
      "stateMutability": "nonpayable",
      "type": "function",
      "signature": "0xa9059cbb"
    },
    {
      "constant": false,
      "inputs": [
        {
          "name": "from",
          "type": "address"
        },
        {
          "name": "to",
          "type": "address"
        },
        {
          "name": "tokens",
          "type": "uint256"
        }
      ],
      "name": "transferFrom",
      "outputs": [
        {
          "name": "success",
          "type": "bool"
        }
      ],
      "payable": false,
      "stateMutability": "nonpayable",
      "type": "function",
      "signature": "0x23b872dd"
    },
    {
      "constant": false,
      "inputs": [
        {
          "name": "spender",
          "type": "address"
        },
        {
          "name": "tokens",
          "type": "uint256"
        }
      ],
      "name": "approve",
      "outputs": [
        {
          "name": "success",
          "type": "bool"
        }
      ],
      "payable": false,
      "stateMutability": "nonpayable",
      "type": "function",
      "signature": "0x095ea7b3"
    }
  ],
  "bytecode": "0x60806040526001805560006008556012601960006101000a81548160ff021916908360ff1602179055503480156200003657600080fd5b50604051620036e3380380620036e383398101806040526200005c91908101906200026d565b84600081905550836002819055506001601160003373ffffffffffffffffffffffffffffffffffffffff1673ffffffffffffffffffffffffffffffffffffffff16815260200190815260200160002060006101000a81548160ff0219169083151502179055508260169080519060200190620000da9291906200014a565b508160179080519060200190620000f39291906200014a565b508060188190555080600560003373ffffffffffffffffffffffffffffffffffffffff1673ffffffffffffffffffffffffffffffffffffffff168152602001908152602001600020819055505050505050620003bc565b828054600181600116156101000203166002900490600052602060002090601f016020900481019282601f106200018d57805160ff1916838001178555620001be565b82800160010185558215620001be579182015b82811115620001bd578251825591602001919060010190620001a0565b5b509050620001cd9190620001d1565b5090565b620001f691905b80821115620001f2576000816000905550600101620001d8565b5090565b90565b600082601f83011215156200020d57600080fd5b8151620002246200021e826200034f565b62000321565b915080825260208301602083018583830111156200024157600080fd5b6200024e83828462000386565b50505092915050565b60006200026582516200037c565b905092915050565b600080600080600060a086880312156200028657600080fd5b6000620002968882890162000257565b9550506020620002a98882890162000257565b945050604086015167ffffffffffffffff811115620002c757600080fd5b620002d588828901620001f9565b935050606086015167ffffffffffffffff811115620002f357600080fd5b6200030188828901620001f9565b9250506080620003148882890162000257565b9150509295509295909350565b6000604051905081810181811067ffffffffffffffff821117156200034557600080fd5b8060405250919050565b600067ffffffffffffffff8211156200036757600080fd5b601f19601f8301169050602081019050919050565b6000819050919050565b60005b83811015620003a657808201518184015260208101905062000389565b83811115620003b6576000848401525b50505050565b61331780620003cc6000396000f300608060405260043610610180576000357c0100000000000000000000000000000000000000000000000000000000900463ffffffff16806306fdde0314610185578063095ea7b3146101b057806318160ddd146101ed57806323b872dd14610218578063313ce567146102555780633c3ccc44146102805780635d3eea9114610297578063645bd810146102c05780636b9e54f0146102fd5780636bff58131461033a57806370a08231146103775780637df4f56b146103b4578063838e09d9146103f357806389c19ddb1461041e57806395d89b411461045b5780639981dbdc146104865780639ec8b026146104c3578063a4857f3d14610500578063a694fc3a1461052b578063a9059cbb14610554578063a99ae65114610591578063c6dbe15a146105ce578063d3686dcf1461060b578063d8ce95ab14610636578063dd62ed3e14610673578063e7cd4a04146106b0578063e814e7f5146106ed578063ed9e478914610718578063ef78d4fd14610743578063f77324991461076e575b600080fd5b34801561019157600080fd5b5061019a610799565b6040516101a7919061300d565b60405180910390f35b3480156101bc57600080fd5b506101d760048036036101d29190810190612d17565b610837565b6040516101e49190612fad565b60405180910390f35b3480156101f957600080fd5b5061020261092e565b60405161020f9190613051565b60405180910390f35b34801561022457600080fd5b5061023f600480360361023a9190810190612cc8565b610934565b60405161024c9190612fad565b60405180910390f35b34801561026157600080fd5b5061026a610ae9565b6040516102779190613103565b60405180910390f35b34801561028c57600080fd5b50610295610afc565b005b3480156102a357600080fd5b506102be60048036036102b99190810190612e00565b610dcf565b005b3480156102cc57600080fd5b506102e760048036036102e29190810190612c63565b610f30565b6040516102f49190613051565b60405180910390f35b34801561030957600080fd5b50610324600480360361031f9190810190612e29565b610f48565b6040516103319190612fad565b60405180910390f35b34801561034657600080fd5b50610361600480360361035c9190810190612c63565b611967565b60405161036e9190613051565b60405180910390f35b34801561038357600080fd5b5061039e60048036036103999190810190612c63565b61197f565b6040516103ab9190613051565b60405180910390f35b3480156103c057600080fd5b506103db60048036036103d69190810190612c63565b611997565b6040516103ea939291906130cc565b60405180910390f35b3480156103ff57600080fd5b506104086119c1565b6040516104159190613051565b60405180910390f35b34801561042a57600080fd5b5061044560048036036104409190810190612d94565b6119c7565b604051610452919061302f565b60405180910390f35b34801561046757600080fd5b50610470611b98565b60405161047d919061300d565b60405180910390f35b34801561049257600080fd5b506104ad60048036036104a89190810190612c63565b611c36565b6040516104ba9190612fad565b60405180910390f35b3480156104cf57600080fd5b506104ea60048036036104e59190810190612d53565b611c56565b6040516104f79190612f8b565b60405180910390f35b34801561050c57600080fd5b50610515611c70565b6040516105229190613051565b60405180910390f35b34801561053757600080fd5b50610552600480360361054d9190810190612e00565b611c76565b005b34801561056057600080fd5b5061057b60048036036105769190810190612d17565b611dd7565b6040516105889190612fad565b60405180910390f35b34801561059d57600080fd5b506105b860048036036105b39190810190612e00565b611dec565b6040516105c59190612fad565b60405180910390f35b3480156105da57600080fd5b506105f560048036036105f09190810190612c63565b611e9f565b6040516106029190612fad565b60405180910390f35b34801561061757600080fd5b50610620611ebf565b60405161062d9190613051565b60405180910390f35b34801561064257600080fd5b5061065d60048036036106589190810190612c63565b611ec5565b60405161066a9190613051565b60405180910390f35b34801561067f57600080fd5b5061069a60048036036106959190810190612c8c565b611edd565b6040516106a79190613051565b60405180910390f35b3480156106bc57600080fd5b506106d760048036036106d29190810190612c63565b611f02565b6040516106e49190612fad565b60405180910390f35b3480156106f957600080fd5b50610702612039565b60405161070f9190613051565b60405180910390f35b34801561072457600080fd5b5061072d61203f565b60405161073a9190613051565b60405180910390f35b34801561074f57600080fd5b50610758612045565b6040516107659190613051565b60405180910390f35b34801561077a57600080fd5b5061078361204b565b6040516107909190613051565b60405180910390f35b60168054600181600116156101000203166002900480601f01602080910402602001604051908101604052809291908181526020018280546001816001161561010002031660029004801561082f5780601f106108045761010080835404028352916020019161082f565b820191906000526020600020905b81548152906001019060200180831161081257829003601f168201915b505050505081565b60008033905082600660008373ffffffffffffffffffffffffffffffffffffffff1673ffffffffffffffffffffffffffffffffffffffff16815260200190815260200160002060008673ffffffffffffffffffffffffffffffffffffffff1673ffffffffffffffffffffffffffffffffffffffff168152602001908152602001600020819055508373ffffffffffffffffffffffffffffffffffffffff168173ffffffffffffffffffffffffffffffffffffffff167f8c5be1e5ebec7d5bd14f71427d1e84f3dd0314c0f7b2291e5b200ac8c7c3b9258560405161091b9190613051565b60405180910390a3600191505092915050565b60185481565b600080339050600660008673ffffffffffffffffffffffffffffffffffffffff1673ffffffffffffffffffffffffffffffffffffffff16815260200190815260200160002060008273ffffffffffffffffffffffffffffffffffffffff1673ffffffffffffffffffffffffffffffffffffffff1681526020019081526020016000205483111515156109c557600080fd5b610a5483600660008873ffffffffffffffffffffffffffffffffffffffff1673ffffffffffffffffffffffffffffffffffffffff16815260200190815260200160002060008473ffffffffffffffffffffffffffffffffffffffff1673ffffffffffffffffffffffffffffffffffffffff1681526020019081526020016000205461205190919063ffffffff16565b600660008773ffffffffffffffffffffffffffffffffffffffff1673ffffffffffffffffffffffffffffffffffffffff16815260200190815260200160002060008373ffffffffffffffffffffffffffffffffffffffff1673ffffffffffffffffffffffffffffffffffffffff16815260200190815260200160002081905550610adf85858561206a565b9150509392505050565b601960009054906101000a900460ff1681565b600080610b166000546003546123c090919063ffffffff16565b600381905550600091505b600954821015610ca0576000600b6000600a85815481101515610b4057fe5b9060005260206000200160009054906101000a900473ffffffffffffffffffffffffffffffffffffffff1673ffffffffffffffffffffffffffffffffffffffff1673ffffffffffffffffffffffffffffffffffffffff16815260200190815260200160002060006101000a81548160ff0219169083151502179055506000600c6000600a85815481101515610bd157fe5b9060005260206000200160009054906101000a900473ffffffffffffffffffffffffffffffffffffffff1673ffffffffffffffffffffffffffffffffffffffff1673ffffffffffffffffffffffffffffffffffffffff168152602001908152602001600020819055506000600a83815481101515610c4b57fe5b9060005260206000200160006101000a81548173ffffffffffffffffffffffffffffffffffffffff021916908373ffffffffffffffffffffffffffffffffffffffff1602179055508180600101925050610b21565b600090505b600d54811015610dcb57600060126000600e84815481101515610cc457fe5b9060005260206000200160009054906101000a900473ffffffffffffffffffffffffffffffffffffffff1673ffffffffffffffffffffffffffffffffffffffff1673ffffffffffffffffffffffffffffffffffffffff16815260200190815260200160002060006101000a81548160ff021916908315150217905550600060136000600e84815481101515610d5557fe5b9060005260206000200160009054906101000a900473ffffffffffffffffffffffffffffffffffffffff1673ffffffffffffffffffffffffffffffffffffffff1673ffffffffffffffffffffffffffffffffffffffff168152602001908152602001600020819055508080600101915050610ca5565b5050565b6000339050600760008273ffffffffffffffffffffffffffffffffffffffff1673ffffffffffffffffffffffffffffffffffffffff168152602001908152602001600020548211151515610e2257600080fd5b81600560008373ffffffffffffffffffffffffffffffffffffffff1673ffffffffffffffffffffffffffffffffffffffff1681526020019081526020016000205401600560008373ffffffffffffffffffffffffffffffffffffffff1673ffffffffffffffffffffffffffffffffffffffff1681526020019081526020016000208190555081600760008373ffffffffffffffffffffffffffffffffffffffff1673ffffffffffffffffffffffffffffffffffffffff1681526020019081526020016000205403600760008373ffffffffffffffffffffffffffffffffffffffff1673ffffffffffffffffffffffffffffffffffffffff168152602001908152602001600020819055505050565b60076020528060005260406000206000915090505481565b600080600080610f566129d0565b6000806000806000606060011515601160003373ffffffffffffffffffffffffffffffffffffffff1673ffffffffffffffffffffffffffffffffffffffff16815260200190815260200160002060009054906101000a900460ff161515141515610fbf57600080fd5b33995042985088610ff1600254610fe36000546003546123c090919063ffffffff16565b6123c090919063ffffffff16565b101580156110295750886110266002546110186000546003546123c090919063ffffffff16565b61205190919063ffffffff16565b11155b156115b7576060604051908101604052808f81526020018e815260200142815250600f60008c73ffffffffffffffffffffffffffffffffffffffff1673ffffffffffffffffffffffffffffffffffffffff16815260200190815260200160002060008201518160000155602082015181600101556040820151816002015590505060148a90806001815401808255809150509060018203906000526020600020016000909192909190916101000a81548173ffffffffffffffffffffffffffffffffffffffff021916908373ffffffffffffffffffffffffffffffffffffffff160217905550506001601260008c73ffffffffffffffffffffffffffffffffffffffff1673ffffffffffffffffffffffffffffffffffffffff16815260200190815260200160002060006101000a81548160ff021916908315150217905550600097505b60038810156115ae578b8860038110151561118457fe5b602002015196508c8760200151148015611224575060076000886000015173ffffffffffffffffffffffffffffffffffffffff1673ffffffffffffffffffffffffffffffffffffffff16815260200190815260200160002054600c6000896000015173ffffffffffffffffffffffffffffffffffffffff1673ffffffffffffffffffffffffffffffffffffffff1681526020019081526020016000205411155b801561133e575061133d876000015161125b6112468a602001516001026123de565b6112568b604001516001026123de565b6119c7565b6040516020018082805190602001908083835b602083101515611293578051825260208201915060208101905060208303925061126e565b6001836020036101000a0380198251168184511680821785525050505050509050019150506040516020818303038152906040526040518082805190602001908083835b6020831015156112fc57805182526020820191506020810190506020830392506112d7565b6001836020036101000a038019825116818451168082178552505050505050905001915050604051809103902089606001518a608001518b60a001516125da565b5b156115a15761139d8760400151600c60008a6000015173ffffffffffffffffffffffffffffffffffffffff1673ffffffffffffffffffffffffffffffffffffffff168152602001908152602001600020546123c090919063ffffffff16565b600c6000896000015173ffffffffffffffffffffffffffffffffffffffff1673ffffffffffffffffffffffffffffffffffffffff16815260200190815260200160002081905550600b6000886000015173ffffffffffffffffffffffffffffffffffffffff1673ffffffffffffffffffffffffffffffffffffffff16815260200190815260200160002060009054906101000a900460ff1615156115075760016009600082825401925050819055506001600b6000896000015173ffffffffffffffffffffffffffffffffffffffff1673ffffffffffffffffffffffffffffffffffffffff16815260200190815260200160002060006101000a81548160ff0219169083151502179055508660000151600a6009548154811015156114be57fe5b9060005260206000200160006101000a81548173ffffffffffffffffffffffffffffffffffffffff021916908373ffffffffffffffffffffffffffffffffffffffff1602179055505b61155d8760400151601360008d73ffffffffffffffffffffffffffffffffffffffff1673ffffffffffffffffffffffffffffffffffffffff168152602001908152602001600020546123c090919063ffffffff16565b601360008c73ffffffffffffffffffffffffffffffffffffffff1673ffffffffffffffffffffffffffffffffffffffff168152602001908152602001600020819055505b878060010198505061116d565b60019a50611956565b886115e36002546115d56000546003546123c090919063ffffffff16565b6123c090919063ffffffff16565b1015611955576115f1612666565b9550600094505b6014805490508510156117275760148881548110151561161457fe5b9060005260206000200160009054906101000a900473ffffffffffffffffffffffffffffffffffffffff169350600f60008573ffffffffffffffffffffffffffffffffffffffff1673ffffffffffffffffffffffffffffffffffffffff168152602001908152602001600020600001549250858310156116965782860361169a565b8583035b91506015829080600181540180825580915050906001820390600052602060002001600090919290919091505550836010600084815260200190815260200160002060006101000a81548173ffffffffffffffffffffffffffffffffffffffff021916908373ffffffffffffffffffffffffffffffffffffffff16021790555084806001019550506115f8565b611780601580548060200260200160405190810160405280929190818152602001828054801561177657602002820191906000526020600020905b815481526020019060010190808311611762575b5050505050611c56565b90506118326127106001546018540281151561179857fe5b0460056000601060008660008151811015156117b057fe5b90602001906020020151815260200190815260200160002060009054906101000a900473ffffffffffffffffffffffffffffffffffffffff1673ffffffffffffffffffffffffffffffffffffffff1673ffffffffffffffffffffffffffffffffffffffff168152602001908152602001600020546123c090919063ffffffff16565b600560006010600085600081518110151561184957fe5b90602001906020020151815260200190815260200160002060009054906101000a900473ffffffffffffffffffffffffffffffffffffffff1673ffffffffffffffffffffffffffffffffffffffff1673ffffffffffffffffffffffffffffffffffffffff168152602001908152602001600020819055507f1235e3f1e056a121ce07160d60e111799aa0d5039526a35a5719626baef4bbfe8660005460035401601060008560008151811015156118fc57fe5b90602001906020020151815260200190815260200160002060009054906101000a900473ffffffffffffffffffffffffffffffffffffffff1660405161194493929190613095565b60405180910390a1611954610afc565b5b5b505050505050505050509392505050565b600c6020528060005260406000206000915090505481565b60056020528060005260406000206000915090505481565b600f6020528060005260406000206000915090508060000154908060010154908060020154905083565b60045481565b606080606080606060008088955087945084518651016040519080825280601f01601f191660200182016040528015611a0f5781602001602082028038833980820191505090505b50935083925060009150600090505b8551811015611ad1578581815181101515611a3557fe5b9060200101517f010000000000000000000000000000000000000000000000000000000000000090047f0100000000000000000000000000000000000000000000000000000000000000028383806001019450815181101515611a9457fe5b9060200101907effffffffffffffffffffffffffffffffffffffffffffffffffffffffffffff1916908160001a9053508080600101915050611a1e565b600090505b8451811015611b89578481815181101515611aed57fe5b9060200101517f010000000000000000000000000000000000000000000000000000000000000090047f0100000000000000000000000000000000000000000000000000000000000000028383806001019450815181101515611b4c57fe5b9060200101907effffffffffffffffffffffffffffffffffffffffffffffffffffffffffffff1916908160001a9053508080600101915050611ad6565b82965050505050505092915050565b60178054600181600116156101000203166002900480601f016020809104026020016040519081016040528092919081815260200182805460018160011615610100020316600290048015611c2e5780601f10611c0357610100808354040283529160200191611c2e565b820191906000526020600020905b815481529060010190602001808311611c1157829003601f168201915b505050505081565b60116020528060005260406000206000915054906101000a900460ff1681565b6060611c688260006001855103612870565b819050919050565b60015481565b6000339050600560008273ffffffffffffffffffffffffffffffffffffffff1673ffffffffffffffffffffffffffffffffffffffff168152602001908152602001600020548211151515611cc957600080fd5b81600560008373ffffffffffffffffffffffffffffffffffffffff1673ffffffffffffffffffffffffffffffffffffffff1681526020019081526020016000205403600560008373ffffffffffffffffffffffffffffffffffffffff1673ffffffffffffffffffffffffffffffffffffffff1681526020019081526020016000208190555081600760008373ffffffffffffffffffffffffffffffffffffffff1673ffffffffffffffffffffffffffffffffffffffff1681526020019081526020016000205401600760008373ffffffffffffffffffffffffffffffffffffffff1673ffffffffffffffffffffffffffffffffffffffff168152602001908152602001600020819055505050565b6000611de433848461206a565b905092915050565b600060011515601160003373ffffffffffffffffffffffffffffffffffffffff1673ffffffffffffffffffffffffffffffffffffffff16815260200190815260200160002060009054906101000a900460ff161515141515611e4d57600080fd5b81600481905550816003819055507fbc20852d5f54c23d3800000c77c1a3369f5dd794fcb93c3d48122e148c67fad360045433604051611e8e92919061306c565b60405180910390a160019050919050565b60126020528060005260406000206000915054906101000a900460ff1681565b600d5481565b60136020528060005260406000206000915090505481565b6006602052816000526040600020602052806000526040600020600091509150505481565b6000601160008373ffffffffffffffffffffffffffffffffffffffff1673ffffffffffffffffffffffffffffffffffffffff16815260200190815260200160002060009054906101000a900460ff16151561202f576001601160008473ffffffffffffffffffffffffffffffffffffffff1673ffffffffffffffffffffffffffffffffffffffff16815260200190815260200160002060006101000a81548160ff021916908315150217905550600e8290806001815401808255809150509060018203906000526020600020016000909192909190916101000a81548173ffffffffffffffffffffffffffffffffffffffff021916908373ffffffffffffffffffffffffffffffffffffffff160217905550506001600d6000828254019250508190555060019050612034565b600090505b919050565b60095481565b60035481565b60005481565b60025481565b600082821115151561205f57fe5b818303905092915050565b600080600073ffffffffffffffffffffffffffffffffffffffff168473ffffffffffffffffffffffffffffffffffffffff16141515156120a957600080fd5b82600560008773ffffffffffffffffffffffffffffffffffffffff1673ffffffffffffffffffffffffffffffffffffffff16815260200190815260200160002054101515156120f757600080fd5b612188600560008673ffffffffffffffffffffffffffffffffffffffff1673ffffffffffffffffffffffffffffffffffffffff16815260200190815260200160002054600560008873ffffffffffffffffffffffffffffffffffffffff1673ffffffffffffffffffffffffffffffffffffffff168152602001908152602001600020546123c090919063ffffffff16565b90506121dc83600560008873ffffffffffffffffffffffffffffffffffffffff1673ffffffffffffffffffffffffffffffffffffffff1681526020019081526020016000205461205190919063ffffffff16565b600560008773ffffffffffffffffffffffffffffffffffffffff1673ffffffffffffffffffffffffffffffffffffffff1681526020019081526020016000208190555061227183600560008773ffffffffffffffffffffffffffffffffffffffff1673ffffffffffffffffffffffffffffffffffffffff168152602001908152602001600020546123c090919063ffffffff16565b600560008673ffffffffffffffffffffffffffffffffffffffff1673ffffffffffffffffffffffffffffffffffffffff1681526020019081526020016000208190555080612346600560008773ffffffffffffffffffffffffffffffffffffffff1673ffffffffffffffffffffffffffffffffffffffff16815260200190815260200160002054600560008973ffffffffffffffffffffffffffffffffffffffff1673ffffffffffffffffffffffffffffffffffffffff168152602001908152602001600020546123c090919063ffffffff16565b14151561234f57fe5b8373ffffffffffffffffffffffffffffffffffffffff168573ffffffffffffffffffffffffffffffffffffffff167fddf252ad1be2c89b69c2b068fc378daa952ba7f163c4a11628f55a4df523b3ef856040516123ac9190613051565b60405180910390a360019150509392505050565b60008082840190508381101515156123d457fe5b8091505092915050565b6060806000806000606060206040519080825280601f01601f19166020018201604052801561241c5781602001602082028038833980820191505090505b50945060009350600092505b60208310156124e6578260080260020a876001900402600102915060007f010000000000000000000000000000000000000000000000000000000000000002827effffffffffffffffffffffffffffffffffffffffffffffffffffffffffffff19161415156124d9578185858151811015156124a057fe5b9060200101907effffffffffffffffffffffffffffffffffffffffffffffffffffffffffffff1916908160001a90535083806001019450505b8280600101935050612428565b836040519080825280601f01601f1916602001820160405280156125195781602001602082028038833980820191505090505b509050600092505b838310156125cd57848381518110151561253757fe5b9060200101517f010000000000000000000000000000000000000000000000000000000000000090047f010000000000000000000000000000000000000000000000000000000000000002818481518110151561259057fe5b9060200101907effffffffffffffffffffffffffffffffffffffffffffffffffffffffffffff1916908160001a9053508280600101935050612521565b8095505050505050919050565b60008573ffffffffffffffffffffffffffffffffffffffff16600186868686604051600081526020016040526040516126169493929190612fc8565b60206040516020810390808403906000865af115801561263a573d6000803e3d6000fd5b5050506020604051035173ffffffffffffffffffffffffffffffffffffffff1614905095945050505050565b600080600080600080600080600080600080600054600354019a506000995060009850600097505b601480549050881015612851576014888154811015156126aa57fe5b9060005260206000200160009054906101000a900473ffffffffffffffffffffffffffffffffffffffff169650600f60008873ffffffffffffffffffffffffffffffffffffffff1673ffffffffffffffffffffffffffffffffffffffff168152602001908152602001600020600001549550600f60008873ffffffffffffffffffffffffffffffffffffffff1673ffffffffffffffffffffffffffffffffffffffff168152602001908152602001600020600201549450600760008873ffffffffffffffffffffffffffffffffffffffff1673ffffffffffffffffffffffffffffffffffffffff1681526020019081526020016000205493508a8510156127b357848b036127b7565b8a85035b92508261280c601360008a73ffffffffffffffffffffffffffffffffffffffff1673ffffffffffffffffffffffffffffffffffffffff16815260200190815260200160002054866123c090919063ffffffff16565b81151561281557fe5b04915061282d8683028b6123c090919063ffffffff16565b9950612842828a6123c090919063ffffffff16565b9850878060010198505061268e565b888a81151561285c57fe5b049050809b50505050505050505050505090565b600080600084925083915081831415612888576129c8565b85600286860381151561289757fe5b0586018151811015156128a657fe5b9060200190602002015190505b818313151561299f575b8086848151811015156128cc57fe5b9060200190602002015110156128e95782806001019350506128bd565b5b85828151811015156128f857fe5b90602001906020020151811015612917578180600190039250506128ea565b818313151561299a57858281518110151561292e57fe5b90602001906020020151868481518110151561294657fe5b90602001906020020151878581518110151561295e57fe5b906020019060200201888581518110151561297557fe5b9060200190602002018281525082815250505082806001019350508180600190039250505b6128b3565b818512156129b3576129b2868684612870565b5b838312156129c7576129c6868486612870565b5b5b505050505050565b60c060405190810160405280600073ffffffffffffffffffffffffffffffffffffffff1681526020016000815260200160008152602001600060ff16815260200160008019168152602001600080191681525090565b6000612a328235613249565b905092915050565b600082601f8301121515612a4d57600080fd5b6003612a60612a5b8261314b565b61311e565b915081838560c0840282011115612a7657600080fd5b60005b83811015612aa65781612a8c8882612b9f565b845260208401935060c08301925050600181019050612a79565b5050505092915050565b600082601f8301121515612ac357600080fd5b8135612ad6612ad18261316d565b61311e565b91508181835260208401935060208101905083856020840282011115612afb57600080fd5b60005b83811015612b2b5781612b118882612c3b565b845260208401935060208301925050600181019050612afe565b5050505092915050565b6000612b418235613269565b905092915050565b600082601f8301121515612b5c57600080fd5b8135612b6f612b6a82613195565b61311e565b91508082526020830160208301858383011115612b8b57600080fd5b612b9683828461328a565b50505092915050565b600060c08284031215612bb157600080fd5b612bbb60c061311e565b90506000612bcb84828501612a26565b6000830152506020612bdf84828501612c3b565b6020830152506040612bf384828501612c3b565b6040830152506060612c0784828501612c4f565b6060830152506080612c1b84828501612b35565b60808301525060a0612c2f84828501612b35565b60a08301525092915050565b6000612c478235613273565b905092915050565b6000612c5b823561327d565b905092915050565b600060208284031215612c7557600080fd5b6000612c8384828501612a26565b91505092915050565b60008060408385031215612c9f57600080fd5b6000612cad85828601612a26565b9250506020612cbe85828601612a26565b9150509250929050565b600080600060608486031215612cdd57600080fd5b6000612ceb86828701612a26565b9350506020612cfc86828701612a26565b9250506040612d0d86828701612c3b565b9150509250925092565b60008060408385031215612d2a57600080fd5b6000612d3885828601612a26565b9250506020612d4985828601612c3b565b9150509250929050565b600060208284031215612d6557600080fd5b600082013567ffffffffffffffff811115612d7f57600080fd5b612d8b84828501612ab0565b91505092915050565b60008060408385031215612da757600080fd5b600083013567ffffffffffffffff811115612dc157600080fd5b612dcd85828601612b49565b925050602083013567ffffffffffffffff811115612dea57600080fd5b612df685828601612b49565b9150509250929050565b600060208284031215612e1257600080fd5b6000612e2084828501612c3b565b91505092915050565b60008060006102808486031215612e3f57600080fd5b6000612e4d86828701612c3b565b9350506020612e5e86828701612c3b565b9250506040612e6f86828701612a3a565b9150509250925092565b612e82816131fc565b82525050565b6000612e93826131ce565b808452602084019350612ea5836131c1565b60005b82811015612ed757612ebb868351612f6d565b612ec4826131ef565b9150602086019550600181019050612ea8565b50849250505092915050565b612eec8161321c565b82525050565b612efb81613228565b82525050565b6000612f0c826131e4565b808452612f20816020860160208601613299565b612f29816132cc565b602085010191505092915050565b6000612f42826131d9565b808452612f56816020860160208601613299565b612f5f816132cc565b602085010191505092915050565b612f7681613232565b82525050565b612f858161323c565b82525050565b60006020820190508181036000830152612fa58184612e88565b905092915050565b6000602082019050612fc26000830184612ee3565b92915050565b6000608082019050612fdd6000830187612ef2565b612fea6020830186612f7c565b612ff76040830185612ef2565b6130046060830184612ef2565b95945050505050565b600060208201905081810360008301526130278184612f37565b905092915050565b600060208201905081810360008301526130498184612f01565b905092915050565b60006020820190506130666000830184612f6d565b92915050565b60006040820190506130816000830185612f6d565b61308e6020830184612e79565b9392505050565b60006060820190506130aa6000830186612f6d565b6130b76020830185612f6d565b6130c46040830184612e79565b949350505050565b60006060820190506130e16000830186612f6d565b6130ee6020830185612f6d565b6130fb6040830184612f6d565b949350505050565b60006020820190506131186000830184612f7c565b92915050565b6000604051905081810181811067ffffffffffffffff8211171561314157600080fd5b8060405250919050565b600067ffffffffffffffff82111561316257600080fd5b602082029050919050565b600067ffffffffffffffff82111561318457600080fd5b602082029050602081019050919050565b600067ffffffffffffffff8211156131ac57600080fd5b601f19601f8301169050602081019050919050565b6000602082019050919050565b600081519050919050565b600081519050919050565b600081519050919050565b6000602082019050919050565b600073ffffffffffffffffffffffffffffffffffffffff82169050919050565b60008115159050919050565b6000819050919050565b6000819050919050565b600060ff82169050919050565b600073ffffffffffffffffffffffffffffffffffffffff82169050919050565b6000819050919050565b6000819050919050565b600060ff82169050919050565b82818337600083830152505050565b60005b838110156132b757808201518184015260208101905061329c565b838111156132c6576000848401525b50505050565b6000601f19601f83011690509190505600a265627a7a723058204dc0d274f22d96eccb4dd93d20fe50d1ab4e4b300a9fd1677f2d2b7a559455a16c6578706572696d656e74616cf50037",
  "source": "pragma solidity ^0.4.24;\npragma experimental ABIEncoderV2;\nimport { SafeMath } from \"./common/SafeMath.sol\";\n\n/// @title Oracle\n/// @author \ncontract Oracle {\n\tusing SafeMath for uint;\n\n\t/*\n     * Storage\n     */\n\tstruct Price {\n\t\tuint priceInWei;\n\t\tuint timeInSecond;\n\t\tuint blockTime;\n\t}\n\n\tstruct DelegateStake{\n\t\taddress addr;\n\t\tuint timeInSecond;\n\t\tuint stakes;\n\t\tuint8 v;\n\t\tbytes32 r;\n\t\tbytes32 s;\n\t}\n\tuint public period;\n\tuint public mingRatio = 1;\n\tuint public openWindowTimeInSecond;\n\tuint public lastPriceTimeInSecond;\n\tuint public inceptionTimeInSecond;\n\t\n\tmapping(address => uint) public balanceOf;\n\tmapping(address => mapping (address => uint)) public allowance;\n\tmapping(address => uint) public totalStakedAmt; // for every one\n\tuint skipNum = 0;\n\n\n\tuint public totalVotersForCurrentRound;\n\taddress[] votersInCurrentRound;\n\tmapping(address => bool) hasVotedInCurrentRound;\n\tmapping(address => uint) public votesForCurrentRound; //voter => votes\n\n\tuint public totalFeeders;\n\taddress[] feederLists;\n\tmapping (address => Price) public committedPrice;\n\tmapping(uint => address) deltaPriceToAddr;\n\tmapping (address => bool) public isWhiteListFeeders;\n\tmapping(address => bool) public hasCommitted;\n\tmapping(address => uint) public receivedVotes; //committer => votesReciverd\n\taddress[] addressCommitted;\n\tuint[] addressDelta;\n\n\tuint constant WEI_DEOMINATOR = 1000000000000000000;\n\tuint constant BP_DENOMINATOR = 10000;\n\n\tstring public name;\n\tstring public symbol;\n\tuint public totalSupply;\n\tuint8 public decimals = 18;\n\n\n\n\t/*\n     * Modifier\n     */\n\tmodifier isPriceFeed() {\n\t\trequire(isWhiteListFeeders[msg.sender] == true);\n\t\t_;\n\t}\n\n\t/*\n     * Events\n     */\n\tevent Transfer(address indexed from, address indexed to, uint value);\n\tevent Approval(address indexed tokenOwner, address indexed spender, uint tokens);\n\tevent CommitPrice(uint indexed priceInWei, uint indexed timeInSecond, address sender);\n\tevent Inception(uint inceptionTime, address startAddr);\n\tevent FinalizedPrice(uint priceInSecond, uint time, address winner);\n\n\t/*\n     * Constructor\n     */\n\tconstructor(\n\t\tuint pd,\n\t\tuint openWindow,\n\t\tstring memory tokenName,\n\t\tstring memory tokenSymbol,\n\t\tuint totalSupplyInWei\n\t\t) \n\t\tpublic\n\t{\n\t\tperiod = pd;\n\t\topenWindowTimeInSecond = openWindow;\n\t\tisWhiteListFeeders[msg.sender] = true;\n\t\tname = tokenName;\t\t\t\t\t\t\t\t   // Set the name for display purposes\n\t\tsymbol = tokenSymbol;\t\t\t\t\t\t\t   // Set the symbol for display purposes\n\t\ttotalSupply = totalSupplyInWei;\n\t\tbalanceOf[msg.sender] = totalSupplyInWei;\n\t}\n\n\t/*\n     * Public Functions\n     */\n\tfunction startOracle(\n\t\tuint startTime\n\t)\n\t\tpublic \n\t\tisPriceFeed() \n\t\treturns (bool success) \n\t{\n\t\tinceptionTimeInSecond = startTime;\n\t\tlastPriceTimeInSecond = startTime;\n\t\temit Inception(inceptionTimeInSecond, msg.sender);\n\t\treturn true;\n\t}\n\n\tfunction addWhiteList(address addr) public returns(bool){\n\t\t// for(uint i = 0;  i < whiteList.length; i++ ) {\n\t\tif(!isWhiteListFeeders[addr]){\n\t\t\tisWhiteListFeeders[addr] = true;\n\t\t\tfeederLists.push(addr);\n\t\t\ttotalFeeders +=1;\n\t\t\treturn true;\n\t\t}\n\t\treturn false;\n\t}\n\n\tfunction stake(uint amtInWei) public {\n\t\taddress sender = msg.sender;\n\t\trequire(amtInWei <= balanceOf[sender]);\n\t\t\n\t\tbalanceOf[sender] = balanceOf[sender] - amtInWei;\n\t\ttotalStakedAmt[sender] = totalStakedAmt[sender] + amtInWei;\n\t}\n\n\tfunction unStake(uint amtInWei) public {\n\t\taddress sender = msg.sender;\n\t\trequire(amtInWei <= totalStakedAmt[sender]);\n\t\tbalanceOf[sender] = balanceOf[sender] + amtInWei;\n\t\ttotalStakedAmt[sender] = totalStakedAmt[sender] - amtInWei;\n\t}\n\n\tfunction verify(address addr, bytes32 hash, uint8 v, bytes32 r, bytes32 s) internal pure returns(bool) {\n        return ecrecover(hash, v, r, s) == addr;\n    }\n\n// start of oracle\n\tfunction commitPrice(uint priceInWei, uint timeInSecond, DelegateStake[3] memory delegatedStakes) \n\t\tpublic \n\t\tisPriceFeed()\n\t\treturns (bool success)\n\t{\t\n\t\taddress sender = msg.sender;\n\t\tuint blkTime = block.timestamp;\n\n\t\tif(\n\t\t\tlastPriceTimeInSecond.add(period).add(openWindowTimeInSecond) >= blkTime \n\t\t\t&& lastPriceTimeInSecond.add(period).sub(openWindowTimeInSecond) <= blkTime\n\t\t)\n\t\t{\n\t\t\tcommittedPrice[sender] = Price( priceInWei,timeInSecond,block.timestamp);\n\t\t\taddressCommitted.push(sender);\n\t\t\thasCommitted[sender] = true;\n\n\t\t\tfor(uint i = 0; i<delegatedStakes.length; i++){\n\t\t\t\tDelegateStake memory stake = delegatedStakes[i];\n\t\t\t\tif(\n\t\t\t\t\tstake.timeInSecond == timeInSecond &&\n\t\t\t\t\tvotesForCurrentRound[stake.addr] <= totalStakedAmt[stake.addr] &&\n\t\t\t\t\tverify(\n\t\t\t\t\t\tstake.addr, \n\t\t\t\t\t\tkeccak256(abi.encodePacked( \n\t\t\t\t\t\t\tconcat(\n\t\t\t\t\t\t\t\tbytes32ToString(bytes32(stake.timeInSecond)),\n\t\t\t\t\t\t\t\tbytes32ToString(bytes32(stake.stakes))\n\t\t\t\t\t\t\t)\n\t\t\t\t\t\t)),\n\t\t\t\t\t\tstake.v,\n\t\t\t\t\t\tstake.r,\n\t\t\t\t\t\tstake.s\t\t\t\t\n\t\t\t\t\t)\n\t\t\t\t){\n\t\t\t\t\tvotesForCurrentRound[stake.addr] = votesForCurrentRound[stake.addr].add(stake.stakes);\n\t\t\t\t\tif(!hasVotedInCurrentRound[stake.addr]) {\n\t\t\t\t\t\ttotalVotersForCurrentRound+=1;\n\t\t\t\t\t\thasVotedInCurrentRound[stake.addr] = true;\n\t\t\t\t\t\tvotersInCurrentRound[totalVotersForCurrentRound] = stake.addr;\n\t\t\t\t\t}\n\t\t\t\t\t\n\t\t\t\t\treceivedVotes[sender] = receivedVotes[sender].add(stake.stakes);\n\t\t\t\t}\n\t\t\t}\n\n\t\t\treturn true;\t\n\t\t} else if (lastPriceTimeInSecond.add(period).add(openWindowTimeInSecond) < blkTime ){\n\t\t\t// round end, settle\n\t\t\t\n\t\t\tuint finalPriceInWei = calcFinalPrice();\n\t\t\t// uint size = addressCommitted.length;\n\t\t\t\n\t\t\t// uint[] storage prices = [];\n\t\t\tfor(uint j = 0;j <addressCommitted.length; j++){\n\t\t\t\taddress addr = addressCommitted[i];\n\t\t\t\tuint price = committedPrice[addr].priceInWei;\n\t\t\t\tuint delta = (price >= finalPriceInWei)? (price - finalPriceInWei): (finalPriceInWei - price);\n\t\t\t\taddressDelta.push(delta);\n\t\t\t\tdeltaPriceToAddr[delta] = addr;\n\t\t\t}\n\n\t\t\tuint[] memory sortedDeltaArray = sort(addressDelta);\n\t\t\tbalanceOf[deltaPriceToAddr[sortedDeltaArray[0]]] = \n\t\t\t\tbalanceOf[deltaPriceToAddr[sortedDeltaArray[0]]]\n\t\t\t\t.add(totalSupply * mingRatio / BP_DENOMINATOR);\n\n\t\t\temit FinalizedPrice(finalPriceInWei, lastPriceTimeInSecond + period, deltaPriceToAddr[sortedDeltaArray[0]]);\n\t\t\tstartNextRound();\n\t\t}\n\t}\n\n\tfunction startNextRound() {\n\t\tlastPriceTimeInSecond = lastPriceTimeInSecond.add(period);\n\t\tfor(uint i = 0;i <totalVotersForCurrentRound; i ++) {\n\t\t\thasVotedInCurrentRound[votersInCurrentRound[i]] = false;\n\t\t\tvotesForCurrentRound[votersInCurrentRound[i]] = 0;\n\t\t\tvotersInCurrentRound[i]=address(0);\n\t\t}\n\n\t\tfor(uint j = 0; j< totalFeeders; j++){\n\t\t\thasCommitted[feederLists[j]] = false;\n\t\t\treceivedVotes[feederLists[j]] = 0;\n\n\n\t\t}\n\t}\n\n\tfunction calcFinalPrice() view internal returns (uint)  {\n\t\tuint currentTime = lastPriceTimeInSecond + period;\n\t\tuint weightedPricesSum = 0;\n\t\tuint weightsSum = 0;\n\t\t// mapping(address => uint) deltaT;\n\t\tfor(uint i = 0; i<addressCommitted.length; i++)\n\t\t{\n\t\t\taddress addr = addressCommitted[i];\n\t\t\tuint priceInWei = committedPrice[addr].priceInWei;\n\t\t\tuint blockTime = committedPrice[addr].blockTime;\n\t\t\tuint stakeAmt = totalStakedAmt[addr];\n\t\t\tuint deltaTime = (blockTime >= currentTime)? (blockTime - currentTime): (currentTime - blockTime);\n\t\t\tuint weight = stakeAmt.add(receivedVotes[addr])/deltaTime; //wanghe need to convert to wei?\n\t\t\tweightedPricesSum = weightedPricesSum.add(weight * priceInWei);\n\t\t\tweightsSum = weightsSum.add(weight);\n\t\t}\n\n\t\tuint finalPrice = weightedPricesSum / weightsSum; // wanghe need to convert to wei?\n\t\treturn finalPrice;\n\t}\n\n\n\tfunction bytes32ToString(bytes32 x) internal pure returns (string) {\n\t\tbytes memory bytesString = new bytes(32);\n\t\tuint charCount = 0;\n\t\tfor (uint j = 0; j < 32; j++) {\n\t\t\tbyte char = byte(bytes32(uint(x) * 2 ** (8 * j)));\n\t\t\tif (char != 0) {\n\t\t\t\tbytesString[charCount] = char;\n\t\t\t\tcharCount++;\n\t\t\t}\n\t\t}\n\t\tbytes memory bytesStringTrimmed = new bytes(charCount);\n\t\tfor (j = 0; j < charCount; j++) {\n\t\t\tbytesStringTrimmed[j] = bytesString[j];\n\t\t}\n\t\treturn string(bytesStringTrimmed);\n\t}\n\n\t\n\t// end of oracle\n\n\tfunction concat(string memory _a, string memory  _b) public pure returns (string){\n        bytes memory bytes_a = bytes(_a);\n        bytes memory bytes_b = bytes(_b);\n        string memory length_ab = new string(bytes_a.length + bytes_b.length);\n        bytes memory bytes_c = bytes(length_ab);\n        uint k = 0;\n        for (uint i = 0; i < bytes_a.length; i++) bytes_c[k++] = bytes_a[i];\n        for (i = 0; i < bytes_b.length; i++) bytes_c[k++] = bytes_b[i];\n        return string(bytes_c);\n    }\n\n\tfunction sort(uint[] data) public returns(uint[]) {\n       quickSort(data, int(0), int(data.length - 1));\n       return data;\n    }\n    \n    function quickSort(uint[] memory arr, int left, int right) internal{\n        int i = left;\n        int j = right;\n        if(i==j) return;\n        uint pivot = arr[uint(left + (right - left) / 2)];\n        while (i <= j) {\n            while (arr[uint(i)] < pivot) i++;\n            while (pivot < arr[uint(j)]) j--;\n            if (i <= j) {\n                (arr[uint(i)], arr[uint(j)]) = (arr[uint(j)], arr[uint(i)]);\n                i++;\n                j--;\n            }\n        }\n        if (left < j)\n            quickSort(arr, left, j);\n        if (i < right)\n            quickSort(arr, i, right);\n    }\n\n\t/*\n     * ERC token functions\n     */\n\t/// @dev transferInternal function.\n\t/// @param from  from address\n\t/// @param to   to address\n\t/// @param tokens num of tokens transferred\n\tfunction transferInternal(address from, address to, uint tokens) \n\t\tinternal \n\t\treturns (bool success) \n\t{\n\t\t// Prevent transfer to 0x0 address. Use burn() instead\n\t\trequire(to != address(0));\n\t\t// Check if the sender has enough\n\t\trequire(balanceOf[from] >= tokens);\n\t\t// Save this for an assertion in the future\n\t\tuint previousBalances = balanceOf[from].add(balanceOf[to]);\n\t\t// Subtract from the sender\n\t\tbalanceOf[from] = balanceOf[from].sub(tokens);\n\t\t// Add the same to the recipient\n\t\tbalanceOf[to] = balanceOf[to].add(tokens);\n\t\t// Asserts are used to use static analysis to find bugs in your code. They should never fail\n\t\tassert(balanceOf[from].add(balanceOf[to]) == previousBalances);\n\t\temit Transfer(from, to, tokens);\n\t\treturn true;\n\t}\n\n\tfunction transfer(address to, uint tokens)\n\t\tpublic\n\t\treturns (bool success) \n\t{\n\t\treturn transferInternal( msg.sender, to, tokens);\n\t}\n\n\tfunction transferFrom( address from, address to, uint tokens) \n\t\tpublic \n\t\treturns (bool success) \n\t{\n\t\taddress spenderToUse = msg.sender;\n\t\trequire(tokens <= allowance[from][spenderToUse]);\t // Check allowance\n\t\tallowance[from][spenderToUse] = allowance[from][spenderToUse].sub(tokens);\n\t\treturn transferInternal( from, to, tokens);\n\t}\n\n\tfunction approve( address spender, uint tokens) \n\t\tpublic \n\t\treturns (bool success) \n\t{\n\t\taddress senderToUse = msg.sender;\n\t\tallowance[senderToUse][spender] = tokens;\n\t\temit Approval(senderToUse, spender, tokens);\n\t\treturn true;\n\t}\n\n}\n",
  "sourcePath": "C:/Users/WeitaoYang/Downloads/dev/posOracle/contracts/Oracle.sol",
  "compiler": {
    "name": "solc",
    "version": "0.4.24+commit.e67f0147.Emscripten.clang"
  },
  "schemaVersion": "3.0.0-beta.0",
  "updatedAt": "2018-12-08T19:41:38.094Z"
}